:100000000C94BD020C94E5020C94E5020C94E502FC
:100010000C94E5020C94E5020C94E5020C94E502C4
:100020000C94E5020C94E5020C94E5020C94E502B4
:100030000C94E5020C94E5020C94E5020C94E502A4
:100040000C943C0C0C94E5020C94AC0C0C94860CB7
:100050000C94E5020C94E5020C94E5020C94E50284
:100060000C94DE0C0C94E50256656C6F6369646158
:10007000642072656C6F6A00416A757374617220E6
:10008000686F726100556D6272616C206465206CEE
:10009000757A00436F7274696E61730052696567A7
:1000A0006F20746172646500526965676F206D61CD
:1000B0006E616E61005B4556454E544F5D204C7538
:1000C000636573204150414741444153005B4556AD
:1000D000454E544F5D204C7563657320454E434536
:1000E0004E4449444153005B4556454E544F5D20B4
:1000F0004D6F746F7220646520636F7274696E61F6
:1001000020646574656E69646F005B4556454E54A6
:100110004F5D20436F7274696E61204345525241B6
:100120004E444F005B4556454E544F5D20436F7221
:1001300074696E612041425249454E444F00436FFD
:100140006E6669677572616369C3B36E20706F72A2
:10015000206465666563746F2063617267616461C2
:100160000053697374656D61207061726120436131
:10017000736120696E69636961646F00486F7261C1
:1001800020696E696369616C2066696A61646120D7
:10019000284631203D20616A757374617220686F52
:1001A000726129004552524F523A206E6F2073659A
:1001B00020656E636F6E7472C3B320656C205254F9
:1001C0004320445331333037004C434420656E2084
:1001D00030780000486F726120616A7573746164E1
:1001E00061005B50524F475D20486F72612064652B
:1001F0006C2052544320616A7573746164610055C8
:1002000073652048484D4D20283234682900486FD6
:10021000726120696E76616C696461000047756186
:10022000726461646F005B50524F475D204C757A79
:1002300020656E6369656E64652F61706167613A00
:1002400020006D61796F722071756520656E636540
:100250006E646572004170616761722064656265F9
:1002600020736572003020612039390056616C6F4F
:100270007220696E76616C69646F00004775617207
:100280006461646F005B50524F475D200055736599
:100290002048484D4D20283234682900486F72614B
:1002A00020696E76616C696461000056656C6F63ED
:1002B000696461642063616D6269616461005B50BF
:1002C000524F475D2056656C6F63696461642064BA
:1002D000656C2072656C6F6A3A2078005B50524FF3
:1002E000475D204C7563657320656E204F4E206D11
:1002F000616E75616C005B50524F475D204C7563B9
:10030000657320656E204F4646206D616E75616C89
:10031000005B50524F475D204C7563657320656EDE
:10032000204155544F005B4556454E544F5D204388
:100330006F7274696E612043455252414441005BC3
:100340004556454E544F5D20436F7274696E61206F
:1003500041424945525441005B4556454E544F5D1C
:1003600020526965676F204150414741444F005B0F
:100370004556454E544F5D20526965676F20454E86
:1003800043454E4449444F0041424945525441007F
:1003900043455252414E444F00434552524144411D
:1003A0000041425249454E444F00286D616E7561CF
:1003B0006C2900286175746F290020436F7274697D
:1003C0006E613A004F4646004F4E004F4646004F82
:1003D0004E00204C756365733A0020526965676F63
:1003E0003A00343D7833303020204F4E2F433D616A
:1003F0007472617300313D78312020323D783130A4
:100400002020333D7836300041637475616C3A20AA
:100410007825750056656C6F636964616420646556
:100420006C2072656C6F6A004F4B3D6F6B20204FE4
:100430004E2F433D626F72726172004E7565766F2A
:100440003A202025730041637475616C3A20253091
:1004500032753A253032753A2530327500416A7569
:100460007374617220686F7261004F4B3D6F6B2037
:10047000204F4E2F433D626F72726172004E756560
:10048000766F3A2020257325730041637475616C83
:100490003A2025752525004C757A3A204150414770
:1004A000415220736F627265004C757A3A20454E56
:1004B00043454E4445522062616A6F004F4B3D6F89
:1004C0006B20204F4E2F433D626F72726172004E5F
:1004D0007565766F3A202025730041637475616CF1
:1004E0003A20253032753A25303275004142524962
:1004F0005200494E4943494F0046494E0043455238
:10050000524152002553202553002563257520258F
:100510005300A8009C00930085007800680000004C
:100520000000240027002A00000000002500280009
:100530002B0000000000230026002900040404040E
:10054000040404040202020202020303030303037D
:10055000010204081020408001020408102001025A
:100560000408102000000008000201000003040736
:100570000000000000000000FD0D11241FBECFEFA1
:10058000D8E0DEBFCDBF12E0A0E0B1E0E8E2FAE3E0
:1005900002C005900D92A838B107D9F725E0A8E868
:1005A000B2E001C01D92AC31B207E1F712E0CDEB31
:1005B000D2E004C02197FE010E94A91BCC3BD107C9
:1005C000C9F70E949C0E0C94121D0C940000089513
:1005D000089596E0899FD0011124A755BB4F9096AE
:1005E0007C936E935F9791E091969C939197E091A5
:1005F0001605F091170590911505992339F030975C
:1006000051F0811108C08091C5040994309719F008
:100610005C968C91FACF0895833081F028F4813074
:1006200099F08230A9F008958730A9F08830C9F098
:100630008430B1F4809180008F7D03C08091800070
:100640008F7780938000089584B58F7784BD089557
:1006500084B58F7DFBCF8091B0008F778093B00001
:1006600008958091B0008F7DF9CFCF93DF93282F2D
:1006700030E0F901EC59FA4F8491F901E05BFA4F4F
:10068000D491F901E45CFA4FC491CC23A1F081111B
:100690000E940C03EC2FF0E0EE0FFF1FEE5CFA4F10
:1006A000A591B491EC91ED2381E090E009F480E014
:1006B000DF91CF91089580E090E0FACF1F93CF9320
:1006C000DF93282F30E0F901EC59FA4F8491F901BA
:1006D000E05BFA4FD491F901E45CFA4FC491CC236A
:1006E000A9F0162F81110E940C03EC2FF0E0EE0F01
:1006F000FF1FE85DFA4FA591B4918FB7F894EC9184
:10070000111108C0D095DE23DC938FBFDF91CF910C
:100710001F910895DE2BF8CFCF93DF9390E0FC017B
:10072000E05BFA4F2491845C9A4FFC01849188230A
:10073000C9F090E0880F991FFC01E25EFA4FA59185
:10074000B491FC01E85DFA4FC591D49161110DC0DF
:100750009FB7F8948C91209582238C9388812823CD
:1007600028839FBFDF91CF910895623051F49FB7E6
:10077000F8943C91822F809583238C93E8812E2BD3
:10078000EFCF8FB7F894EC912E2B2C938FBFEACF3D
:100790003FB7F8948091A6039091A703A091A80376
:1007A000B091A90326B5A89B05C02F3F19F001966B
:1007B000A11DB11D3FBFBA2FA92F982F8827BC01BB
:1007C000CD01620F711D811D911D42E0660F771FE3
:1007D000881F991F4A95D1F708958F929F92AF92E3
:1007E000BF92CF92DF92EF92FF924B015C010E9489
:1007F000C8036B017C010E94C8036C197D098E0936
:100800009F09683E734081059105A8F321E0821A93
:100810009108A108B10888EEC80E83E0D81EE11C3B
:10082000F11C81149104A104B10429F7FF90EF9009
:10083000DF90CF90BF90AF909F908F9008952FB78B
:10084000F8946091A2037091A3038091A403909106
:10085000A5032FBF08950F931F93CF93DF93C82F46
:10086000D62F86E0C89FF0011124E755FB4F11A257
:10087000878D90A181309105F1F058F0823091057B
:10088000F1F1039709F440C0DF91CF911F910F91CF
:1008900008956623C9F361E070E08C2F0E94E9029D
:1008A0000E941F0460930105709302058093030565
:1008B00090930405E9CF0E941F0400910105109157
:1008C00002052091030530910405AB01BC01401BDA
:1008D000510B620B730B8091130590911405B0E0DE
:1008E000A0E084179507A607B70748F462E070E018
:1008F0008C2FDF91CF911F910F910C94E90263E04F
:1009000070E0D111C1CFF4CF70E060E0F1CF862F5D
:10091000642F0C948C03862F642F0C945E03862F17
:100920000C943503AF92BF92CF92DF92EF92FF9279
:100930000F931F93CF93DF936C017B018B01040F07
:10094000151FEB015E01AE18BF08C017D10759F0A3
:100950006991D601ED91FC910190F081E02DC601E5
:100960000995892B79F7C501DF91CF911F910F91DF
:10097000FF90EF90DF90CF90BF90AF900895FC0173
:10098000538D448D252F30E0842F90E0821B930BF4
:10099000541710F0CF96089501970895FC01918D9A
:1009A000828D981761F0A28DAE0FBF2FB11D5D969D
:1009B0008C91928D9F5F9F73928F90E008958FEF3F
:1009C0009FEF0895FC01918D828D981731F0828DF3
:1009D000E80FF11D858D90E008958FEF9FEF08954A
:1009E000FC01918D228D892F90E0805C9F4F821BAE
:1009F00091098F739927089580E094E00E94F00494
:100A000021E0892B09F420E0822F089580E090E016
:100A1000892B29F00E94FC0481110C940000089598
:100A2000FC01A48DA80FB92FB11DA35ABF4F2C9163
:100A3000848D90E001968F739927848FA689B7895A
:100A40002C93A089B1898C91837080648C93938D51
:100A5000848D981306C00288F389E02D80818F7DF4
:100A600080830895EF92FF920F931F93CF93DF93AC
:100A7000EC0181E0888F9B8D8C8D98131AC0E889DA
:100A8000F989808185FF15C09FB7F894EE89FF89A9
:100A90006083E889F98980818370806480839FBF47
:100AA00081E090E0DF91CF911F910F91FF90EF9047
:100AB0000895F62E0B8D10E00F5F1F4F0F73112757
:100AC000E02E8C8D8E110CC00FB607FCFACFE88992
:100AD000F989808185FFF5CFCE010E941005F1CF05
:100AE000EB8DEC0FFD2FF11DE35AFF4FF0829FB706
:100AF000F8940B8FEA89FB8980818062CFCF0F93B6
:100B00001F93CF93DF938C01D0E0C0E0F801EC0F8E
:100B1000FD1F6491662341F080E094E00E9432055D
:100B2000892B11F02196F2CFCE01DF91CF911F9149
:100B30000F910895CF93DF93EC01888D8823B9F04E
:100B4000AA89BB89E889F9898C9185FD03C08081D8
:100B500086FD0DC00FB607FCF7CF8C9185FFF2CF55
:100B6000808185FFEDCFCE010E941005E9CFDF9196
:100B7000CF910895089520911903260F3327331F2D
:100B800021323105ECF42091D603FC0190E080E0A5
:100B9000243069F082E00895A09119032191AC01FD
:100BA00047505D4FA40FB52FB11D2C9301968617AA
:100BB00098F380911903680F6093190380E00895FA
:100BC00081E008951092D60381E08093D5031092BE
:100BD000B00361E082E10E945E0361E083E10E9474
:100BE0005E03E9EBF0E080818E7F808380818D7FE2
:100BF000808388E48093B80085E48093BC000895E6
:100C00001092AF031092AE031092DD031092FF0317
:100C10000E94E20587EE92E09093AD038093AC03CF
:100C200088EE92E09093AB038093AA030895CF934C
:100C3000DF9391E09093F8028823B9F0C091B80057
:100C4000D091BA008091BC008A7B8093BC0060E0A8
:100C500082E10E945E0360E083E10E945E030E94E5
:100C6000E205D093BA00C093B800DF91CF91089508
:100C7000CF92DF92EF92FF920F931F93CF93DF9368
:100C8000D091FF0381E0D13208F09CC0C091FE03F7
:100C90000E94C8036B017C018091D60381116CC056
:100CA00082E08093D60381E08093D5038FEF809319
:100CB000D4031092D303D093D203AEEDB3E0E2EBB2
:100CC000F3E080E0D8138DC01092B1038091B1039E
:100CD000CC0FC82BC093B1038091B003813009F0D1
:100CE00084C01092B0030E94C8036B017C01809104
:100CF000B1038093BB008091D8039091D903A09158
:100D0000DA03B091DB03892B8A2B8B2BA1F00E9495
:100D1000C8030091D8031091D9032091DA033091D0
:100D2000DB036C197D098E099F0906171707280731
:100D3000390708F442C08091BC0083FDD8CF85EC10
:100D40008093BC000E94C8036B017C018091D60394
:100D5000823009F44CC08091D4038F3F09F469C0FC
:100D60008091D403803209F466C08091D40380332B
:100D700009F463C084E026C08091D8039091D90320
:100D8000A091DA03B091DB03892B8A2B8B2B09F41A
:100D900083CF0E94C8030091D8031091D9032091FA
:100DA000DA033091DB036C197D098E099F09061760
:100DB00017072807390708F06FCF8091D7030E94E3
:100DC000170685E01092DD031092FF031092DC03FA
:100DD000DF91CF911F910F91FF90EF90DF90CF9017
:100DE00008959D9191938F5F6DCF85EEA9CF8091EE
:100DF000D8039091D903A091DA03B091DB03892B3A
:100E00008A2B8B2B09F4A2CF0E94C8030091D80330
:100E10001091D9032091DA033091DB036C197D091D
:100E20008E099F09061717072807390708F08ECF84
:100E3000C4CF80E0C7CF82E0C5CF83E0C3CF0895A1
:100E4000E091AF038091AE03E81730F4F0E0E85290
:100E5000FD4F808190E008958FEF9FEF089590916E
:100E6000AF038091AE032FEF3FEF981748F4E92FBF
:100E7000F0E0E852FD4F208130E09F5F9093AF0398
:100E8000C90108958091AE039091AF03891B990B1E
:100E90000895CF92DF92EF92FF920F931F93CF931B
:100EA000DF937C01CB018A012091DC03222389F0AE
:100EB000EB016B01C40ED51ECC15DD0569F06991FF
:100EC000D701ED91FC910190F081E02DC7010995CA
:100ED000F3CF642F0E94BB05C801DF91CF911F9112
:100EE0000F91FF90EF90DF90CF900895CF93DF9315
:100EF0001F92CDB7DEB769832091DC032223F9F07E
:100F00002091FF03203258F021E030E0FC013383D0
:100F1000228390E080E00F90DF91CF91089580913F
:100F2000DD03E82FF0E0E252FC4F998190838F5F60
:100F30008093DD038093FF0381E090E0ECCF61E0DC
:100F4000CE0101960E94BB05F7CFFC01248131E060
:100F50003093DC032093FE031092DD031092FF0315
:100F60008781682B8DE994E00E9476070C943806FF
:100F700090E080E00895FC01809177038430D9F4FB
:100F80002091720320538AE0909173039053289F1D
:100F9000900D112490832091740320539091750338
:100FA0009053289F900D1124DB019C938081883100
:100FB00010F49C3310F080E0089581E00895809350
:100FC0009C03109277031092720381E080930201D8
:100FD000089510928703E0918903E330B8F4E09319
:100FE000880384E0E89FF0011124E858FC4F8181D8
:100FF0009281A381B48180933F0390934003A09397
:101000004103B093420382E00C94DF0783E0E330B6
:10101000D9F384E0E430C1F385E0F6CFFC018091A0
:10102000770390917203811101C09FE590839091A5
:101030007303823008F49FE591839AE39283909141
:101040007403833008F49FE59383843028F0809103
:1010500075038483158208958FE5FBCF80E4809328
:101060007C0080917A00806480937A0080917A007D
:1010700086FDFCCFA0917800B091790024E630E0A5
:101080000E94AF1B2FEF33E040E050E00E94EE1AC9
:10109000822F089590E020919003B0918F03FC017E
:1010A000EE0FFF1FEE0FFF1FE858FC4F3181ACE33E
:1010B000628170E03A9F600D711D11243381880FA9
:1010C000991F880F991FFC01E458FC4F408150E0A4
:1010D0003A9F400D511D11244617570761F030E02B
:1010E000BA9F200D311D11246417750730F481E07B
:1010F0002617370730F480E0089581E02617370778
:1011000018F424173507B8F708950F931F93CF935A
:10111000DF93D82F162F042F81E08093DC0388E61D
:101120008093FE031092DD031092FF0360E08DE9CF
:1011300094E00E947607CAE0802F6C2F0E94751BF6
:10114000682F660F680F660F600F8DE994E00E94AC
:101150007607812F6C2F0E94751B682F660F680F12
:10116000660F610F8DE994E00E9476078D2F6C2F3A
:101170000E94751B682F660F680F660F6D0F8DE953
:1011800094E00E947607DF91CF911F910F910C940C
:1011900038060F931F93CF938C01C62FC42B6C2F4F
:1011A00064600E94A5076C2FC8010E94A50783EC0C
:1011B00090E00197F1F7CF911F910F9108950F9350
:1011C0001F93CF93DF938C01C62FD42F607F0E9493
:1011D000C90880E1C89FB00111244D2FC801DF91DB
:1011E000CF911F910F910C94C90841E00E94DF0834
:1011F00081E090E00895CF92DF92EF92FF920F93FB
:101200001F93CF93DF9381E08093DC0388E6809384
:10121000FE031092DD031092FF0360E08DE994E07D
:101220000E9476070E9438060E94C8036B017C0169
:101230008091D603811165C081E08093D6038093AD
:10124000D5039FEF9093D4031092D30392E0909331
:10125000D2038093B1038091B103806D8093B10379
:101260008091B003813009F087C01092B0030E94D2
:10127000C8036B017C018091B1038093BB00809116
:10128000D8039091D903A091DA03B091DB03892BA5
:101290008A2B8B2BA1F00E94C8030091D8031091D8
:1012A000D9032091DA033091DB036C197D098E0993
:1012B0009F09061717072807390708F443C08091CC
:1012C000BC0083FDD8CF85EC8093BC000E94C8038E
:1012D0006B017C018091D603813009F44FC080916D
:1012E000D303833008F06CC08091D303A2EBB3E04A
:1012F000E8EDF2E090E0981751F12D9121939F5F76
:10130000FACF8091D8039091D903A091DA03B091DC
:10131000DB03892B8A2B8B2B09F48ACF0E94C8030D
:101320000091D8031091D9032091DA033091DB03A7
:101330006C197D098E099F090617170728073907B9
:1013400008F076CF8091D7030E94170680E01092B4
:10135000AF038093AE038330A8F510928F031092F1
:10136000900310929103DF91CF911F910F91FF9005
:10137000EF90DF90CF90089585EEA6CF8091D803AF
:101380009091D903A091DA03B091DB03892B8A2BCA
:101390008B2B09F49FCF0E94C8030091D8031091B2
:1013A000D9032091DA033091DB036C197D098E0992
:1013B0009F09061717072807390708F08BCFC2CFF8
:1013C00083E094CF8DE994E00E942F07D82F8DE918
:1013D00094E00E942F07C82F8DE994E00E942F0708
:1013E000282FDF776D2F70E044E0759567954A955B
:1013F000E1F7962F990F990FE62FE91BEE0FED0FEE
:10140000CF774C2F50E064E0559547956A95E1F70A
:10141000942F990F990F491B440F4C0F26FF1DC0A5
:10142000922F9F71692F70E034E0759567953A951A
:10143000E1F7862F880F880F362F381B832F880FF0
:10144000890F6CE00E94751B25FD945F90938F03BC
:1014500040939003E093910386CF822F8F73282FC0
:1014600030E094E0359527959A95E1F7922F990F02
:10147000990F522F591B952F990F980FE7CFFB010A
:1014800001900020E9F73197AF01461B570BDC01B3
:10149000ED91FC910280F381E02D0994CF93DF93CD
:1014A0000E947F05EC0169E771E080E094E00E9412
:1014B0003F0A8C0F9D1FDF91CF910895CF93C82FC6
:1014C00080918E0390E0C11136C00297B1F160E0C7
:1014D00089E00E945E0360E08AE00E945E038AE089
:1014E00009C060E089E00E945E0360E08AE00E943B
:1014F0005E0389E061E00E945E0382E0C11181E049
:1015000080938E03C0938D030E941F046056704F1A
:101510008F4F9F4F60934303709344038093450321
:10152000909346038AE091E0CC2311F084E291E0AD
:10153000CF910C944E0A0197A1F6CF91089560E0E7
:1015400089E00E945E0360E08AE00E945E03809171
:101550008E03882321F087EE90E00E944E0A1092BD
:101560008E030895CF9390918B03981781F0C82F25
:1015700080938B03682F88E00E945E0385EB90E0E8
:10158000CC2311F08DEC90E0CF910C944E0ACF91CA
:1015900008958F929F92AF92BF920F931F93CF9314
:1015A000DF93CDB7DEB7A1970FB6F894DEBF0FBEBD
:1015B000CDBF19A2423008F44AE08E010F5D1F4FE3
:1015C000842E912CB12CA12CA50194010E94441BC6
:1015D000E62FB901CA01EA3004F5E05DD801EE93C7
:1015E0008D01232B242B252B79F790E080E0109799
:1015F00029F0BD0180E094E00E943F0AA1960FB659
:10160000F894DEBF0FBECDBFDF91CF911F910F9138
:10161000BF90AF909F908F900895E95CDFCF6F925D
:101620007F928F929F92AF92BF92CF92DF92EF9272
:10163000FF920F931F93CF93DF93CDB7DEB7AA9797
:101640000FB6F894DEBF0FBECDBF682EFE017696B2
:1016500080E06F01DB019D91BD01911109C0F60190
:10166000E80FF11D90E28F5F91938431E1F704C0A0
:1016700091938F5F843171F71AA6B4E16B9E70016C
:10168000112490E0970128573D4F5901E92FF0E0D0
:1016900046018E0E9F1EA5014E0F5F1FD4012C9197
:1016A000DA018C91281318C09F5F943178F3AA96C1
:1016B0000FB6F894DEBF0FBECDBFDF91CF911F9163
:1016C0000F91FF90EF90DF90CF90BF90AF909F90E1
:1016D0008F907F906F900895EE0DFF1DE857FD4F9E
:1016E0009E012F5F3F4F792E80E08901D4014D91FB
:1016F0004D015081451308C0B3E17B1671F0D40150
:101700006C915181651749F08F5FD9014D939D010F
:1017100041937394B4E17B12E9CFF801E80FF11D16
:10172000108280903C0390903D03D4011696EC917A
:101730006E16C0F0E150D40115968C91981710F0F8
:101740009FEF980FE80DF92DF11D6185690F606815
:1017500040E0C4010E94DF08B801C4010E943F0AB2
:10176000972DA3CFE62DE7CF85ED8093BC00809128
:10177000D8039091D903A091DA03B091DB030796C7
:10178000A11DB11D23E0B695A795979587952A953C
:10179000D1F72091BC0024FD03C01092D603089518
:1017A0004091D8035091D9036091DA037091DB0323
:1017B000452B462B472B69F30097A105B10541F056
:1017C0002AE22A95F1F700C00197A109B109E1CFFA
:1017D0008091D7030C9417060F931F93CF938B011F
:1017E000C42F44E150E0BC018DE593E00E94131842
:1017F0001092710344E150E0B80188E493E00E9444
:10180000131810925C03C09397030E941F046C5E30
:101810007A4F8F4F9F4F60939803709399038093F3
:101820009A0390939B0386E080939C0381E08093CE
:101830000201CF911F910F910895FF920F931F9373
:10184000CF93DF9308E713E0D0E0C0E0F801F19018
:101850008F01CE010E94D81AF81621F06F2DCE010B
:101860000E94E01A2196CF30D10581F7DF91CF9108
:101870001F910F91FF9008951F920F920FB60F9234
:1018800011242F933F938F939F93AF93BF93809196
:10189000A2039091A303A091A403B091A50330915A
:1018A000A10323E0230F2D3758F50196A11DB11D8B
:1018B0002093A1038093A2039093A303A093A40376
:1018C000B093A5038091A6039091A703A091A803CC
:1018D000B091A9030196A11DB11D8093A603909319
:1018E000A703A093A803B093A903BF91AF919F91C1
:1018F0008F913F912F910F900FBE0F901F901895D1
:1019000026E8230F0296A11DB11DD2CF1F920F9280
:101910000FB60F9211242F933F934F935F936F93C2
:101920007F938F939F93AF93BF93EF93FF9380E049
:1019300094E00E941005FF91EF91BF91AF919F91AC
:101940008F917F916F915F914F913F912F910F9068
:101950000FBE0F901F9018951F920F920FB60F9207
:1019600011242F938F939F93EF93FF93E091100493
:10197000F09111048081E0911604F091170482FD2A
:101980001BC09081809119048F5F8F7320911A047E
:10199000821741F0E0911904F0E0E050FC4F958F80
:1019A00080931904FF91EF919F918F912F910F9048
:1019B0000FBE0F901F9018958081F4CF1F920F9249
:1019C0000FB60F9211242F933F934F935F936F9312
:1019D0007F938F939F93AF93BF93EF93FF938091E8
:1019E000B900887F803609F44AC0F0F5883209F4DE
:1019F000A7C018F5803109F49BC0B8F4882309F416
:101A0000F9C0883009F494C0FF91EF91BF91AF9174
:101A10009F918F917F916F915F914F913F912F9106
:101A20000F900FBE0F901F901895883109F488C051
:101A3000803251F78093D40314C0803409F49DC0E0
:101A400040F48033B9F38833F9F68093D40385ECFE
:101A5000B0C0803509F485C0883509F496C0883453
:101A600099F60E94B40BD0CF883909F48CC038F5B0
:101A7000883729F050F4883611F0803729F683E052
:101A80008093D60310923B0357C0883809F47BC07B
:101A9000803919F0803809F0B7CF80913B0380324C
:101AA00008F071C0E0913B0381E08E0F80933B030F
:101AB0008091BB00F0E0E55EFC4F80833DC0803B41
:101AC00039F0E0F4803A09F479C0883A09F09CCF03
:101AD00084E08093D60310921A0310921903E091C8
:101AE000AC03F091AD0309958091190381110FC0EA
:101AF00081E0809319031092F90209C0803C09F437
:101B0000A6CF883C09F4A3CF883B09F07DCFE091B4
:101B10001A0381E08E0F80931A03F0E0E750FD4F27
:101B200080818093BB0090911A038091190329C092
:101B30008091B1038093BB0085EC8093BC0064CF9F
:101B40009091D3038091D203981758F5E091D30375
:101B500081E08E0F8093D303F0E0EE54FC4F808140
:101B6000E9CFE091D30381E08E0F8093D30380917E
:101B7000BB00F0E0EE54FC4F80839091D303809142
:101B8000D2039817C8F285E8D8CFE091D30381E05B
:101B90008E0F8093D3038091BB00F0E0EE54FC4F96
:101BA00080838091D50381115CCF81E08093B00365
:101BB00084EA8093BC001092D60326CF85EC8093F4
:101BC000BC001092D60380913B03803230F4E09148
:101BD0003B03F0E0E55EFC4F108260913B0370E058
:101BE000E091AA03F091AB038BE193E00995109289
:101BF0003B030ACF1092D40334CF10920304109207
:101C0000020488EE93E0A0E0B0E080930404909397
:101C10000504A0930604B09307042FE431E0309349
:101C200001042093000425EC30E030930D04209350
:101C30000C0424EC30E030930F0420930E0420ECCD
:101C400030E0309311042093100421EC30E0309305
:101C500013042093120422EC30E0309315042093F7
:101C6000140426EC30E030931704209316041092ED
:101C7000190410921A0410921B0410921C04109262
:101C8000A00410929F048093A1049093A204A093B7
:101C9000A304B093A40481E691E090939E04809302
:101CA0009D041092AB041092AF041092AE041092F7
:101CB000B00483E791E09093AA048093A904E5EC33
:101CC000F4E01082148213821582369685E0E130AA
:101CD000F807B9F78AE091E090930C0580930B0523
:101CE00086E091E090930E0580930D0584E080934B
:101CF0000F05809310058EE091E090930A05809384
:101D000009058AE090E0909312058093110584EF15
:101D100091E090931405809313051092170510928B
:101D200016051092050510920605109207051092EF
:101D30000805109215050895CF93DF93CDB7DEB750
:101D4000C057D1090FB6F894DEBF0FBECDBF78944F
:101D500084B5826084BD84B5816084BD85B58260B0
:101D600085BD85B5816085BD80916E008160809361
:101D70006E001092810080918100826080938100CA
:101D800080918100816080938100809180008160DA
:101D9000809380008091B10084608093B100809135
:101DA000B00081608093B00080917A00846080935D
:101DB0007A0080917A00826080937A0080917A0024
:101DC000816080937A0080917A00806880937A00A5
:101DD0001092C100E0911004F091110482E0808320
:101DE000E0910C04F0910D041082E0910E04F0914A
:101DF0000F048FEC808310921804E0911404F0918A
:101E0000150486E08083E0911204F0911304808130
:101E100080618083E0911204F091130480818860D6
:101E20008083E0911204F0911304808180688083A4
:101E3000E0911204F091130480818F7D808361E032
:101E400087E00E948C0361E088E00E948C0361E0DF
:101E500089E00E948C0361E08AE00E948C030E946A
:101E60009F0A0E9400068091240190912501A09173
:101E70002601B091270189839A83AB83BC838E01AD
:101E80000F5F1F4F7E0125E0E20EF11C3801CC24CC
:101E9000C394F801D1908F01C092DC03D092FE036D
:101EA0001092DD031092FF030E943806882329F068
:101EB0000E151F0571F7E8E3DE2E8DE090E00E941D
:101EC000B61B7C01FC01138212828CE291E09183AB
:101ED0008083D48284E1858394E0968368E0C62E73
:101EE000C7829087118690E49287838784E58487F0
:101EF000F0923D03E0923C030E94000662E370E032
:101F000080E090E00E94ED0360E0C7010E94A50719
:101F10006AE070E080E090E00E94ED0340E060E362
:101F2000C7010E94C9080BE416E4C8010197F1F744
:101F300040E060E3C7010E94C908C8010197F1F7BA
:101F400040E060E3C7010E94C90883E592E0019781
:101F5000F1F740E060E2C7010E94C90840E068E292
:101F6000C7010E94DF08F7016085686040E0C70193
:101F70000E94DF0840E061E0C7010E94DF0862E0E4
:101F800070E080E090E00E94ED0340E066E0C70171
:101F90000E94DF08F701C78260E0C7010E94A50721
:101FA00089EC91E00E947F056D2D70E090E080E06B
:101FB00040E10E94C90A69E771E080E094E00E9474
:101FC0003F0A61EB71E081E00E940F0B61EC71E070
:101FD00082E00E940F0B78E7E72E73E0F72E10E007
:101FE00000E0C8010E94D81AF70181937F010F5FBA
:101FF0001F4F0F301105A9F780917803873A79F0C8
:102000008FE0E4E3F1E0A8E7B3E001900D928A9558
:10201000E1F70E941D0C8EE391E00E944E0A0E949F
:10202000000681E08093DC0388E68093FE03109233
:10203000DD031092FF030E943806882379F084EABA
:1020400091E00E944E0A61ED71E081E00E940F0B69
:1020500060EE71E082E00E940F0BFFCF40E067E38B
:1020600085E00E9485088CE791E00E944E0A0E945C
:10207000FB080E942E08809392032091850391E033
:10208000821708F490E090938B0391E0821708F098
:1020900090E0892F0E94B20A82E00E944A0891E0F3
:1020A00089278093470381E691E00E944E0A68EEFB
:1020B00073E080E090E00E94ED031E01F9E42F0E32
:1020C000311C9E012F593F4F2901009104011091AD
:1020D00005010230110508F465C00E941F04C0907C
:1020E0009D03D0909E03E0909F03F090A0036C1995
:1020F0007D098E099F09683E73408105910508F4AA
:1021000051C00E941F0460939D0370939E038093AF
:102110009F039093A0030E94FB0820918F0330E05F
:10212000A0E1BEE00E94661B6B017C012091900340
:1021300030E0ACE3B0E00E94661B6C0D7D1D8E1D8F
:102140009F1D20919103620F711D811D911D0150F2
:102150001109600F711F811D911D20E831E541E0DB
:1021600050E00E94441B6B017C012CE330E040E016
:1021700050E00E94441B062FCA01B9012CE330E055
:1021800040E050E00E94441B162FC701B60120E139
:102190003EE040E050E00E94441B822F402F612F20
:1021A0000E94850881E0809315050E941F0400911C
:1021B0000505109106052091070530910805AB0132
:1021C000BC01401B510B620B730B80911105909168
:1021D0001205B0E0A0E084179507A607B70708F03E
:1021E0002DC110E080910F05181760F4E0910B05E8
:1021F000F0910C05E10FF11D62E080810E948C03DB
:102200001F5FF0CF912C80911005981608F063C0E5
:10221000E92CF12CE0910D05F0910E05EE0DFF1D5E
:1022200061E080810E948C03E0910D05F0910E0524
:10223000EE0DFF1D60E080810E945E0381E090E072
:10224000A0E0B0E0092C04C0880F991FAA1FBB1F93
:102250000A94D2F75C016C01C094D094812C8091D7
:102260000F05881608F5082D10E0E0910B05F09198
:102270000C05E00FF11F80810E9435030C5F1F4F9A
:10228000000F111FF801E755FB4F892B41F48081A6
:1022900091818A299B29918380838394E0CF8081D7
:1022A00091818C219D21F7CFE0910D05F0910E05D4
:1022B000EE0DFF1D61E080810E945E0380910D059F
:1022C00090910E05E80EF91E60E0F70180810E94F2
:1022D0008C03939498CF49EAC42E44E0D42E85EE23
:1022E00094E08601F801278D30A1232B31F4148E60
:1022F0002FEF3FEF368F258F11A20A5F1F4F8017F8
:10230000910781F7B12C36E0932E80910F05B81616
:1023100008F052C0A12CEB2CF12CEE0CFF1CC701D5
:102320008F549B4F7C0120911005A21608F042C0EB
:10233000F701608171810A2C02C0769567950A9435
:10234000E2F7B29E900111242A0D311DE9EAF4E072
:1023500080E0458D568D2417350709F444C68F5FFC
:1023600036968A30B1F760FF23C0E9EAF4E090E0E6
:1023700080E0448D411117C0E0910905F0910A05F4
:10238000E20FF31F4081989EF001999EF00D1124F9
:10239000E755FB4F448F368F258F10A2178E61E0D3
:1023A0000E942B0405C0019636968A30910509F7E4
:1023B000A394B9CFB394A9CFF12CF60181A18111D7
:1023C000F82EF6E0CF0ED11CC016D106B1F70E9450
:1023D0001F0460930505709306058093070590938D
:1023E000080580919C03FF2049F19091CA0499232C
:1023F00029F12091C8043091C90421303105F1F44C
:102400009091C50491111DC080919C03863009F004
:10241000DEC10E941F04009198031091990320913E
:102420009A0330919B03601B710B820B930B97FDFA
:10243000CEC1809197030E94DF07C9C11092150594
:10244000E3CF863031F321E0209302018530A8F4F8
:10245000823008F08EC08823C1F18130A9F6923411
:1024600009F06EC08091890390E0019666E070E00B
:102470000E94951B80938903C7CF853029F68FEC86
:10248000890F843008F0A0C1E92FEE0FFF0BEF5148
:10249000FF4F0081118110930501009304018EEB21
:1024A00092E00E947F05B80190E080E04AE00E943F
:1024B000C90A69E771E080E094E00E943F0A40E0C9
:1024C0006AEA72E08BEA92E097C0913421F41092AC
:1024D000890381E005C0923431F41092870384E0CF
:1024E0000E94DF0791CF85E09334D1F39434C9F48F
:1024F00080918C0390E0019663E070E00E94951B50
:1025000080938C03882339F0813041F48CED92E084
:102510000E944E0A79CF81E193E0FACF86EF92E0F4
:10252000F7CF81E0913319F0923321F480E00E94DB
:102530005E0A6ACF903309F04AC10E949F0A64CFB5
:10254000933429F48091890390E005968FCF8FEC26
:10255000890F863028F4809389030E94E90754CFBD
:102560009B34D9F3983519F0913409F030C180E0EB
:10257000B7CF23E0833009F024E030ED390F3A3053
:1025800098F4E0917703E21708F021C181E08E0F03
:1025900080937703F0E0EE58FC4F9083E82FF0E053
:1025A000EE58FC4F108230CF983581F4E0917703DC
:1025B000EE2321F0E150E0937703F1CF9091870370
:1025C000913009F086CF109287038ACF9B3409F0AF
:1025D000FEC0833009F484C0B201843009F4D3C052
:1025E000CE0187599F4F0E94BB07811108C042E06E
:1025F0006DE872E08CE992E00E94EC0B05CFAA96A0
:102600009FADAA97F201808120918703211109C013
:1026100090933F038093400381E08093870382E09F
:102620005FCF9093410380934203E091880324E0BD
:10263000E29FF0011124E858FC4F80913F039091F4
:102640004003A0914103B091420381839283A3830D
:10265000B4830E941D0C85E892E00E947F05E09102
:102660008803F0E0EE0FFF1FEE5EFA4F8591949124
:102670000E947F05809142031F928F9380914103B6
:102680001F928F93809140031F928F9380913F03FD
:102690001F928F938BEE91E09F938F931F9288E10F
:1026A0008F938E010F5F1F4F1F930F930E94E21CA9
:1026B000B80180E094E00E943F0A69E771E080E0A1
:1026C00094E00E943F0A41E06BE772E08CE792E001
:1026D0000E94EC0B0FB6F894DEBF0FBECDBF94CEB8
:1026E00080917703882309F48FCE82E793E00E94DC
:1026F000F5179091870391110FC0843630F043E0B5
:1027000065E672E08CE692E077CF80933E0381E04D
:102710008093870383E0E4CE90913E03981710F4F2
:10272000853630F043E062E472E085E592E064CF04
:1027300090938503809386030E941D0C86E292E0AD
:102740000E947F056091850370E090E080E04AE0A0
:102750000E94C90A6FE280E094E00E943205609115
:10276000860370E090E080E04AE00E94C90A69E7D1
:1027700071E080E094E00E943F0A41E06CE172E089
:102780008DE192E039CFCE0187599F4F0E94BB0760
:10279000811106C044E06FEF71E08EE092E02CCF33
:1027A00040E0F2016081AA968FADAA970E94850849
:1027B0000E94FB0882EE91E00E944E0A40E063ED29
:1027C00071E084ED91E018CF983509F482CE8091C4
:1027D0008E038823E1F00E941F04009143031091AF
:1027E00044032091450330914603601B710B820B1B
:1027F000930B97FD0CC010918D030E949F0A8FE3ED
:1028000093E0111102C086E293E00E944E0A0E94FA
:102810001F0400919303109194032091950330912C
:102820009603601B710B820B930B643F7140810513
:10283000910508F4A9C00E941F046093930370934C
:10284000940380939503909396030E94FB080E9443
:102850002E088093920380E00E944A08182F81116D
:1028600004C081E00E944A08182F80918A0318173B
:1028700071F010938A03612F87E00E945E038FE658
:1028800093E0111102C088E593E00E944E0A809106
:102890008C03813009F095C081E00E94B20A82E089
:1028A0000E944A0890914703891721F080934703BB
:1028B0000E945E0A8091900390910301891709F4A8
:1028C0005CC080930301909192031F929F9390911B
:1028D00091031F929F931F928F9380918F031F925A
:1028E0008F9382E092E09F938F931F9288E28F9361
:1028F0007F926F920E94E21CB30180E094E00E94FC
:102900003F0A8AED93E00E947F050FB6F894DEBF80
:102910000FBECDBF80918A03882309F463C08FEC7A
:1029200093E00E947F0582ED93E00E947F058091F5
:102930008B03882309F459C088EC93E00E947F053B
:1029400080918C03811154C083EB93E00E947F053A
:102950008AEB93E00E947F0580918E03813009F419
:102960004AC0823009F44AC080918D03882309F45B
:1029700048C088E893E00E944E0A80919C038B7FB8
:1029800019F481E08093020180910201882309F407
:1029900034C1109202011982198E19AAF101108214
:1029A000E0919C03E73008F014C1F0E0E652FB4EE2
:1029B0000C94A91B041561169E161D177717B417E2
:1029C000E617823011F480E068CF809192039091F5
:1029D0008503891708F460CF90918603981708F053
:1029E0005ECFF1CF8BEC93E09CCF84EC93E0A6CF4D
:1029F0008AEA93E0ABCF81EA93E0BDCF80E993E030
:102A0000BACF89E993E0B7CF80918E030CE7A02E6F
:102A100001E0B02E813091F015E8A12E11E0B12E29
:102A2000823061F080918D03B6E9AB2EB1E0BB2E10
:102A3000882321F08EE8A82E81E0B82EF091900333
:102A4000AE96FFAFAE9720918F03AF962FAFAF97A3
:102A50008F2F90E03CE3239F800D911D1124EFEF19
:102A6000FFEFF0930101E0930001F8E7EF2EF3E0B0
:102A7000FF2EAB961FAEAB972FEF3FEFAD963FAF5C
:102A80002EAFAD97A0EA8A2EA5E09A2EF401E81B9E
:102A9000F90BE196FFAFEEAFE197F701818102817B
:102AA00010E0FCE38F9F000D111D1124F7018381BD
:102AB000C480D12CFCE38F9FC00CD11C11240C15B9
:102AC0001D0509F4C9C0AB968FADAB970E944A08AB
:102AD000882309F4A9C0D0920101C092000180911D
:102AE00091031F928F931F92AE969FADAE979F93C7
:102AF0001F92AF96EFADAF97EF93809105018F9343
:102B0000809104018F938FE192E09F938F931F92A6
:102B100088E18F937F926F920E94E21C0FB6F89427
:102B2000DEBF0FBECDBF80918C0321E481112DE467
:102B300080918B03882309F49DC08EE991E01F9258
:102B40002F939F938F93809192031F928F938BE388
:102B500092E09F938F931F9218E11F93CE014996A5
:102B60009F938F930E94E21CBF92AF9283E592E005
:102B70009F938F931F921F93CE01C1969F938F9324
:102B80000E94E21C80910001909101010FB6F8941F
:102B9000DEBF0FBECDBF20918A038F3F980709F09B
:102BA0006CC08EE991E0211102C081EA91E09F930F
:102BB0008F938EE592E09F938F931F9288E18F937E
:102BC0003F922F920E94E21C0FB6F894DEBF0FBE18
:102BD000CDBFB30180E00E940F0BBE01675E7F4F47
:102BE00081E00E940F0BBE016F5C7F4F82E00E946C
:102BF0000F0BB10183E00E940F0B83B7817F83BF6E
:102C000083B7816083BF889583B78E7F83BF80E061
:102C100090E0892B09F459CA0E94FC04882309F426
:102C200054CA0E9400004DCAE1968EAD9FADE19757
:102C3000800F911FB4010E94811BAD962EAD3FAD58
:102C4000AD978217930740F41093010100930001A0
:102C5000AD969FAF8EAFAD9734E0E30EF11CAB960F
:102C60008FADAB97813009F43ACFF1E0AB96FFAF6F
:102C7000AB9713CF81EA91E062CF6CE370E00E94E2
:102C8000811B7727211118C04AEA51E021EA31E07F
:102C90009F938F937F936F935F934F933F932F9364
:102CA0008FE692E09F938F931F9288E18F933F92DC
:102CB0002F920E94E21C88CF45EA51E02EE931E0D4
:102CC000E7CF80918903833008F483E07DEFE72E1E
:102CD000E80E8301FF24F394F80EE8E1DE2E95E080
:102CE0009E1520F18E2D90E0FC01EE0FFF1FEE5E91
:102CF000FA4F25913491019640918903E416E1F051
:102D000040E23F932F939F938F931F924F93EAE05C
:102D1000F5E0FF93EF931F92DF921F930F930E94B2
:102D20002A180FB6F894DEBF0FBECDBFE394085E3D
:102D30001F4FEF10D4CF4DCF4EE3E3CF90918803D8
:102D4000092F10E080918703923009F060C0811153
:102D500063C08CEE94E0F801EE0FFF1FEE5EFA4FB9
:102D6000259134919F938F933F932F9384E095E027
:102D70009F938F931F9288E18F937F926F920E940F
:102D80002A18409187030FB6F894DEBF0FBECDBF5F
:102D9000C801880F991F880F991F411143C0FC017A
:102DA000E858FC4F228130E0FC01E858FC4F41110B
:102DB00042C081813F932F931F928F938AED94E0BD
:102DC0009F938F931F9218E11F93CE0149969F9373
:102DD0008F930E942A18C2010E940E085F924F92A0
:102DE0008FEC94E09F938F931F921F93CE01C19617
:102DF0009F938F930E942A188CEB94E09F938F935C
:102E00001F921F933F922F920E942A18DDCE8111AC
:102E100006C082EF94E09FCF8DEF94E09CCF89EFC6
:102E200094E099CF000F111F000F111FF801E45813
:102E3000FC4F2081B8CF8381BDCF80918703811162
:102E40004DC089EA94E09F938F931F9288E18F93FE
:102E50007F926F920E942A180F900F900F900F9000
:102E60000F900F908091870381113BC08091850363
:102E70001F928F938AE894E09F938F931F9288E12B
:102E80008F93CE0149969F938F930E942A180FB675
:102E9000F894DEBF0FBECDBF80917703833020F55D
:102EA0008FEA91E09F938F9382E793E09F938F93B4
:102EB0008DE794E09F938F931F9218E11F93CE01AB
:102EC000C1969F938F930E942A188AE694E09F935D
:102ED0008F931F921F933F922F9296CF87E994E092
:102EE000B2CF80918603C4CF8BE791E0DBCF8DE535
:102EF00094E09F938F931F9218E11F937F926F929C
:102F00000E942A18809191031F928F9380919003C1
:102F10001F928F9380918F031F928F9386E494E08A
:102F20009F938F931F921F93CE0149969F938F93E8
:102F30000E942A18C2010E940E085F924F928BE3F2
:102F400094E09F938F931F921F93CE01C1969F93FE
:102F50008F930E942A1888E294E09F938F931F9288
:102F60001F933F922F9250CF84E194E09F938F93D1
:102F70001F9218E11F937F926F920E942A188091EE
:102F800005018F93809104018F9388E094E09F93D3
:102F90008F931F921F93CE0149969F938F930E9408
:102FA0002A1885EF93E09F938F931F921F93CE0172
:102FB000C1969F938F930E942A1882EE93E09F936D
:102FC0008F931F921F933F922F921ECF6DE573E058
:102FD000CE0149960E94DB1C68E473E0CE01C196E5
:102FE0000E94DB1CF6CD6170DBC9FC0188279927A4
:102FF000E89421912032E9F3293010F02E30C8F303
:103000002B3241F02D3239F4689404C00E9422180A
:10301000820F911D219120532A30C0F31EF4909508
:1030200081959F4F0895FB01DC014150504048F0CD
:1030300005900D920020C9F701C01D9241505040EB
:10304000E0F708957AE0979F902D879F802D910D4E
:1030500011240895AEE0B0E0E0E3F8E10C941B1B0E
:103060000D891E898F89988D2EE02C831A83098300
:1030700097FF02C080E090E801979E838D83AE01A8
:10308000455E5F4F698D7A8DCE0101960E945A1878
:103090004D815E8157FD0AC02F8138854217530745
:1030A0000CF49A01020F131FF80110822E96E4E02F
:1030B0000C94371BABE0B0E0E0E6F8E10C940D1B9C
:1030C0007C013B018A01FC0117821682838181FF0A
:1030D000C8C1CE0101965C01F7019381F30193FD14
:1030E000859193FF81913F01882309F453C1853273
:1030F00039F493FD859193FF81913F01853229F445
:10310000B70190E00E944A1AE7CF912C212C312C74
:10311000FFE1F31538F08B3211F190F4803209F1B0
:10312000833229F137FC3CC020ED280F2A3050F5BE
:1031300036FE20C08AE0989E200D1124922E06C0F3
:103140008D3291F0803371F7689430F8F30193FD7C
:10315000859193FF81913F018111DACF21C068945D
:1031600031F8689432F8F2CF689433F8EFCF68946E
:1031700034F8ECCFEAE02E9E200D1124222E689424
:1031800035F8E4CF8E3229F436FC04C1689436F861
:10319000DDCF8C3619F4689437F8D8CF8836B1F281
:1031A000982F9F7D95549330E0F08336A1F18337BB
:1031B000C1F1833509F063C02801F2E04F0E511CC4
:1031C000F801C080D180692D70E036FC02C06FEF3D
:1031D0007FEFC6010E94341A4C01689437F88201CF
:1031E0000AC00C5F1F4FFFE3F98388248394912C5E
:1031F0006501E89437F833FE2DC0522C81149104F8
:1032000071F5552009F468CFB70180E290E00E9483
:103210004A1A5A94F6CFF801808189830E5F1F4FB6
:10322000E4CF2801F2E04F0E511CF801C080D1809C
:10323000692D70E036FC02C06FEF7FEFC6010E947F
:103240003F1A4C018201D5CFB70180E290E00E9485
:103250004A1A2A942814190409F0B0F7CECFF601BF
:1032600037FC859137FE81916F01B70190E00E9494
:103270004A1A51105A94F1E08F1A9108BFCF843640
:1032800019F0893609F077C0F80137FE6BC060810C
:103290007181828193810C5F1F4FF32DFF763F2E4A
:1032A00097FF09C090958095709561957F4F8F4FDE
:1032B0009F4F689437F82AE030E0A5010E947A1AFF
:1032C000C82ECA188C2C432C36FE0CC0E89440F84B
:1032D000C91440F434FE05C032FC03C0F32DFE7E59
:1032E0004F2E892C44FE95C0FE01EC0DF11D80810E
:1032F000803309F087C0242D297E422E842D8870CA
:10330000582E43FC95C040FE8FC09C2C821418F4AC
:103310002C0C922C981844FE91C0B70180E390E0E9
:103320000E944A1A42FE09C088E790E041FE02C0AE
:1033300088E590E0B7010E944A1AC91408F48AC0CF
:10334000CA94D12C9FEFC91AD90ACA0CDB1CF6010A
:1033500082916F01B70190E00E944A1AAC14BD043B
:10336000B1F74FCF60817181072E000C880B990B4C
:103370000E5F1F4F92CFD32CE894D4F82AE030E0B0
:10338000853739F1232D297FD22E8F3601F148F46C
:103390008835A9F0F701868197812B96E2E10C949C
:1033A000291B803749F08837A9F7D4FE02C06894FA
:1033B000D2F820E130E00DC06894D4F8F6CF34FEA6
:1033C00003C0822F8660D82E20E132E002C028E0C0
:1033D00030E0F801D7FE0FC0608171818281938156
:1033E0000C5F1F4FA5010E947A1AC82ECA183D2CE7
:1033F000E89437F867CF6081718190E080E00E5FDC
:103400001F4FF0CF42FC02C0839478CF8394839403
:1034100075CF842D867809F471CFF6CFB70180E29D
:1034200090E00E944A1A83948214C0F3512C73CF07
:10343000522C5818821408F46ECFF8CF842D867859
:1034400009F47BCF8BE241FE80E247FC8DE2B701BD
:1034500090E071CFB70180E390E00E944A1A9A94FD
:103460006CCF8FEF9FEF99CFFC01059061507040BA
:103470000110D8F7809590958E0F9F1F0895FC013D
:103480006150704001900110D8F7809590958E0F93
:103490009F1F08950F931F93CF93DF93182F092F2A
:1034A000EB018B8181FD09C01FEF0FEF812F902F62
:1034B000DF91CF911F910F91089582FF14C02E814B
:1034C0003F818C819D81281739073CF4E881F9817F
:1034D000CF0101969983888310838E819F81019605
:1034E0009F838E83E3CFE885F985812F0995892B0A
:1034F000A1F3DACFFA01AA27283051F1203181F166
:10350000E8946F936E7F6E5F7F4F8F4F9F4FAF4FEB
:10351000B1E03ED0B4E03CD0670F781F891F9A1FFE
:10352000A11D680F791F8A1F911DA11D6A0F711DB2
:10353000811D911DA11D20D009F468943F912AE0BE
:10354000269F11243019305D3193DEF6CF010895A6
:10355000462F4770405D4193B3E00FD0C9F7F6CFD7
:10356000462F4F70405D4A3318F0495D31FD40529F
:10357000419302D0A9F7EACFB4E0A6959795879535
:1035800077956795BA95C9F7009761057105089514
:103590009B01AC010A2E06945795479537952795C0
:1035A000BA95C9F7620F731F841F951FA01D089558
:1035B000F999FECF92BD81BDF89A992780B50895FB
:1035C000262FF999FECF1FBA92BD81BD20BD0FB63F
:1035D000F894FA9AF99A0FBE01960895052E97FB72
:1035E0001EF400940E94051B57FD07D00E94441B47
:1035F00007FC03D04EF40C94051B50954095309574
:1036000021953F4F4F4F5F4F08959095809570954E
:1036100061957F4F8F4F9F4F08952F923F924F920A
:103620005F926F927F928F929F92AF92BF92CF9252
:10363000DF92EF92FF920F931F93CF93DF93CDB75B
:10364000DEB7CA1BDB0B0FB6F894DEBF0FBECDBFD3
:1036500009942A88398848885F846E847D848C84A4
:103660009B84AA84B984C884DF80EE80FD800C81AD
:103670001B81AA81B981CE0FD11D0FB6F894DEBF90
:103680000FBECDBFED010895A1E21A2EAA1BBB1BF0
:10369000FD010DC0AA1FBB1FEE1FFF1FA217B3071E
:1036A000E407F50720F0A21BB30BE40BF50B661F34
:1036B000771F881F991F1A9469F7609570958095F8
:1036C00090959B01AC01BD01CF010895A29FB0016F
:1036D000B39FC001A39F700D811D1124911DB29F46
:1036E000700D811D1124911D0895991B79E004C06E
:1036F000991F961708F0961B881F7A95C9F7809531
:103700000895AA1BBB1B51E107C0AA1FBB1FA61728
:10371000B70710F0A61BB70B881F991F5A95A9F77A
:1037200080959095BC01CD01089597FB072E16F466
:10373000009407D077FD09D00E94811B07FC05D0BB
:103740003EF4909581959F4F0895709561957F4FB8
:103750000895EE0FFF1F0590F491E02D09940E944B
:10376000661BB7FF0895821B930B08950F931F9359
:10377000CF93DF938230910510F482E090E0E091E6
:103780001A05F0911B0530E020E0B0E0A0E0309792
:1037900099F42115310509F44AC0281B390B24304E
:1037A0003105D8F58A819B816115710589F1FB018D
:1037B00093838283FE0111C0408151810281138174
:1037C00048175907E0F04817590799F4109761F026
:1037D00012960C93129713961C933296CF01DF9199
:1037E000CF911F910F91089500931A0510931B0517
:1037F000F4CF2115310551F04217530738F0A901D4
:10380000DB019A01BD01DF01F801C1CFEF01F9CF62
:1038100090931B0580931A05CDCFFE01E20FF31F95
:10382000819391932250310939832883D7CF2091F6
:10383000180530911905232B41F420912001309176
:103840002101309319052093180520911E01309114
:103850001F012115310541F42DB73EB740912201DA
:1038600050912301241B350BE0911805F0911905A7
:10387000E217F307A0F42E1B3F0B2817390778F047
:10388000AC014E5F5F4F2417350748F04E0F5F1FA6
:103890005093190540931805819391939FCFF0E0C1
:1038A000E0E09CCFCF93DF930097E9F0FC013297E3
:1038B00013821282A0911A05B0911B05ED0130E030
:1038C00020E01097A1F420813181820F931F209175
:1038D0001805309119052817390709F061C0F093D0
:1038E0001905E0931805DF91CF910895EA01CE17ED
:1038F000DF07E8F54A815B819E0141155105B1F76B
:10390000E901FB83EA8349915991C40FD51FEC1754
:10391000FD0761F4808191810296840F951FE90172
:1039200099838883828193819B838A83F0E0E0E09E
:1039300012968D919C9113970097B9F52D913C911A
:103940001197CD010296820F931F20911805309197
:1039500019052817390739F6309751F510921B05CC
:1039600010921A05B0931905A0931805BCCFD38304
:10397000C28340815181840F951FC817D90761F414
:103980004E5F5F4F88819981480F591F5183408353
:103990008A819B81938382832115310509F0B0CF01
:1039A000F0931B05E0931A059ECFFD01DC01C0CF0B
:1039B00013821282D7CFFB01DC0101900D9200200F
:1039C000E1F70895AEE0B0E0E8EEFCE10C941B1BDB
:1039D0000D891E898F89988D26E02C831A8309838F
:1039E00097FF02C080E090E801979E838D83AE012F
:1039F000455E5F4F698D7A8DCE0101960E945A18FF
:103A00004D815E8157FD0AC02F81388542175307CB
:103A10000CF49A01020F131FF80110822E96E4E0B5
:083A20000C94371BF894FFCF52
:103A2800FFFF01FF3C000B0C100F020405063132AA
:103A38003341343536423738394358304B44000027
:103A48001C058000383F272000000000F50892047C
:103A5800B807BA05A70600061E1200121E070013B3
:103A6800001E2D01000A003C002C0100000000325D
:103A7800059204BF049A05F004CE04E20400000095
:103A88000076074907B8071F0742072F07200700D6
:103A980000000087048B048F040D0A00414252493C
:103AA800454E444F0043455252414E444F00414217
:103AB80049455254410043455252414441004F4EFA
:103AC800004F46460046696E200050726F78005FCE
:103AD8000020202053697374656D61204361736110
:103AE80000202020496E696369616E646F2E2E2E56
:103AF800004552524F523A2073696E205254430087
:103B08005265766973652049324300202530327545
:103B18003A25303275202D20253032753A2530323D
:103B28007500253032753A253032753A25303275B0
:103B3800207C204C757A202533752525207C004370
:103B48004153412078252D337520202025303275AA
:103B58003A253032753A25303275004C757A3A2557
:103B680033752525204C756365733A252D337320ED
:103B7800256300436F7274696E613A257300526958
:103B880065676F3A252D3373202D2D3A2D2D005260
:103B98006965676F3A252D337320257320253032E8
:083BA800753A2530327500006A
:00000001FF
