:100000000C9485000C94AD000C94AD000C94AD00E4
:100010000C94AD000C94AD000C94AD000C94AD00AC
:100020000C94AD000C94AD000C94AD000C94AD009C
:100030000C94AD000C94AD000C94AD000C94AD008C
:100040000C946D050C94AD000C94DD050C94B70573
:100050000C94AD000C94AD000C94AD000C94AD006C
:100060000C940F060C94AD004C434420656E203078
:10007000780048656C6C6F2C20576F726C6421009F
:100080004552524F523A206E6F20736520656E6361
:100090006F6E74726F20656C204C4344004469732A
:1000A000706F73697469766F2049324320656E20E2
:1000B00030780020202000536567756E646F733AB6
:1000C000200000000000250028002B000404040488
:1000D00004040404020202020202030303030303F2
:1000E00001020408102040800102040810200102CF
:1000F00004081020000000080002010000030407AB
:1001000000000000000000002E0711241FBECFEFEA
:10011000D8E0DEBFCDBF11E0A0E0B1E0E0ECF4E15B
:1001200002C005900D92A234B107D9F722E0A2E4F3
:10013000B1E001C01D92A53BB207E1F710E0C5E8B0
:10014000D0E004C02197FE010E943309C438D107D2
:10015000C9F70E9467070C945E0A0C94000090E0B7
:10016000FC01EC50FF4F2491FC01E052FF4F349111
:10017000FC01E453FF4FE491EE23C9F0222339F050
:10018000233001F1A8F4213019F1223029F1F0E0F7
:10019000EE0FFF1FEE53FF4FA591B4918FB7F89468
:1001A000EC91611126C030953E233C938FBF08959A
:1001B0002730A9F02830C9F0243049F78091800019
:1001C0008F7D03C0809180008F7780938000DFCF88
:1001D00084B58F7784BDDBCF84B58F7DFBCF8091D5
:1001E000B0008F778093B000D2CF8091B0008F7D28
:1001F000F9CF3E2BDACF3FB7F8948091B4019091BC
:10020000B501A091B601B091B70126B5A89B05C074
:100210002F3F19F00196A11DB11D3FBFBA2FA92F85
:10022000982F8827BC01CD01620F711D811D911D82
:1002300042E0660F771F881F991F4A95D1F70895EE
:100240008F929F92AF92BF92CF92DF92EF92FF92E6
:100250004B015C010E94FB006B017C010E94FB00D2
:100260006C197D098E099F09683E734081059105CF
:10027000A8F321E0821A9108A108B10888EEC80EFF
:1002800083E0D81EE11CF11C81149104A104B10487
:1002900029F7FF90EF90DF90CF90BF90AF909F90A5
:1002A0008F90089508950895EF92FF920F931F93F2
:1002B000CF93DF938C017B01D0E0C0E0F701EC0F1E
:1002C000FD1F6491662361F0D801ED91FC910190CE
:1002D000F081E02DC8010995892B11F02196EECF10
:1002E000CE01DF91CF911F910F91FF90EF90089574
:1002F000AF92BF92CF92DF92EF92FF920F931F9334
:10030000CF93DF936C017B018B01040F151FEB0171
:100310005E01AE18BF08C017D10759F06991D60128
:10032000ED91FC910190F081E02DC6010995892B9A
:1003300079F7C501DF91CF911F910F91FF90EF9059
:10034000DF90CF90BF90AF900895FC01538D448D06
:10035000252F30E0842F90E0821B930B541710F070
:10036000CF96089501970895FC01918D828D98177D
:1003700061F0A28DAE0FBF2FB11D5D968C91928D55
:100380009F5F9F73928F90E008958FEF9FEF089586
:10039000FC01918D828D981731F0828DE80FF11D4F
:1003A000858D90E008958FEF9FEF0895FC01918D6A
:1003B000228D892F90E0805C9F4F821B91098F7363
:1003C0009927089588E092E00E94D60121E0892BC8
:1003D00009F420E0822F089580E090E0892B29F035
:1003E0000E94E20181110C9400000895FC01A48D8B
:1003F000A80FB92FB11DA35ABF4F2C91848D90E047
:1004000001968F739927848FA689B7892C93A08929
:10041000B1898C91837080648C93938D848D9813B3
:1004200006C00288F389E02D80818F7D8083089546
:10043000EF92FF920F931F93CF93DF93EC0181E034
:10044000888F9B8D8C8D98131AC0E889F9898081DB
:1004500085FF15C09FB7F894EE89FF896083E8890E
:10046000F98980818370806480839FBF81E090E000
:10047000DF91CF911F910F91FF90EF900895F62E8D
:100480000B8D10E00F5F1F4F0F731127E02E8C8D27
:100490008E110CC00FB607FCFACFE889F98980816C
:1004A00085FFF5CFCE010E94F601F1CFEB8DEC0F69
:1004B000FD2FF11DE35AFF4FF0829FB7F8940B8F89
:1004C000EA89FB8980818062CFCFCF93DF93EC01F3
:1004D000888D8823B9F0AA89BB89E889F9898C912C
:1004E00085FD03C0808186FD0DC00FB607FCF7CFE8
:1004F0008C9185FFF2CF808185FFEDCFCE010E94E8
:10050000F601E9CFDF91CF910895089520918301FD
:10051000260F3327331F21323105ECF42091DE0101
:10052000FC0190E080E0243069F082E00895A09121
:1005300083012191AC014D595E4FA40FB52FB11D20
:100540002C930196861798F380918301680F60932E
:10055000830180E0089581E008951092DE0181E03A
:100560008093DD011092B80161E082E10E94AF004A
:1005700061E083E10E94AF00E9EBF0E080818E7FD3
:10058000808380818D7F808388E48093B80085E4B8
:100590008093BC000895CF93DF9391E09093620124
:1005A0008823B9F0C091B800D091BA008091BC0006
:1005B0008A7B8093BC0060E082E10E94AF0060E033
:1005C00083E10E94AF000E94AD02D093BA00C093B5
:1005D000B800DF91CF910895CF92DF92EF92FF9212
:1005E0000F931F93CF93DF93D091070281E0D13215
:1005F00008F09CC0C09106020E94FB006B017C01C8
:100600008091DE0181116CC082E08093DE0181E087
:100610008093DD018FEF8093DC011092DB01D0939A
:10062000DA01A6EEB1E0EAEBF1E080E0D8138DC08C
:100630001092B9018091B901CC0FC82BC093B901B8
:100640008091B801813009F084C01092B8010E94F5
:10065000FB006B017C018091B9018093BB0080910C
:10066000E0019091E101A091E201B091E301892BB9
:100670008A2B8B2BA1F00E94FB000091E0011091CE
:10068000E1012091E2013091E3016C197D098E09AD
:100690009F09061717072807390708F442C08091F9
:1006A000BC0083FDD8CF85EC8093BC000E94FB008A
:1006B0006B017C018091DE01823009F44CC0809195
:1006C000DC018F3F09F469C08091DC01803209F4BC
:1006D00066C08091DC01803309F463C084E026C0E9
:1006E0008091E0019091E101A091E201B091E301DC
:1006F000892B8A2B8B2B09F483CF0E94FB0000915E
:10070000E0011091E1012091E2013091E3016C19C7
:100710007D098E099F09061717072807390708F072
:100720006FCF8091DF010E94CB0285E01092E5013E
:10073000109207021092E401DF91CF911F910F9167
:10074000FF90EF90DF90CF9008959D9191938F5FF0
:100750006DCF85EEA9CF8091E0019091E101A0914C
:10076000E201B091E301892B8A2B8B2B09F4A2CFF4
:100770000E94FB000091E0011091E1012091E20153
:100780003091E3016C197D098E099F09061717073F
:100790002807390708F08ECFC4CF80E0C7CF82E0AA
:1007A000C5CF83E0C3CF0895E091AB018091AA014A
:1007B000E81730F4F0E0EE5BFE4F808190E00895A2
:1007C0008FEF9FEF08959091AB018091AA012FEFD9
:1007D0003FEF981748F4E92FF0E0EE5BFE4F2081E1
:1007E00030E09F5F9093AB01C90108958091AA0109
:1007F0009091AB01891B990B0895CF92DF92EF92F4
:10080000FF920F931F93CF93DF937C01CB018A015B
:100810002091E401222389F0EB016B01C40ED51E67
:10082000CC15DD0569F06991D701ED91FC9101903E
:10083000F081E02DC7010995F3CF642F0E94860255
:10084000C801DF91CF911F910F91FF90EF90DF9042
:10085000CF900895CF93DF931F92CDB7DEB7698312
:100860002091E4012223F9F020910702203258F070
:1008700021E030E0FC013383228390E080E00F90A0
:10088000DF91CF9108958091E501E82FF0E0EA51E2
:10089000FE4F998190838F5F8093E50180930702DB
:1008A00081E090E0ECCF61E0CE0101960E948602EB
:1008B000F7CFFC01248131E03093E401209306025C
:1008C0001092E501109207028385682B85EA92E079
:1008D0000E942A040C94EC0290E080E008958F922C
:1008E0009F92AF92BF92EF92FF920F931F93CF937D
:1008F000DF93CDB7DEB7A1970FB6F894DEBF0FBE7A
:10090000CDBF7C01FA01CB0119A2223008F42AE004
:100910008E010F5D1F4F822E912CB12CA12CBF0197
:10092000A50194010E941109F901CA016A3074F508
:10093000605DD8016E938D01232B242B252B79F735
:1009400090E080E0109789F0FD0101900020E9F728
:100950003197AF014A1B5B0BD701ED91FC910280EF
:10096000F381E02DB801C7010995A1960FB6F8945F
:10097000DEBF0FBECDBFDF91CF911F910F91FF90D2
:10098000EF90BF90AF909F908F900895695CD1CF0A
:1009900042E050E06EE371E088E092E00C94780170
:1009A0000F931F93CF938C01C62F0E9459046C2F75
:1009B0006460C8010E9459046C2F6B7FC8010E94BB
:1009C000590483EC90E00197F1F7CF911F910F91BB
:1009D00008950F931F93CF93DF938C01D62FC42FCD
:1009E000607F642B0E94D00480E1D89FB001112465
:1009F0006C2BC801DF91CF911F910F910C94D00403
:100A0000CF93DF93CDB7DEB728970FB6F894DEBF4C
:100A10000FBECDBF28E0E6E0F1E0DE0111960190C7
:100A20000D922A95E1F7FC012085261708F46FEF57
:100A300070E0660F771F21E030E02C0F3D1F620F42
:100A4000731FFB016081606840E028960FB6F89440
:100A5000DEBF0FBECDBFDF91CF910C94E90441E022
:100A60000E94E90481E090E0089585ED8093BC0048
:100A70008091E0019091E101A091E201B091E30148
:100A80000796A11DB11D23E0B695A795979587956B
:100A90002A95D1F72091BC0024FD03C01092DE01FD
:100AA00008954091E0015091E1016091E20170915F
:100AB000E301452B462B472B69F30097A105B105B0
:100AC00041F02AE22A95F1F700C00197A109B10986
:100AD000E1CF8091DF010C94CB021F920F920FB6F1
:100AE0000F9211242F933F938F939F93AF93BF93B4
:100AF0008091B0019091B101A091B201B091B30188
:100B00003091AF0123E0230F2D3758F50196A11D39
:100B1000B11D2093AF018093B0019093B101A093D8
:100B2000B201B093B3018091B4019091B501A0914D
:100B3000B601B091B7010196A11DB11D8093B4011A
:100B40009093B501A093B601B093B701BF91AF9157
:100B50009F918F913F912F910F900FBE0F901F90FB
:100B6000189526E8230F0296A11DB11DD2CF1F9222
:100B70000F920FB60F9211242F933F934F935F93D1
:100B80006F937F938F939F93AF93BF93EF93FF9355
:100B900088E092E00E94F601FF91EF91BF91AF9142
:100BA0009F918F917F916F915F914F913F912F9185
:100BB0000F900FBE0F901F9018951F920F920FB6B7
:100BC0000F9211242F938F939F93EF93FF93E091B4
:100BD0001802F09119028081E0911E02F0911F022B
:100BE00082FD1BC09081809121028F5F8F732091C5
:100BF0002202821741F0E0912102F0E0E85FFD4F10
:100C0000958F80932102FF91EF919F918F912F916A
:100C10000F900FBE0F901F9018958081F4CF1F92F8
:100C20000F920FB60F9211242F933F934F935F9320
:100C30006F937F938F939F93AF93BF93EF93FF93A4
:100C40008091B900887F803609F44AC0F0F5883277
:100C500009F4A7C018F5803109F49BC0B8F48823C3
:100C600009F4F9C0883009F494C0FF91EF91BF9165
:100C7000AF919F918F917F916F915F914F913F9134
:100C80002F910F900FBE0F901F901895883109F487
:100C900088C0803251F78093DC0114C0803409F49D
:100CA0009DC040F48033B9F38833F9F68093DC01BA
:100CB00085ECB0C0803509F485C0883509F496C04C
:100CC000883499F60E943505D0CF883909F48CC054
:100CD00038F5883729F050F4883611F0803729F636
:100CE00083E08093DE011092A50157C0883809F493
:100CF0007BC0803919F0803809F0B7CF8091A50109
:100D0000803208F071C0E091A50181E08E0F8093E0
:100D1000A5018091BB00F0E0EB57FE4F80833DC002
:100D2000803B39F0E0F4803A09F479C0883A09F060
:100D30009CCF84E08093DE011092840110928301A5
:100D4000E091A801F091A901099580918301811199
:100D50000FC081E0809383011092630109C0803C41
:100D600009F4A6CF883C09F4A3CF883B09F07DCFD6
:100D7000E091840181E08E0F80938401F0E0ED59D1
:100D8000FE4F80818093BB0090918401809183010C
:100D900029C08091B9018093BB0085EC8093BC0091
:100DA00064CF9091DB018091DA01981758F5E091BA
:100DB000DB0181E08E0F8093DB01F0E0E654FE4F13
:100DC0008081E9CFE091DB0181E08E0F8093DB0130
:100DD0008091BB00F0E0E654FE4F80839091DB01F0
:100DE0008091DA019817C8F285E8D8CFE091DB014D
:100DF00081E08E0F8093DB018091BB00F0E0E65430
:100E0000FE4F80838091DD0181115CCF81E0809372
:100E1000B80184EA8093BC001092DE0126CF85ECF5
:100E20008093BC001092DE018091A501803230F4E5
:100E3000E091A501F0E0EB57FE4F10826091A50113
:100E400070E0E091A601F091A70185E891E0099595
:100E50001092A5010ACF1092DC0134CFE8E0F2E055
:100E60001382128288EE93E0A0E0B0E08483958341
:100E7000A683B7832EE131E03183208325EC30E077
:100E80003587248724EC30E03787268720EC30E054
:100E9000318B208B21EC30E0338B228B22EC30E045
:100EA000358B248B26EC30E0378B268B118E128EFF
:100EB000138E148EE5EAF2E0138212828483958306
:100EC000A683B78380E391E091838083089578942B
:100ED00084B5826084BD84B5816084BD85B582603F
:100EE00085BD85B5816085BD80916E0081608093F0
:100EF0006E00109281008091810082608093810059
:100F00008091810081608093810080918000816068
:100F1000809380008091B10084608093B1008091C3
:100F2000B00081608093B00080917A0084608093EB
:100F30007A0080917A00826080937A0080917A00B2
:100F4000816080937A0080917A00806880937A0033
:100F50001092C100E0911802F091190282E08083A2
:100F6000E0911402F09115021082E0911602F091C6
:100F700017028FEC808310922002E0911C02F09106
:100F80001D0286E08083E0911A02F0911B028081AD
:100F900080618083E0911A02F0911B028081886059
:100FA0008083E0911A02F0911B0280818068808327
:100FB000E0911A02F0911B0280818F7D8083109254
:100FC000AB011092AA010E94AD0282E591E09093DC
:100FD000A9018093A80183E591E09093A7018093F4
:100FE000A601C12CD12C7601C394C0E0D1E01C2D08
:100FF000D093E401C09206021092E501109207021C
:101000000E94EC02811115C06DE970E088E092E069
:101010000E94540120E1B701A60188E092E00E94FD
:101020006F040E94C804173229F0103219F01F33E0
:1010300009F01C2F8FEFC81AD80AE80AF80A8FE7C0
:10104000C816D104E104F10459F411110BC060E891
:1010500070E088E092E00E9454010E94C804FFCF33
:10106000C12FC5CF8CE090E00E943909EC011B82B2
:101070001A8282E191E0998388831C8380E18987C9
:1010800082E08A871B86D093AE01C093AD01109297
:10109000AB011092AA011092E501109207020E9482
:1010A000AD0282E591E09093A9018093A80183E5C8
:1010B00091E09093A7018093A6011D828A858230DA
:1010C00010F098E09D83888762E370E080E090E014
:1010D0000E9420016B85CE010E94590468EE73E0E6
:1010E00080E090E00E94200160E3CE010E94D004E5
:1010F0008BE4E82E86E4F82EC7010197F1F760E350
:10110000CE010E94D004C7010197F1F760E3CE0140
:101110000E94D00483E592E00197F1F760E2CE01EE
:101120000E94D0046D81606240E0CE010E94E9041B
:1011300084E08E8340E06CE0CE010E94E90440E050
:1011400061E0CE010E94E9049BE3E92E9FE1F92EC4
:10115000C7010197F1F782E08F8340E066E0CE019E
:101160000E94E90440E062E0CE010E94E904C70168
:101170000197F1F788E08B8760E0CE010E94590467
:1011800060E0CE010E94000562E770E0CE010E949F
:10119000540168E670E088E092E00E945401412F1B
:1011A00050E070E060E020E188E092E00E946F048F
:1011B0000E94C80400E010E0C091AD01D091AE01E2
:1011C00061E0CE010E94000567EB70E0CE010E9455
:1011D00054018091AD019091AE014091AC0121E0AC
:1011E000240F2093AC0150E070E060E02AE00E9400
:1011F0006F0463EB70E08091AD019091AE010E94AD
:10120000540168EE73E080E090E00E942001011537
:10121000110591F20E94E201882371F20E94000000
:10122000CBCFA1E21A2EAA1BBB1BFD010DC0AA1F2A
:10123000BB1FEE1FFF1FA217B307E407F50720F03F
:10124000A21BB30BE40BF50B661F771F881F991FBA
:101250001A9469F760957095809590959B01AC0103
:10126000BD01CF010895EE0FFF1F0590F491E02D11
:1012700009940F931F93CF93DF938230910510F45D
:1012800082E090E0E091B302F091B40230E020E01F
:10129000B0E0A0E0309799F42115310509F44AC077
:1012A000281B390B24303105D8F58A819B816115C3
:1012B000710589F1FB0193838283FE0111C0408196
:1012C00051810281138148175907E0F048175907E7
:1012D00099F4109761F012960C93129713961C9341
:1012E0003296CF01DF91CF911F910F910895009316
:1012F000B3021093B402F4CF2115310551F0421717
:10130000530738F0A901DB019A01BD01DF01F801A3
:10131000C1CFEF01F9CF9093B4028093B302CDCF48
:10132000FE01E20FF31F819391932250310939831B
:101330002883D7CF2091B1023091B202232B41F400
:1013400020910201309103013093B2022093B10247
:1013500020910001309101012115310541F42DB793
:101360003EB74091040150910501241B350BE091DB
:10137000B102F091B202E217F307A0F42E1B3F0B6B
:101380002817390778F0AC014E5F5F4F24173507F7
:1013900048F04E0F5F1F5093B2024093B102819309
:1013A00091939FCFF0E0E0E09CCFCF93DF93009745
:1013B000E9F0FC01329713821282A091B302B0913E
:1013C000B402ED0130E020E01097A1F420813181DA
:1013D000820F931F2091B1023091B2022817390772
:1013E00009F061C0F093B202E093B102DF91CF91B6
:1013F0000895EA01CE17DF07E8F54A815B819E0177
:1014000041155105B1F7E901FB83EA8349915991EF
:10141000C40FD51FEC17FD0761F4808191810296FE
:10142000840F951FE90199838883828193819B832F
:101430008A83F0E0E0E012968D919C9113970097DB
:10144000B9F52D913C911197CD010296820F931F12
:101450002091B1023091B2022817390739F630973E
:1014600051F51092B4021092B302B093B202A0935D
:10147000B102BCCFD383C28340815181840F951FB9
:10148000C817D90761F44E5F5F4F88819981480F73
:10149000591F518340838A819B81938382832115C5
:1014A000310509F0B0CFF093B402E093B3029ECFC0
:1014B000FD01DC01C0CF13821282D7CFF894FFCF99
:1014C0000000B5028000000040001400540000003D
:1014D00000002F0578016C0485020000000018024E
:1014E0007801A5016502D601B401C8010000000021
:1014F0002A04FD036C04D303F603E303D4030D0AAB
:021500000000E9
:00000001FF
