:020000040000FA
:100000000C9413030C943B030C943B030C943B03A0
:100010000C943B030C943B030C943B030C943B0368
:100020000C943B030C943B030C943B030C94060F81
:100030000C943B030C943B030C943B030C943B0348
:100040000C94450D0C943B030C94B50D0C948F0D42
:100050000C943B030C943B030C943B030C943B0328
:100060000C94E70D0C943B0356656C6F63696461F7
:10007000642072656C6F6A00416A757374617220E6
:10008000666563686100416A757374617220686FA8
:10009000726100556D6272616C206465206C757AC6
:1000A00000436F7274696E617300526965676F20F7
:1000B000746172646500526965676F206D616E617D
:1000C0006E61005B4556454E544F5D204C7563652F
:1000D00073204150414741444153005B4556454ED2
:1000E000544F5D204C7563657320454E43454E4427
:1000F00049444153005B4556454E544F5D204D6F7A
:10010000746F7220646520636F7274696E6120641D
:100110006574656E69646F005B4556454E544F5D6E
:1001200020436F7274696E612043455252414E44C0
:100130004F005B4556454E544F5D20436F727469C6
:100140006E612041425249454E444F00436F6E66F6
:1001500069677572616369C3B36E20706F722064E2
:1001600065666563746F20636172676164610053E3
:10017000697374656D6120706172612043617361A0
:1001800020696E69636961646F0046656368612018
:100190007920686F726120696E696369616C65734B
:1001A0002066696A6164617320284631203D2068B9
:1001B0006F72612C2033203D2066656368612900E1
:1001C0004552524F523A206E6F20736520656E6320
:1001D0006F6E7472C3B320656C2052544320445335
:1001E00031333037004C434420656E2030780000B6
:1001F000466563686120616A757374616461005B60
:1002000050524F475D2046656368612064656C20ED
:1002100052544320616A757374616461005573655B
:100220002044444D4D414100466563686120696E3C
:1002300076616C6964610000486F726120616A7563
:100240007374616461005B50524F475D20486F7268
:10025000612064656C2052544320616A7573746137
:100260006461005573652048484D4D20283234683C
:100270002900486F726120696E76616C6964610063
:1002800000477561726461646F005B50524F475D57
:10029000204C757A20656E6369656E64652F6170A8
:1002A0006167613A20006D61796F72207175652018
:1002B000656E63656E64657200417061676172208E
:1002C00064656265207365720030206120393900F1
:1002D00056616C6F7220696E76616C69646F0000A4
:1002E000477561726461646F005B50524F475D20D7
:1002F000005573652048484D4D2028323468290048
:10030000486F726120696E76616C696461000056A5
:10031000656C6F63696461642063616D62696164C7
:1003200061005B50524F475D2056656C6F63696496
:1003300061642064656C2072656C6F6A3A20780095
:100340005B50524F475D204C7563657320656E208E
:100350004F4E206D616E75616C005B50524F475D72
:10036000204C7563657320656E204F4646206D6195
:100370006E75616C005B50524F475D204C75636534
:100380007320656E204155544F005B4556454E54D1
:100390004F5D20436F7274696E6120434552524134
:1003A0004441005B4556454E544F5D20436F727487
:1003B000696E612041424945525441005B455645B2
:1003C0004E544F5D20526965676F2041504147414F
:1003D000444F005B4556454E544F5D20526965675A
:1003E0006F20454E43454E4449444F0041424945E4
:1003F0005254410043455252414E444F00434552EE
:10040000524144410041425249454E444F00286DFB
:10041000616E75616C2900286175746F2900204335
:100420006F7274696E613A004F4646004F4E004F3E
:100430004646004F4E00204C756365733A002052CB
:100440006965676F3A00343D7833303020204F4E75
:100450002F433D617472617300313D783120203249
:100460003D7831302020333D78363000416374755B
:10047000616C3A207825750056656C6F636964611C
:10048000642064656C2072656C6F6A0044444D4D55
:100490004141204F4B20204F4E2F433D626F7272DF
:1004A000004E7565766F3A202025730041637475A0
:1004B000616C3A20253032752F253032752F25306A
:1004C000327500416A757374617220666563686194
:1004D000004F4B3D6F6B20204F4E2F433D626F729C
:1004E000726172004E7565766F3A20202573004167
:1004F000637475616C3A20253032753A2530327557
:100500003A2530327500416A757374617220686FE4
:100510007261004F4B3D6F6B20204F4E2F433D6269
:100520006F72726172004E7565766F3A2020257386
:1005300025730041637475616C3A2025752525008B
:100540004C757A3A2041504147415220736F627294
:1005500065004C757A3A20454E43454E444552203D
:1005600062616A6F004F4B3D6F6B20204F4E2F43EF
:100570003D626F72726172004E7565766F3A20202F
:1005800025730041637475616C3A20253032753AE9
:100590002530327500414252495200494E49434983
:1005A0004F0046494E0043455252415200255320C8
:1005B0002553002563257520255300B600AA00A108
:1005C00000930086007800680000000000240027E7
:1005D000002A0000000000250028002B0000000079
:1005E0000023002600290004040404040404040277
:1005F00002020202020303030303030102040810C0
:10060000204080010204081020010204081020008C
:1006100000000800020100000304070000000000C1
:1006200000000000270F11241FBECFEFD8E0DEBF6F
:10063000CDBF12E0A0E0B1E0E4EFFEE302C0059020
:100640000D92A43AB107D9F725E0A4EAB2E001C0BF
:100650001D92AD33B207E1F713E0C3E1D3E004C06C
:100660002197FE010E940F1EC231D107C9F70E94D7
:10067000C60F0C94781F0C9400000895089596E01E
:10068000899FD0011124A653BB4F90967C936E9303
:100690005F9791E091969C939197E0913705F09147
:1006A000380590913605992339F0309751F0811132
:1006B00008C08091E6040994309719F05C968C91FB
:1006C000FACF0895833081F028F4813099F0823098
:1006D000A9F008958730A9F08830C9F08430B1F4CA
:1006E000809180008F7D03C0809180008F77809300
:1006F0008000089584B58F7784BD089584B58F7D7B
:10070000FBCF8091B0008F778093B00008958091E7
:10071000B0008F7DF9CFCF93DF93282F30E0F90120
:10072000E15FF94F8491F901E550FA4FD491F90155
:10073000E951FA4FC491CC23A1F081110E946203C8
:10074000EC2FF0E0EE0FFF1FE352FA4FA591B491AA
:10075000EC91ED2381E090E009F480E0DF91CF910E
:10076000089580E090E0FACF1F93CF93DF93282F76
:1007700030E0F901E15FF94F8491F901E550FA4F5A
:10078000D491F901E951FA4FC491CC23A9F0162F65
:1007900081110E946203EC2FF0E0EE0FFF1FED527B
:1007A000FA4FA591B4918FB7F894EC91111108C04C
:1007B000D095DE23DC938FBFDF91CF911F910895F9
:1007C000DE2BF8CFCF93DF9390E0FC01E550FA4F9A
:1007D000249189519A4FFC0184918823C9F090E0BB
:1007E000880F991FFC01E753FA4FA591B491FC01C2
:1007F000ED52FA4FC591D49161110DC09FB7F89495
:100800008C91209582238C938881282328839FBFF5
:10081000DF91CF910895623051F49FB7F8943C91E5
:10082000822F809583238C93E8812E2BEFCF8FB777
:10083000F894EC912E2B2C938FBFEACF3FB7F8940E
:100840008091C7039091C803A091C903B091CA03D6
:1008500026B5A89B05C02F3F19F00196A11DB11D1B
:100860003FBFBA2FA92F982F8827BC01CD01620F57
:10087000711D811D911D42E0660F771F881F991F12
:100880004A95D1F708958F929F92AF92BF92CF92DF
:10089000DF92EF92FF924B015C010E941E046B01FC
:1008A0007C010E941E046C197D098E099F09683E17
:1008B000734081059105A8F321E0821A9108A108EF
:1008C000B10888EEC80E83E0D81EE11CF11C81142B
:1008D0009104A104B10429F7FF90EF90DF90CF902D
:1008E000BF90AF909F908F9008952FB7F89460912C
:1008F000C3037091C4038091C5039091C6032FBFB9
:1009000008950F931F93CF93DF93C82FD62F86E0C0
:10091000C89FF0011124E653FB4F11A2878D90A1CF
:1009200081309105F1F058F082309105F1F1039793
:1009300009F440C0DF91CF911F910F910895662374
:10094000C9F361E070E08C2F0E943F030E947504A0
:1009500060932205709323058093240590932505C9
:10096000E9CF0E9475040091220510912305209182
:10097000240530912505AB01BC01401B510B620BD6
:10098000730B8091340590913505B0E0A0E0841799
:100990009507A607B70748F462E070E08C2FDF9157
:1009A000CF911F910F910C943F0363E070E0D11140
:1009B000C1CFF4CF70E060E0F1CF862F642F0C94AC
:1009C000E203862F642F0C94B403862F0C948B03C0
:1009D000AF92BF92CF92DF92EF92FF920F931F934D
:1009E000CF93DF936C017B018B01040F151FEB018B
:1009F0005E01AE18BF08C017D10759F06991D60142
:100A0000ED91FC910190F081E02DC6010995892BB3
:100A100079F7C501DF91CF911F910F91FF90EF9072
:100A2000DF90CF90BF90AF900895FC01538D448D1F
:100A3000252F30E0842F90E0821B930B541710F089
:100A4000CF96089501970895FC01918D828D981796
:100A500061F0A28DAE0FBF2FB11D5D968C91928D6E
:100A60009F5F9F73928F90E008958FEF9FEF08959F
:100A7000FC01918D828D981731F0828DE80FF11D68
:100A8000858D90E008958FEF9FEF0895FC01918D83
:100A9000228D892F90E0805C9F4F821B91098F737C
:100AA0009927089581E294E00E94460521E0892B70
:100AB00009F420E0822F089580E090E0892B29F04E
:100AC0000E94520581110C9400000895FC01A48D30
:100AD000A80FB92FB11DA35ABF4F2C91848D90E060
:100AE00001968F739927848FA689B7892C93A08943
:100AF000B1898C91837080648C93938D848D9813CD
:100B000006C00288F389E02D80818F7D808308955F
:100B1000EF92FF920F931F93CF93DF93EC0181E04D
:100B2000888F9B8D8C8D98131AC0E889F9898081F4
:100B300085FF15C09FB7F894EE89FF896083E88927
:100B4000F98980818370806480839FBF81E090E019
:100B5000DF91CF911F910F91FF90EF900895F62EA6
:100B60000B8D10E00F5F1F4F0F731127E02E8C8D40
:100B70008E110CC00FB607FCFACFE889F989808185
:100B800085FFF5CFCE010E946605F1CFEB8DEC0F0E
:100B9000FD2FF11DE35AFF4FF0829FB7F8940B8FA2
:100BA000EA89FB8980818062CFCF0F931F93CF9317
:100BB000DF938C01D0E0C0E0F801EC0FFD1F6491E1
:100BC000662341F081E294E00E948805892B11F0B0
:100BD0002196F2CFCE01DF91CF911F910F91089511
:100BE000CF93DF93EC01888D8823B9F0AA89BB8964
:100BF000E889F9898C9185FD03C0808186FD0DC04F
:100C00000FB607FCF7CF8C9185FFF2CF808185FF6F
:100C1000EDCFCE010E946605E9CFDF91CF91089517
:100C2000089520913603260F3327331F21323105D3
:100C3000ECF42091F703FC0190E080E0243069F0AF
:100C400082E00895A09136032191AC014A5E5C4F89
:100C5000A40FB52FB11D2C930196861798F38091A0
:100C60003603680F6093360380E0089581E00895AD
:100C70001092F70381E08093F6031092D10361E0B4
:100C800082E10E94B40361E083E10E94B403E9EBD6
:100C9000F0E080818E7F808380818D7F808388E4F7
:100CA0008093B80085E48093BC0008951092D0032F
:100CB0001092CF031092FE03109220040E94380677
:100CC0008DE393E09093CE038093CD038EE393E086
:100CD0009093CC038093CB030895CF93DF9391E05F
:100CE000909315038823B9F0C091B800D091BA0051
:100CF0008091BC008A7B8093BC0060E082E10E940E
:100D0000B40360E083E10E94B4030E943806D093EC
:100D1000BA00C093B800DF91CF910895CF92DF92CF
:100D2000EF92FF920F931F93CF93DF93D091200404
:100D300081E0D13208F09CC0C0911F040E941E04C3
:100D40006B017C018091F70381116CC082E080937C
:100D5000F70381E08093F6038FEF8093F503109201
:100D6000F403D093F303AFEFB3E0E3EDF3E080E0FF
:100D7000D8138DC01092D2038091D203CC0FC82B10
:100D8000C093D2038091D103813009F084C01092C6
:100D9000D1030E941E046B017C018091D2038093D9
:100DA000BB008091F9039091FA03A091FB03B091ED
:100DB000FC03892B8A2B8B2BA1F00E941E0400912F
:100DC000F9031091FA032091FB033091FC036C1995
:100DD0007D098E099F09061717072807390708F4A8
:100DE00042C08091BC0083FDD8CF85EC8093BC00CD
:100DF0000E941E046B017C018091F703823009F48C
:100E00004CC08091F5038F3F09F469C08091F503D0
:100E1000803209F466C08091F503803309F463C021
:100E200084E026C08091F9039091FA03A091FB031E
:100E3000B091FC03892B8A2B8B2B09F483CF0E9462
:100E40001E040091F9031091FA032091FB033091E5
:100E5000FC036C197D098E099F09061717072807DF
:100E6000390708F06FCF8091F8030E946D0685E086
:100E70001092FE03109220041092FD03DF91CF9197
:100E80001F910F91FF90EF90DF90CF9008959D916B
:100E900091938F5F6DCF85EEA9CF8091F9039091EB
:100EA000FA03A091FB03B091FC03892B8A2B8B2BB7
:100EB00009F4A2CF0E941E040091F9031091FA03D5
:100EC0002091FB033091FC036C197D098E099F0969
:100ED000061717072807390708F08ECFC4CF80E020
:100EE000C7CF82E0C5CF83E0C3CF0895E091D003A0
:100EF0008091CF03E81730F4F0E0EB50FD4F808194
:100F000090E008958FEF9FEF08959091D003809126
:100F1000CF032FEF3FEF981748F4E92FF0E0EB50A5
:100F2000FD4F208130E09F5F9093D003C901089569
:100F30008091CF039091D003891B990B0895CF9294
:100F4000DF92EF92FF920F931F93CF93DF937C0179
:100F5000CB018A012091FD03222389F0EB016B0173
:100F6000C40ED51ECC15DD0569F06991D701ED9150
:100F7000FC910190F081E02DC7010995F3CF642F1A
:100F80000E941106C801DF91CF911F910F91FF9030
:100F9000EF90DF90CF900895CF93DF931F92CDB75E
:100FA000DEB769832091FD032223F9F0209120040C
:100FB000203258F021E030E0FC013383228390E0BE
:100FC00080E00F90DF91CF9108958091FE03E82F8C
:100FD000F0E0E150FC4F998190838F5F8093FE0396
:100FE0008093200481E090E0ECCF61E0CE01019697
:100FF0000E941106F7CFFC01248131E03093FD03FC
:1010000020931F041092FE03109220048781682B06
:101010008EEB94E00E94CC070C948E0690E080E06A
:101020000895FC01809196038430D9F420918F03B8
:1010300020538AE0909190039053289F900D1124A3
:101040009083209191032053909192039053289F75
:10105000900D1124DB019C938081883110F49C3326
:1010600010F080E0089581E008958093BE0310920F
:10107000960310928F0381E08093020108951092ED
:10108000A603E091A803E330B8F4E093A70384E05B
:10109000E89FF0011124E956FC4F81819281A381E0
:1010A000B48180935C0390935D03A0935E03B0933F
:1010B0005F0382E00C94350883E0E330D9F384E0E9
:1010C000E430C1F385E0E530A9F386E0F3CFFC011D
:1010D0008091960390918F03811101C09FE59083C9
:1010E00090919003823008F49FE591839AE3928374
:1010F00090919103833008F49FE59383843028F026
:10110000809192038483158208958FE5FBCF80E45C
:1011100080937C0080917A00806480937A00809133
:101120007A0086FDFCCFA0917800B091790024E68A
:1011300030E00E94151E2FEF33E040E050E00E94A7
:10114000541D822F089590E02091AF03B091AE031B
:10115000FC01EE0FFF1FEE0FFF1FE956FC4F318120
:10116000ACE3628170E03A9F600D711D1124338100
:10117000880F991F880F991FFC01E556FC4F40818D
:1011800050E03A9F400D511D11244617570761F05A
:1011900030E0BA9F200D311D11246417750730F41B
:1011A00081E02617370730F480E0089581E02617A4
:1011B000370718F424173507B8F70895823021F45B
:1011C000637049F48DE108958D7F843011F089308A
:1011D00021F48EE108958CE108958FE108950F9335
:1011E0001F93CF93DF93082F162FD42F81E0809386
:1011F000FD0388E680931F041092FE0310922004E2
:1012000063E08EEB94E00E94CC0761E08EEB94E00B
:101210000E94CC07CAE0802F6C2F0E94DB1D682F34
:10122000660F680F660F600F8EEB94E00E94CC078C
:10123000812F6C2F0E94DB1D682F660F680F660FD1
:10124000610F8EEB94E00E94CC078D2F6C2F0E94D3
:10125000DB1D682F660F680F660F6D0F8EEB94E035
:101260000E94CC07DF91CF911F910F910C948E06B5
:101270000F931F93CF93DF93D82F162F042F81E066
:101280008093FD0388E680931F041092FE03109262
:10129000200460E08EEB94E00E94CC07CAE0802F2F
:1012A0006C2F0E94DB1D682F660F680F660F600FA2
:1012B0008EEB94E00E94CC07812F6C2F0E94DB1DE7
:1012C000682F660F680F660F610F8EEB94E00E9427
:1012D000CC078D2F6C2F0E94DB1D682F660F680FC7
:1012E000660F6D0F8EEB94E00E94CC07DF91CF91DB
:1012F0001F910F910C948E060F931F93CF938C0127
:10130000C62FC42B6C2F64600E94FB076C2FC80192
:101310000E94FB0783EC90E00197F1F7CF911F91BA
:101320000F9108950F931F93CF93DF938C01C62FD6
:10133000D42F607F0E947C0980E1C89FB0011124F6
:101340004D2FC801DF91CF911F910F910C947C0913
:1013500041E00E94920981E090E00895CF92DF92EF
:10136000EF92FF920F931F93CF93DF9381E08093CF
:10137000FD0388E680931F041092FE031092200460
:1013800060E08EEB94E00E94CC070E948E060E94E3
:101390001E046B017C018091F703811165C081E01F
:1013A0008093F7038093F6039FEF9093F5031092D9
:1013B000F40396E09093F3038093D2038091D203D9
:1013C000806D8093D2038091D103813009F08EC06B
:1013D0001092D1030E941E046B017C018091D20304
:1013E0008093BB008091F9039091FA03A091FB03D5
:1013F000B091FC03892B8A2B8B2BA1F00E941E0439
:101400000091F9031091FA032091FB033091FC0342
:101410006C197D098E099F090617170728073907D8
:1014200008F443C08091BC0083FDD8CF85EC809345
:10143000BC000E941E046B017C018091F703813087
:1014400009F456C08091F403873008F073C080918E
:10145000F403A3EDB3E0E5EFF2E090E0981751F16B
:101460002D9121939F5FFACF8091F9039091FA0318
:10147000A091FB03B091FC03892B8A2B8B2B09F4E1
:101480008ACF0E941E040091F9031091FA03209163
:10149000FB033091FC036C197D098E099F09061727
:1014A00017072807390708F076CF8091F8030E94C4
:1014B0006D0680E01092D0038093CF038730E0F573
:1014C0001092AE031092AF031092B00381E08093AC
:1014D000B1038093B2031092B303DF91CF911F91B8
:1014E0000F91FF90EF90DF90CF90089585EE9FCF02
:1014F0008091F9039091FA03A091FB03B091FC0352
:10150000892B8A2B8B2B09F498CF0E941E04009103
:10151000F9031091FA032091FB033091FC036C193D
:101520007D098E099F09061717072807390708F054
:1015300084CFBBCF87E08DCF8EEB94E00E948507F0
:10154000182F8EEB94E00E948507D82F8EEB94E045
:101550000E948507C82F8EEB94E00E9485078EEBD2
:1015600094E00E948507F82E8EEB94E00E94850798
:10157000082F8EEB94E00E9485074F2D4F73242F88
:1015800030E0A4E035952795AA95E1F7322F330F87
:10159000330F522F531B550F540F0F71602F70E0F4
:1015A000B4E075956795BA95E1F7362F330F330F91
:1015B000462F431B440F400F9C0104E035952795AF
:1015C0000A95E1F72F703327922F990F990FE22F89
:1015D000E91BEE0FE80F8FEF850F8F3108F051E018
:1015E0008FEF840F8C3008F041E01F77212F30E01F
:1015F00064E0359527956A95E1F7822F880F880F6B
:10160000A22FA81BAA0FA10FDF776D2F70E0F4E0C7
:1016100075956795FA95E1F7862F880F880FF62F55
:10162000F81BFF0FFD0FC6FF23C09C2F9F71692F72
:1016300070E024E0759567952A95E1F7862F880F6D
:10164000880F262F281B822F880F890F6CE00E949D
:10165000DB1DC5FD945F9093AE03F093AF03A093A1
:10166000B0035093B1034093B203E093B30335CF7B
:10167000CF732C2F30E084E0359527958A95E1F7DC
:10168000822F880F880F922F981B990F9C0FE3CF02
:10169000FB0101900020E9F73197AF01461B570B82
:1016A000DC01ED91FC910280F381E02D0994CF9350
:1016B000DF930E94D505EC0161E871E081E294E0DE
:1016C0000E94480B8C0F9D1FDF91CF910895CF93FF
:1016D000C82F8091AD0390E0C11136C00297B1F1DF
:1016E00060E089E00E94B40360E08AE00E94B403F5
:1016F0008AE009C060E089E00E94B40360E08AE00B
:101700000E94B40389E061E00E94B40382E0C11149
:1017100081E08093AD03C093AC030E9475046056D2
:10172000704F8F4F9F4F609360037093610380935E
:1017300062039093630388E191E0CC2311F082E38C
:1017400091E0CF910C94570B0197A1F6CF9108959A
:1017500060E089E00E94B40360E08AE00E94B40384
:101760008091AD03882321F085EF90E00E94570B14
:101770001092AD030895CF939091AA03981781F02A
:10178000C82F8093AA03682F88E00E94B40383ECDB
:1017900090E0CC2311F08BED90E0CF910C94570B9F
:1017A000CF9108958F929F92AF92BF920F931F9304
:1017B000CF93DF93CDB7DEB7A1970FB6F894DEBF16
:1017C0000FBECDBF19A2423008F44AE08E010F5D72
:1017D0001F4F842E912CB12CA12CA50194010E94A5
:1017E000AA1DE62FB901CA01EA3004F5E05DD8016F
:1017F000EE938D01232B242B252B79F790E080E0AD
:10180000109729F0BD0181E294E00E94480BA19657
:101810000FB6F894DEBF0FBECDBFDF91CF911F9101
:101820000F91BF90AF909F908F900895E95CDFCFAC
:101830006F927F928F929F92AF92BF92CF92DF92E0
:10184000EF92FF920F931F93CF93DF93CDB7DEB745
:10185000AA970FB6F894DEBF0FBECDBF682EFE016B
:10186000769680E06F01DB019D91BD01911109C069
:10187000F601E80FF11D90E28F5F91938431E1F75B
:1018800004C091938F5F843171F71AA6B4E16B9E07
:101890007001112490E097012B553D4F5901E92F1C
:1018A000F0E046018E0E9F1EA5014E0F5F1FD40172
:1018B0002C91DA018C91281318C09F5F943178F332
:1018C000AA960FB6F894DEBF0FBECDBFDF91CF91C1
:1018D0001F910F91FF90EF90DF90CF90BF90AF904E
:1018E0009F908F907F906F900895EE0DFF1DEB55A8
:1018F000FD4F9E012F5F3F4F792E80E08901D4017B
:101900004D914D015081451308C0B3E17B1671F034
:10191000D4016C915181651749F08F5FD9014D93C6
:101920009D0141937394B4E17B12E9CFF801E80F74
:10193000F11D10828090590390905A03D40116969D
:10194000EC916E16C0F0E150D40115968C91981769
:1019500010F09FEF980FE80DF92DF11D6185690FCB
:10196000606840E0C4010E949209B801C4010E946D
:10197000480B972DA3CFE62DE7CF85ED8093BC00D4
:101980008091F9039091FA03A091FB03B091FC03BD
:101990000796A11DB11D23E0B695A795979587954C
:1019A0002A95D1F72091BC0024FD03C01092F703C3
:1019B00008954091F9035091FA036091FB037091EF
:1019C000FC03452B462B472B69F30097A105B10576
:1019D00041F02AE22A95F1F700C00197A109B10967
:1019E000E1CF8091F8030C946D060F931F93CF9372
:1019F0008B01C42F44E150E0BC018AE793E00E94D0
:101A0000791A10928E0344E150E0B80185E693E024
:101A10000E94791A10927903C093B9030E94750449
:101A20006C5E7A4F8F4F9F4F6093BA037093BB03E6
:101A30008093BC039093BD0387E08093BE0381E055
:101A400080930201CF911F910F910895FF920F9300
:101A50001F93CF93DF9307E913E0D0E0C0E0F801D4
:101A6000F1908F01CE010E943E1DF81621F06F2DDE
:101A7000CE010E94461D2196CF30D10581F7DF911E
:101A8000CF911F910F91FF9008951F920F920FB663
:101A90000F9211242F933F938F939F93AF93BF93F4
:101AA0008091C3039091C403A091C503B091C60374
:101AB0003091C20323E0230F2D3758F50196A11D65
:101AC000B11D2093C2038093C3039093C403A093DA
:101AD000C503B093C6038091C7039091C803A0913A
:101AE000C903B091CA030196A11DB11D8093C7031C
:101AF0009093C803A093C903B093CA03BF91AF9159
:101B00009F918F913F912F910F900FBE0F901F903B
:101B1000189526E8230F0296A11DB11DD2CF1F9262
:101B20000F920FB60F9211242F933F934F935F9311
:101B30006F937F938F939F93AF93BF93EF93FF9395
:101B400081E294E00E946605FF91EF91BF91AF9111
:101B50009F918F917F916F915F914F913F912F91C5
:101B60000F900FBE0F901F9018951F920F920FB6F7
:101B70000F9211242F938F939F93EF93FF93E091F4
:101B80003104F09132048081E0913704F0913804FF
:101B900082FD1BC0908180913A048F5F8F732091EA
:101BA0003B04821741F0E0913A04F0E0EF5DFB4F17
:101BB000958F80933A04FF91EF919F918F912F9190
:101BC0000F900FBE0F901F9018958081F4CF1F9239
:101BD0000F920FB60F9211242F933F934F935F9361
:101BE0006F937F938F939F93AF93BF93EF93FF93E5
:101BF0008091B900887F803609F44AC0F0F58832B8
:101C000009F4A7C018F5803109F49BC0B8F4882303
:101C100009F4F9C0883009F494C0FF91EF91BF91A5
:101C2000AF919F918F917F916F915F914F913F9174
:101C30002F910F900FBE0F901F901895883109F4C7
:101C400088C0803251F78093F50314C0803409F4C2
:101C50009DC040F48033B9F38833F9F68093F503DF
:101C600085ECB0C0803509F485C0883509F496C08C
:101C7000883499F60E94BD0CD0CF883909F48CC005
:101C800038F5883729F050F4883611F0803729F676
:101C900083E08093F7031092580357C0883809F403
:101CA0007BC0803919F0803809F0B7CF8091580394
:101CB000803208F071C0E091580381E08E0F80936C
:101CC00058038091BB00F0E0E85CFC4F80833DC08E
:101CD000803B39F0E0F4803A09F479C0883A09F0A1
:101CE0009CCF84E08093F703109237031092360361
:101CF000E091CD03F091CE030995809136038111D7
:101D00000FC081E0809336031092160309C0803C17
:101D100009F4A6CF883C09F4A3CF883B09F07DCF16
:101D2000E091370381E08E0F80933703F0E0EA5EA5
:101D3000FC4F80818093BB009091370380913603E4
:101D400029C08091D2038093BB0085EC8093BC00B6
:101D500064CF9091F4038091F303981758F5E091C4
:101D6000F40381E08E0F8093F403F0E0ED52FC4F1A
:101D70008081E9CFE091F40381E08E0F8093F4033A
:101D80008091BB00F0E0ED52FC4F80839091F40312
:101D90008091F3039817C8F285E8D8CFE091F40357
:101DA00081E08E0F8093F4038091BB00F0E0ED5250
:101DB000FC4F80838091F60381115CCF81E080939A
:101DC000D10384EA8093BC001092F70326CF85EC00
:101DD0008093BC001092F70380915803803230F456
:101DE000E0915803F0E0E85CFC4F108260915803EA
:101DF00070E0E091CB03F091CC0388E393E0099588
:101E0000109258030ACF1092F50334CF1F920F920D
:101E10000FB60F9211248F9381E08093C1038091BC
:101E2000A4028F5F8093A402843658F01092A4021B
:101E30008091C0038F3F29F08091C0038F5F809312
:101E4000C0038F910F900FBE0F901F9018951092A6
:101E500024041092230488EE93E0A0E0B0E0809385
:101E6000250490932604A0932704B093280427E523
:101E700031E0309322042093210425EC30E03093AC
:101E80002E0420932D0424EC30E030933004209372
:101E90002F0420EC30E0309332042093310421EC05
:101EA00030E0309334042093330422EC30E030935C
:101EB00036042093350426EC30E030933804209328
:101EC000370410923A0410923B0410923C04109292
:101ED0003D041092C1041092C0048093C2049093F8
:101EE000C304A093C404B093C50489E691E0909321
:101EF000BF048093BE041092CC041092D0041092C0
:101F0000CF041092D1048BE791E09093CB0480939F
:101F1000CA04E6EEF4E0108214821382158236962B
:101F200085E0E232F807B9F78AE091E090932D0559
:101F300080932C0586E091E090932F0580932E05E9
:101F400084E080933005809331058EE091E090939A
:101F50002B0580932A058AE090E0909333058093C7
:101F6000320584EF91E0909335058093340510920B
:101F70003805109237051092260510922705109209
:101F8000280510922905109236050895CF93DF9306
:101F9000CDB7DEB7C957D1090FB6F894DEBF0FBE73
:101FA000CDBF789484B5826084BD84B5816084BDE2
:101FB00085B5826085BD85B5816085BD80916E00E7
:101FC000816080936E001092810080918100826018
:101FD0008093810080918100816080938100809155
:101FE00080008160809380008091B1008460809344
:101FF000B1008091B00081608093B00080917A0040
:10200000846080937A0080917A00826080937A0065
:1020100080917A00816080937A0080917A00806854
:1020200080937A001092C100E0913104F091320463
:1020300082E08083E0912D04F0912E041082E091E3
:102040002F04F09130048FEC808310923904E091DA
:102050003504F091360486E08083E0913304F091FA
:102060003404808180618083E0913304F0913404F2
:10207000808188608083E0913304F0913404808112
:1020800080688083E0913304F091340480818F7DF7
:10209000808361E087E00E94E20361E088E00E94C3
:1020A000E20361E089E00E94E20361E08AE00E94CD
:1020B000E2030E94A80B0E94560680912401909191
:1020C0002501A0912601B091270189839A83AB83D2
:1020D000BC838E010F5F1F4F7E0125E0E20EF11CD5
:1020E0003801CC24C394F801D1908F01C092FD0334
:1020F000D0921F041092FE03109220040E948E06BC
:10210000882329F0E016F10671F718E3D12E8DE04F
:1021100090E00E941C1E7C01FC011382128284E369
:1021200091E091838083D48284E1858394E09683D7
:10213000A8E0CA2EC7829087118690E49287838791
:1021400084E58487F0925A03E09259030E94560670
:1021500062E370E080E090E00E94430460E0C70129
:102160000E94FB076AE070E080E090E00E94430478
:1021700040E060E3C7010E947C090BE416E4C8015B
:102180000197F1F740E060E3C7010E947C09C801B4
:102190000197F1F740E060E3C7010E947C0983E505
:1021A00092E00197F1F740E060E2C7010E947C09EC
:1021B00040E068E2C7010E949209F701608568600B
:1021C00040E0C7010E94920940E061E0C7010E941F
:1021D000920962E070E080E090E00E94430440E0F9
:1021E00066E0C7010E949209F701C78260E0C7015B
:1021F0000E94FB0785EE91E00E94D5056D2D70E0F1
:1022000090E080E040E10E94D20B61E871E081E261
:1022100094E00E94480B69EB71E081E00E94180C89
:1022200069EC71E082E00E94180CB7E9EB2EB3E094
:10223000FB2E10E000E0C8010E943E1DF7018193D3
:102240007F010F5F1F4F0F301105A9F78091970392
:10225000873A79F08FE0ECE3F1E0A7E9B3E0019091
:102260000D928A95E1F70E94260D8CE491E00E9480
:10227000570B0E94560681E08093FD0388E6809309
:102280001F041092FE03109220040E948E068823E1
:1022900079F080EC91E00E94570B69ED71E081E0EC
:1022A0000E94180C68EE71E082E00E94180CFFCFCB
:1022B00040E067E385E00E9438094AE161E081E09F
:1022C0000E94EF088AE891E00E94570B0E94AE0935
:1022D0000E9487088093B4032091A40391E08217A1
:1022E00008F490E09093AA0391E0821708F090E040
:1022F000892F0E94BB0B82E00E94A30891E08927EE
:10230000809364038FE691E00E94570B68EE73E0C0
:1023100080E090E00E944304F894109280008BE0EB
:102320008093810083EC99E09093890080938800EA
:10233000109285001092840082E080936F00789460
:102340002E01F9E44F0E511C1E0121E6220E311C14
:102350008091C10381110BC083B7817F83BF83B795
:10236000816083BF889583B78E7F83BFF1CF109242
:10237000C103F8943091C003E4963FAFE497109204
:10238000C0037894332309F48FC0C0900401D09027
:1023900005012091AE0330E0A0E1BEE00E94CC1D1B
:1023A0004B015C01E4968FADE497282F30E0D60115
:1023B0000E94CC1D860E971EA81EB91E8091B003E8
:1023C000880E911CA11CB11C2091AF0330E0ACE33E
:1023D000B0E00E94CC1D680D791D8A1D9B1D20E870
:1023E00031E541E050E00E94AA1D49015A017B01FC
:1023F0008C0120E13EE040E050E00E94AA1DE596FD
:102400002FAFE5972093AE03C801B7012CE330E06E
:1024100040E050E00E94AA1DE62ECA01B9012CE35B
:1024200030E040E050E00E94AA1DE7966FAFE797CA
:102430006093AF03E092B0030091B103F090B20358
:102440001091B30391E0891A9108A108B108EFEF48
:102450008E169E06AE06BE06B9F00F5F612F8F2D59
:102460000E94DE08801770F7F394FCE0FF1550F42B
:10247000812F90E0019664E670E00E94FB1D182F0A
:10248000FF24F39401E0DECF0093B1031093B30374
:10249000F092B2038091BF03E4962FADE497820FD0
:1024A0008C3390F58093BF0381E0809336050E94C2
:1024B000750400912605109127052091280530917B
:1024C0002905AB01BC01401B510B620B730B8091C2
:1024D000320590913305B0E0A0E084179507A60778
:1024E000B70708F041C110E080913005181718F5C2
:1024F000E0912C05F0912D05E10FF11D62E0808146
:102500000E94E2031F5FF0CF1092BF03CA94CD2850
:1025100019F40E94AE09C8CF4E2DE7966FADE7972C
:10252000E5968FADE5970E943809412F6F2D802FDA
:102530000E94EF08B9CF912C80913105981608F0D0
:1025400063C0E92CF12CE0912E05F0912F05EE0DE2
:10255000FF1D61E080810E94E203E0912E05F09171
:102560002F05EE0DFF1D60E080810E94B40381E025
:1025700090E0A0E0B0E0092C04C0880F991FAA1FCA
:10258000BB1F0A94D2F75C016C01C094D094812CDB
:1025900080913005881608F5082D10E0E0912C0593
:1025A000F0912D05E00FF11F80810E948B030C5FDD
:1025B0001F4F000F111FF801E653FB4F892B41F409
:1025C000808191818A299B29918380838394E0CFA4
:1025D000808191818C219D21F7CFE0912E05F09192
:1025E0002F05EE0DFF1D61E080810E94B4038091F4
:1025F0002E0590912F05E80EF91E60E0F70180810D
:102600000E94E203939498CF6AECE62E64E0F62EE3
:10261000F701878D90A1892B31F4148E2FEF3FEFB6
:10262000368F258F11A2369635E0E630F30789F70D
:10263000D12C56E0B52E80913005D81608F050C048
:10264000C12C0D2D10E0000F111F0E521B4F2091B9
:102650003105C21608F042C0F801608171810C2C6E
:1026600002C0769567950A94E2F7D29E90011124F4
:102670002C0D311DEAECF4E080E0458D568D2417D9
:10268000350709F410C78F5F36968A30B1F760FFBF
:1026900023C0EAECF4E090E080E0448D411117C0E3
:1026A000E0912A05F0912B05E20FF31F4081B89EBF
:1026B000F001B99EF00D1124E653FB4F448F368F85
:1026C000258F10A2178E61E00E94810405C001963B
:1026D00036968A30910509F7C394B9CFD394ABCF1E
:1026E00010E0F70181A18111182FF6E0EF0EF11C27
:1026F00026E0E21625E0F206A1F70E947504609339
:1027000026057093270580932805909329058091CD
:10271000BE03112349F19091EB04992329F12091F3
:10272000E9043091EA0421303105F1F49091E60496
:1027300091111DC08091BE03873009F035C20E94FF
:1027400075040091BA031091BB032091BC03309132
:10275000BD03601B710B820B930B97FD25C280910B
:10276000B9030E94350820C210923605E3CF8730A6
:1027700031F321E0209302018630A8F4823008F082
:1027800094C08823C1F18130A9F6923409F074C055
:102790008091A80390E0019667E070E00E94FB1D25
:1027A0008093A803C7CF863029F68FEC890F843039
:1027B00008F0F7C1E92FEE0FFF0BE751FF4F008143
:1027C0001181109305010093040182E293E00E94BD
:1027D000D505B80190E080E04AE00E94D20B61E8A4
:1027E00071E081E294E00E94480B40E06EE073E00B
:1027F0008FE093E0A3C0913421F41092A80381E00C
:1028000005C0923431F41092A60384E00E9435088A
:1028100091CF86E09334D1F39434C9F48091AB0323
:1028200090E0019663E070E00E94FB1D8093AB0393
:10283000882339F0813041F480E493E00E94570B03
:1028400079CF85E793E0FACF8AE593E0F7CF81E08F
:10285000913319F0923321F480E00E94670B6ACF24
:10286000903319F40E94A80B65CF933309F09CC1F3
:102870001092A60385E0CACF933429F48091A8036F
:1028800090E0069689CF8FEC890F873028F48093EB
:10289000A8030E943F084ECF9B34D9F3983519F016
:1028A000913409F081C180E0B1CF23E0833021F081
:1028B00026E0853009F024E030ED390F3A3098F405
:1028C000E0919603E21708F06FC181E08E0F8093CC
:1028D0009603F0E0E157FC4F9083E82FF0E0E157DA
:1028E000FC4F108227CF983581F4E0919603EE23B8
:1028F00021F0E150E0939603F1CF9091A60391303F
:1029000009F07DCF1092A60381CF9B3409F04CC112
:10291000843009F4DAC0853009F4FDC0833009F44D
:1029200081C0B101CE0185599F4F0E9411088111CC
:1029300008C042E061EF72E080E093E00E94F50C95
:10294000F9CE2091A603AC969FADAC97F1018081A2
:10295000211109C090935C0380935D0381E0809313
:10296000A60382E053CF90935E0380935F03E091D0
:10297000A70324E0E29FF0011124E956FC4F809167
:102980005C0390915D03A0915E03B0915F0381832E
:102990009283A383B4830E94260D89EE92E00E9465
:1029A000D505E091A703F0E0EE0FFF1FE554FA4FC5
:1029B000859194910E94D50580915F031F928F931A
:1029C00080915E031F928F9380915D031F928F937E
:1029D00080915C031F928F9383EF91E09F938F937D
:1029E0001F9288E18F938E010F5F1F4F1F930F93EC
:1029F0000E94481FB80181E294E00E94480B61E800
:102A000071E081E294E00E94480B41E06FED72E0DA
:102A100080EE92E00E94F50C0FB6F894DEBF0FBE78
:102A2000CDBF88CE80919603882309F483CE8FE8AA
:102A300093E00E945B1A9091A60391110FC0843617
:102A400030F043E069EC72E080ED92E077CF809364
:102A50005B0381E08093A60383E0D8CE90915B0373
:102A6000981710F4853630F043E066EA72E089EB9F
:102A700092E064CF9093A4038093A5030E94260D57
:102A80008AE892E00E94D5056091A40370E090E08E
:102A900080E04AE00E94D20B6FE281E294E00E9463
:102AA00088056091A50370E090E080E04AE00E9414
:102AB000D20B61E871E081E294E00E94480B41E0B2
:102AC00060E872E081E892E039CFB101CE0185592A
:102AD0009F4F0E941108811106C044E063E672E036
:102AE00082E792E02BCFAC968FADAC978093AE038C
:102AF000F10160816093AF031092B00340E00E9447
:102B0000380986E492E00E94570B40E067E372E0E8
:102B100088E392E013CF80919603863009F0C5C414
:102B200080918F0380539AE0109190031053899FF6
:102B3000100D112420919103205380919203299F1D
:102B4000800D112420EDF22EF80E209193032053D6
:102B5000009194030053299F000D112481538C3060
:102B600008F0A3C4112309F4A0C4602F8F2D0E9484
:102B7000DE08811708F499C41093B103F092B203F0
:102B80000093B303402F6F2D812F0E94EF088FEF2A
:102B900091E00E94570B40E06FEE71E080EF91E012
:102BA000CDCE983509F42BCE8091AD038823E1F08A
:102BB0000E947504009160031091610320916203EB
:102BC00030916303601B710B820B930B97FD0CC05C
:102BD0001091AC030E94A80B83EA93E0111102C08C
:102BE0008AE893E00E94570B0E9475040091B50398
:102BF0001091B6032091B7033091B803601B710B9D
:102C0000820B930B643F71408105910508F4B3C0BA
:102C10000E9475046093B5037093B6038093B70365
:102C20009093B8030E9487088093B40380E00E94C9
:102C3000A308182F811104C081E00E94A308182F57
:102C40008091A903181771F01093A903612F87E0F1
:102C50000E94B40383ED93E0111102C08CEB93E06A
:102C60000E94570B8091AB03813009F0A2C081E034
:102C70000E94BB0B82E00E94A30890916403891715
:102C800021F0809364030E94670B8091AF039091C1
:102C90000301891709F468C0809303019091B4037C
:102CA0001F929F939091B0031F929F931F928F93B7
:102CB0008091AE031F928F938091B3031F928F93E5
:102CC0008091B2031F928F938091B1031F928F93D3
:102CD0008AE092E09F938F931F9280E38F937F927D
:102CE0006F920E94481FB30181E294E00E94480B5A
:102CF0008EE394E00E94D5050FB6F894DEBF0FBEB8
:102D0000CDBF8091A903882309F464C083E394E0D4
:102D10000E94D50586E394E00E94D5058091AA0320
:102D2000882309F45AC08CE294E00E94D505809172
:102D3000AB03811155C087E194E00E94D5058EE177
:102D400094E00E94D5058091AD03813009F44BC019
:102D5000823009F44BC08091AC03882309F449C048
:102D60008CEE93E00E94570B8091BE038B7F19F489
:102D700081E08093020180910201882309F43BC124
:102D8000109202011982198E19AAF2011082E091A3
:102D9000BE03E83008F01BC1F0E0EF52F94E0C948E
:102DA0000F1EFC165518911810196A19A719141A34
:102DB000461A823011F480E05BCF8091B403909189
:102DC000A403891708F453CF9091A503981708F02E
:102DD00051CFF1CF8FE294E09BCF88E294E0A5CF72
:102DE0008EE094E0AACF85E094E0BCCF84EF93E03E
:102DF000B9CF8DEF93E0B6CF8091AD0304E8A02E5C
:102E000001E0B02E813091F01DE8A12E11E0B12E2D
:102E1000823061F08091AC03BEE9AB2EB1E0BB2EF5
:102E2000882321F086E9A82E81E0B82EF091AF0327
:102E3000E796FFAFE7972091AE03E8962FAFE897AC
:102E40008F2F90E03CE3239F800D911D1124EFEF25
:102E5000FFEFF0930101E0930001F7E9EF2EF3E0BB
:102E6000FF2EE4961FAEE4972FEF3FEFE6963FAFBD
:102E70002EAFE697A0EA8A2EA5E09A2EF401E81B71
:102E8000F90BEA96FFAFEEAFEA97F7018181028175
:102E900010E0FCE38F9F000D111D1124F7018381C9
:102EA000C480D12CFCE38F9FC00CD11C11240C15C5
:102EB0001D0509F4C5C0E4968FADE4970E94A308F0
:102EC000882309F4A5C0D0920101C092000180912D
:102ED000B0031F928F931F92E7969FADE7979F9342
:102EE0001F92E896EFADE897EF938091B3031F929E
:102EF0008F938091B2031F928F938091B1031F92A1
:102F00008F9386E392E09F938F931F9288E18F9334
:102F10007F926F920E94481F0FB6F894DEBF0FBEDB
:102F2000CDBF8091AB0321E481112DE48091AA03F0
:102F3000882309F493C086EA91E01F922F939F9310
:102F40008F938091B4031F928F9387E592E09F93B4
:102F50008F931F9218E11F93CE0149969F938F93F1
:102F60000E94481FBF92AF928FE692E09F938F938B
:102F70001F921F93CE01C1969F938F930E94481F6B
:102F800080910001909101010FB6F894DEBF0FBE51
:102F9000CDBF2091A9038F3F980709F062C086EA50
:102FA00091E0211102C089EA91E09F938F938AE713
:102FB00092E09F938F931F9288E18F935F924F923D
:102FC0000E94481F0FB6F894DEBF0FBECDBFB301FD
:102FD00080E00E94180CBE01675E7F4F81E00E9476
:102FE000180CBE016F5C7F4F82E00E94180CB2018A
:102FF00083E00E94180C80E090E0892B09F4A8C9B6
:103000000E945205882309F49FC90E9400009CC9B0
:10301000EA968EAD9FADEA97800F911FB4010E9492
:10302000E71DE6962EAD3FADE6978217930740F475
:103030001093010100930001E6969FAF8EAFE697D3
:1030400034E0E30EF11CE4968FADE497813009F48F
:103050003ECFF1E0E496FFAFE49717CF89EA91E025
:103060006CCF6CE370E00E94E71D77272223C1F04C
:1030700042EB51E026EA31E09F938F937F936F9369
:103080005F934F933F932F938BE892E09F938F939F
:103090001F9288E18F935F924F920E94481F92CFB8
:1030A0004DEA51E029EA31E0E7CF0091A80303306F
:1030B00008F403E01DEF100F63010F5F73EBE72EC1
:1030C00075E0F72EE8E1BE2E173010F5812F90E065
:1030D000FC01EE0FFF1FE554FA4F25913491019644
:1030E0004091A8031417D9F040E23F932F939F9388
:1030F0008F931F924F93FF92EF921F92BF92DF9296
:10310000CF920E94901A0FB6F894DEBF0FBECDBFCB
:103110001F5FF8E1CF0ED11C0113D6CF58CF4EE37D
:10312000E4CF9091A703092F10E08091A60392307D
:1031300009F060C0811163C085E995E0F801EE0FE8
:10314000FF1FE554FA4F259134919F938F933F933E
:103150002F938DEA95E09F938F931F9288E18F9331
:103160007F926F920E94901A4091A6030FB6F89436
:10317000DEBF0FBECDBFC801880F991F880F991FF2
:10318000411143C0FC01E956FC4F228130E0FC01B3
:10319000E956FC4F411142C081813F932F931F920A
:1031A0008F9383E895E09F938F931F9218E11F936D
:1031B000CE0149969F938F930E94901AC1010E945D
:1031C00067083F922F9288E795E09F938F931F9215
:1031D0001F93CE01C1969F938F930E94901A85E60C
:1031E00095E09F938F931F921F935F924F920E943F
:1031F000901AE8CE811106C08BE995E09FCF86EA50
:1032000095E09CCF82EA95E099CF000F111F000F47
:10321000111FF801E556FC4F2081B8CF8381BDCF47
:103220008091A60381114DC082E595E09F938F9315
:103230001F9288E18F937F926F920E94901A0F9055
:103240000F900F900F900F900F908091A603811117
:103250003BC08091A4031F928F9383E395E09F93DB
:103260008F931F9288E18F93CE0149969F938F93FE
:103270000E94901A0FB6F894DEBF0FBECDBF8091AA
:103280009603833020F587EB91E09F938F938FE82F
:1032900093E09F938F9386E295E09F938F931F9285
:1032A00018E11F93CE01C1969F938F930E94901AAD
:1032B00083E195E09F938F931F921F935F924F92AC
:1032C00096CF80E495E0B2CF8091A503C4CF83E888
:1032D00091E0DBCF86E095E09F938F931F9218E1FA
:1032E0001F937F926F920E94901A8091B0031F9259
:1032F0008F938091AF031F928F938091AE031F92A3
:103300008F938FEE94E09F938F931F921F93CE0124
:1033100049969F938F930E94901AC1010E9467085B
:103320003F922F9284EE94E09F938F931F921F936E
:10333000CE01C1969F938F930E94901A81ED94E0E5
:103340009F938F931F921F935F924F9250CF83EC66
:1033500094E09F938F931F9218E11F937F926F9237
:103360000E94901A8091B3031F928F938091B203B1
:103370001F928F938091B1031F928F938CEA94E0F8
:103380009F938F931F921F93CE0149969F938F9384
:103390000E94901A88E0E8E2F1E0DE01A559BF4FF3
:1033A00001900D928A95E1F7609196039E0125594F
:1033B0003F4FDE01AF59BF4FA901485F5F4F0FB6C6
:1033C000F894DEBF0FBECDBFCD017FE2F9011191B0
:1033D0009F011F3FF9F47C93119642175307B1F7F1
:1033E000FC0110869F938F9381EA94E09F938F93C3
:1033F0001F9218E11F93CE01C1969F938F930E9455
:10340000901A8CE894E09F938F931F921F935F9282
:103410004F92EDCEEFE5161728F4E12FF0E0E157DB
:10342000FC4FE081EC93D8CF88E794E09F938F9393
:103430001F9218E11F937F926F920E94901A8091C1
:1034400005018F93809104018F938CE694E09F9304
:103450008F931F921F93CE0149969F938F930E9443
:10346000901A89E594E09F938F931F921F93CE014A
:10347000C1969F938F930E94901A86E494E09F9345
:103480008F931F921F935F924F92B1CE6AE773E0C2
:10349000CE0149960E94411F65E673E0CE01C196B8
:1034A0000E94411F94CD61700FC945E06DE172E04B
:1034B00088E292E043CAFC0188279927E894219189
:1034C0002032E9F3293010F02E30C8F32B3241F0CE
:1034D0002D3239F4689404C00E94881A820F911D1D
:1034E000219120532A30C0F31EF4909581959F4F6F
:1034F0000895FB01DC014150504048F005900D92C9
:103500000020C9F701C01D9241505040E0F70895D6
:103510007AE0979F902D879F802D910D112408951B
:10352000AEE0B0E0E6E9FAE10C94811D0D891E8958
:103530008F89988D2EE02C831A83098397FF02C010
:1035400080E090E801979E838D83AE01455E5F4FDA
:10355000698D7A8DCE0101960E94C01A4D815E81DF
:1035600057FD0AC02F813885421753070CF49A0182
:10357000020F131FF80110822E96E4E00C949D1D9B
:10358000ABE0B0E0E6ECFAE10C94731D7C013B018A
:103590008A01FC0117821682838181FFC8C1CE0196
:1035A00001965C01F7019381F30193FD859193FFEF
:1035B00081913F01882309F453C1853239F493FD89
:1035C000859193FF81913F01853229F4B70190E005
:1035D0000E94B01CE7CF912C212C312CFFE1F31578
:1035E00038F08B3211F190F4803209F1833229F1F5
:1035F00037FC3CC020ED280F2A3050F536FE20C0A5
:103600008AE0989E200D1124922E06C08D3291F0F2
:10361000803371F7689430F8F30193FD859193FF3F
:1036200081913F018111DACF21C0689431F868940B
:1036300032F8F2CF689433F8EFCF689434F8ECCFD7
:10364000EAE02E9E200D1124222E689435F8E4CF56
:103650008E3229F436FC04C1689436F8DDCF8C36FE
:1036600019F4689437F8D8CF8836B1F2982F9F7D37
:1036700095549330E0F08336A1F18337C1F183355F
:1036800009F063C02801F2E04F0E511CF801C08020
:10369000D180692D70E036FC02C06FEF7FEFC6016C
:1036A0000E949A1C4C01689437F882010AC00C5F92
:1036B0001F4FFFE3F98388248394912C6501E894DC
:1036C00037F833FE2DC0522C8114910471F555202A
:1036D00009F468CFB70180E290E00E94B01C5A94D0
:1036E000F6CFF801808189830E5F1F4FE4CF280158
:1036F000F2E04F0E511CF801C080D180692D70E0BE
:1037000036FC02C06FEF7FEFC6010E94A51C4C0182
:103710008201D5CFB70180E290E00E94B01C2A94CC
:103720002814190409F0B0F7CECFF60137FC8591C3
:1037300037FE81916F01B70190E00E94B01C5110DB
:103740005A94F1E08F1A9108BFCF843619F0893668
:1037500009F077C0F80137FE6BC06081718182810A
:1037600093810C5F1F4FF32DFF763F2E97FF09C00B
:1037700090958095709561957F4F8F4F9F4F68947E
:1037800037F82AE030E0A5010E94E01CC82ECA18D4
:103790008C2C432C36FE0CC0E89440F8C91440F43D
:1037A00034FE05C032FC03C0F32DFE7E4F2E892C63
:1037B00044FE95C0FE01EC0DF11D8081803309F0BF
:1037C00087C0242D297E422E842D8870582E43FCDC
:1037D00095C040FE8FC09C2C821418F42C0C922CA7
:1037E000981844FE91C0B70180E390E00E94B01C9D
:1037F00042FE09C088E790E041FE02C088E590E003
:10380000B7010E94B01CC91408F48AC0CA94D12C14
:103810009FEFC91AD90ACA0CDB1CF60182916F010D
:10382000B70190E00E94B01CAC14BD04B1F74FCFBB
:1038300060817181072E000C880B990B0E5F1F4F62
:1038400092CFD32CE894D4F82AE030E0853739F1D0
:10385000232D297FD22E8F3601F148F48835A9F027
:10386000F701868197812B96E2E10C948F1D8037BA
:1038700049F08837A9F7D4FE02C06894D2F820E155
:1038800030E00DC06894D4F8F6CF34FE03C0822F28
:103890008660D82E20E132E002C028E030E0F80156
:1038A000D7FE0FC060817181828193810C5F1F4FB1
:1038B000A5010E94E01CC82ECA183D2CE89437F8D8
:1038C00067CF6081718190E080E00E5F1F4FF0CF85
:1038D00042FC02C0839478CF8394839475CF842D67
:1038E000867809F471CFF6CFB70180E290E00E94AC
:1038F000B01C83948214C0F3512C73CF522C5818EF
:10390000821408F46ECFF8CF842D867809F47BCF2B
:103910008BE241FE80E247FC8DE2B70190E071CF7F
:10392000B70180E390E00E94B01C9A946CCF8FEFB7
:103930009FEF99CFFC010590615070400110D8F7BE
:10394000809590958E0F9F1F0895FC0161507040E7
:1039500001900110D8F7809590958E0F9F1F0895C4
:103960000F931F93CF93DF93182F092FEB018B81B8
:1039700081FD09C01FEF0FEF812F902FDF91CF91B5
:103980001F910F91089582FF14C02E813F818C8179
:103990009D81281739073CF4E881F981CF01019610
:1039A0009983888310838E819F8101969F838E8364
:1039B000E3CFE885F985812F0995892BA1F3DACF2B
:1039C000FA01AA27283051F1203181F1E8946F9350
:1039D0006E7F6E5F7F4F8F4F9F4FAF4FB1E03ED0F6
:1039E000B4E03CD0670F781F891F9A1FA11D680F94
:1039F000791F8A1F911DA11D6A0F711D811D911DC7
:103A0000A11D20D009F468943F912AE0269F11243B
:103A10003019305D3193DEF6CF010895462F47709F
:103A2000405D4193B3E00FD0C9F7F6CF462F4F70FA
:103A3000405D4A3318F0495D31FD4052419302D058
:103A4000A9F7EACFB4E0A6959795879577956795FE
:103A5000BA95C9F700976105710508959B01AC01FE
:103A60000A2E06945795479537952795BA95C9F725
:103A7000620F731F841F951FA01D0895F999FECF33
:103A800092BD81BDF89A992780B50895262FF9999E
:103A9000FECF1FBA92BD81BD20BD0FB6F894FA9A31
:103AA000F99A0FBE01960895052E97FB1EF4009417
:103AB0000E946B1D57FD07D00E94AA1D07FC03D072
:103AC0004EF40C946B1D50954095309521953F4FC9
:103AD0004F4F5F4F089590958095709561957F4FFA
:103AE0008F4F9F4F08952F923F924F925F926F9208
:103AF0007F928F929F92AF92BF92CF92DF92EF927E
:103B0000FF920F931F93CF93DF93CDB7DEB7CA1BFE
:103B1000DB0B0FB6F894DEBF0FBECDBF09942A8829
:103B2000398848885F846E847D848C849B84AA84D1
:103B3000B984C884DF80EE80FD800C811B81AA815E
:103B4000B981CE0FD11D0FB6F894DEBF0FBECDBF29
:103B5000ED010895A1E21A2EAA1BBB1BFD010DC0A9
:103B6000AA1FBB1FEE1FFF1FA217B307E407F5072D
:103B700020F0A21BB30BE40BF50B661F771F881F09
:103B8000991F1A9469F760957095809590959B019F
:103B9000AC01BD01CF010895A29FB001B39FC00148
:103BA000A39F700D811D1124911DB29F700D811D69
:103BB0001124911D0895991B79E004C0991F96174F
:103BC00008F0961B881F7A95C9F780950895AA1B5F
:103BD000BB1B51E107C0AA1FBB1FA617B70710F0F8
:103BE000A61BB70B881F991F5A95A9F7809590952A
:103BF000BC01CD01089597FB072E16F4009407D061
:103C000077FD09D00E94E71D07FC05D03EF4909592
:103C100081959F4F0895709561957F4F0895EE0FA0
:103C2000FF1F0590F491E02D09940E94CC1DB7FF71
:103C30000895821B930B08950F931F93CF93DF93E7
:103C40008230910510F482E090E0E0913B05F09124
:103C50003C0530E020E0B0E0A0E0309799F4211579
:103C6000310509F44AC0281B390B24303105D8F539
:103C70008A819B816115710589F1FB0193838283A0
:103C8000FE0111C0408151810281138148175907FB
:103C9000E0F04817590799F4109761F012960C93C9
:103CA000129713961C933296CF01DF91CF911F91FB
:103CB0000F91089500933B0510933C05F4CF211517
:103CC000310551F04217530738F0A901DB019A0181
:103CD000BD01DF01F801C1CFEF01F9CF90933C05A1
:103CE00080933B05CDCFFE01E20FF31F81939193AB
:103CF0002250310939832883D7CF2091390530915B
:103D00003A05232B41F42091200130912101309379
:103D10003A052093390520911E0130911F0121158C
:103D2000310541F42DB73EB7409122015091230156
:103D3000241B350BE0913905F0913A05E217F307A2
:103D4000A0F42E1B3F0B2817390778F0AC014E5F0B
:103D50005F4F2417350748F04E0F5F1F50933A0509
:103D600040933905819391939FCFF0E0E0E09CCFA1
:103D7000CF93DF930097E9F0FC0132971382128210
:103D8000A0913B05B0913C05ED0130E020E010979B
:103D9000A1F420813181820F931F20913905309148
:103DA0003A052817390709F061C0F0933A05E09306
:103DB0003905DF91CF910895EA01CE17DF07E8F5C5
:103DC0004A815B819E0141155105B1F7E901FB83F1
:103DD000EA8349915991C40FD51FEC17FD0761F48F
:103DE000808191810296840F951FE90199838883D0
:103DF000828193819B838A83F0E0E0E012968D912B
:103E00009C9113970097B9F52D913C911197CD0195
:103E10000296820F931F2091390530913A05281799
:103E2000390739F6309751F510923C0510923B0551
:103E3000B0933A05A0933905BCCFD383C2834081A8
:103E40005181840F951FC817D90761F44E5F5F4FEA
:103E500088819981480F591F518340838A819B81B2
:103E6000938382832115310509F0B0CFF0933C058F
:103E7000E0933B059ECFFD01DC01C0CF138212828F
:103E8000D7CFFB01DC0101900D920020E1F70895EE
:103E9000AEE0B0E0EEE4FFE10C94811D0D891E89D7
:103EA0008F89988D26E02C831A83098397FF02C09F
:103EB00080E090E801979E838D83AE01455E5F4F61
:103EC000698D7A8DCE0101960E94C01A4D815E8166
:103ED00057FD0AC02F813885421753070CF49A0109
:103EE000020F131FF80110822E96E4E00C949D1D22
:103EF000F894FFCFFFFF01FF3C000B0C100F0204F2
:103F0000050631323341343536423738394358307B
:103F10004B4400003D058000383F27200001FF0290
:103F200003FF040500000000A809E8040E081006BD
:103F3000A70600061E1200121E070013001E2D0108
:103F4000000A003C002C01000000008805E8041570
:103F500005F00546052405380500000000CC079F44
:103F6000070E08750798078507760700000000DD33
:103F700004E104E5040D0A0041425249454E444F14
:103F80000043455252414E444F004142494552542C
:103F9000410043455252414441004F4E004F464676
:103FA0000050726F780046696E20005F002020206C
:103FB00053697374656D6120436173610020202033
:103FC000496E696369616E646F2E2E2E00455252F0
:103FD0004F523A2073696E205254430052657669FD
:103FE0007365204932430020253032753A2530323E
:103FF00075202D20253032753A2530327500253058
:1040000032752F253032752F25303275202530320C
:10401000753A253032753A25303275207C204C7542
:104020007A202533752525207C00253032752F25F3
:104030003032752F25303275202020202530327502
:104040003A253032753A25303275004C757A3A256A
:1040500033752525204C756365733A252D33732000
:10406000256300436F7274696E613A25730052696B
:1040700065676F3A252D3373202D2D3A2D2D005273
:104080006965676F3A252D337320257320253032FB
:08409000753A2530327500007D
:107E0000112484B714BE81FFF0D085E080938100F7
:107E100082E08093C00088E18093C10086E0809377
:107E2000C20080E18093C4008EE0C9D0259A86E02C
:107E300020E33CEF91E0309385002093840096BBD3
:107E4000B09BFECF1D9AA8958150A9F7CC24DD24C4
:107E500088248394B5E0AB2EA1E19A2EF3E0BF2EE7
:107E6000A2D0813461F49FD0082FAFD0023811F036
:107E7000013811F484E001C083E08DD089C08234E0
:107E800011F484E103C0853419F485E0A6D080C0E4
:107E9000853579F488D0E82EFF2485D0082F10E0AE
:107EA000102F00270E291F29000F111F8ED06801E7
:107EB0006FC0863521F484E090D080E0DECF843638
:107EC00009F040C070D06FD0082F6DD080E0C81688
:107ED00080E7D80618F4F601B7BEE895C0E0D1E017
:107EE00062D089930C17E1F7F0E0CF16F0E7DF06D8
:107EF00018F0F601B7BEE89568D007B600FCFDCFD4
:107F0000A601A0E0B1E02C9130E011968C91119780
:107F100090E0982F8827822B932B1296FA010C0160
:107F200087BEE89511244E5F5F4FF1E0A038BF0790
:107F300051F7F601A7BEE89507B600FCFDCF97BE46
:107F4000E89526C08437B1F42ED02DD0F82E2BD052
:107F50003CD0F601EF2C8F010F5F1F4F84911BD097
:107F6000EA94F801C1F70894C11CD11CFA94CF0C13
:107F7000D11C0EC0853739F428D08EE10CD085E9AC
:107F80000AD08FE07ACF813511F488E018D01DD067
:107F900080E101D065CF982F8091C00085FFFCCF94
:107FA0009093C60008958091C00087FFFCCF809118
:107FB000C00084FD01C0A8958091C6000895E0E648
:107FC000F0E098E1908380830895EDDF803219F02E
:107FD00088E0F5DFFFCF84E1DECF1F93182FE3DFCA
:107FE0001150E9F7F2DF1F91089580E0E8DFEE27F6
:047FF000FF270994CA
:027FFE00040479
:00000001FF
