:020000040000FA
:100000000C943E030C9466030C9466030C946603F4
:100010000C9466030C9466030C9466030C946603BC
:100020000C9466030C9466030C9466030C94610FA5
:100030000C9466030C9466030C9466030C9466039C
:100040000C94A00D0C9466030C94100E0C94EA0D05
:100050000C9466030C9466030C9466030C9466037C
:100060000C94420E0C94660356656C6F6369646170
:10007000642072656C6F6A00416A757374617220E6
:10008000686F726100556D6272616C206465206CEE
:10009000757A00436F7274696E61730052696567A7
:1000A0006F20746172646500526965676F206D61CD
:1000B0006E616E61005B4556454E544F5D204C7538
:1000C000636573204150414741444153005B4556AD
:1000D000454E544F5D204C7563657320454E434536
:1000E0004E4449444153005B4556454E544F5D20B4
:1000F0004D6F746F7220646520636F7274696E61F6
:1001000020646574656E69646F005B4556454E54A6
:100110004F5D20436F7274696E61204345525241B6
:100120004E444F005B4556454E544F5D20436F7221
:1001300074696E612041425249454E444F00436FFD
:100140006E6669677572616369C3B36E20706F72A2
:10015000206465666563746F2063617267616461C2
:10016000005B4442475D2073657475703A205469A2
:100170006D6572312061637469766F2C20656E74D1
:1001800072616E646F20616C206C6F6F70005369D8
:100190007374656D612070617261204361736120C9
:1001A000696E69636961646F005B4442475D2073F7
:1001B000657475703A205254432079204C44522083
:1001C0006C6569646F7300486F726120696E696362
:1001D00069616C2066696A61646120284631203D4E
:1001E00020616A757374617220686F7261290045BD
:1001F00052524F523A206E6F20736520656E636FC6
:100200006E7472C3B320656C205254432044533142
:10021000333037005B4442475D2073657475703A34
:10022000204C4344206C6973746F004C434420316C
:10023000367832206E6F20656E636F6E7472616403
:100240006F20286F7063696F6E616C29004C4344A6
:10025000203136783220656E203078004C434420BF
:10026000656E203078002053414C544F2D412D3085
:10027000202866616C6C6F2064656C2070726F67FB
:1002800072616D612900205741544348444F470033
:100290002042524F574E2D4F5554002050494E2D5D
:1002A00052455345540020454E43454E4449444F22
:1002B000005B4442475D2073657475703A20696E37
:1002C0006963696F2C207265696E6963696F20705C
:1002D0006F723A0000486F726120616A75737461D1
:1002E0006461005B50524F475D20486F726120642B
:1002F000656C2052544320616A75737461646100B7
:100300005573652048484D4D2028323468290048EF
:100310006F726120696E76616C6964610000477577
:1003200061726461646F005B50524F475D204C7591
:100330007A20656E6369656E64652F6170616761BF
:100340003A20006D61796F722071756520656E636A
:10035000656E6465720041706167617220646562F8
:100360006520736572003020612039390056616C58
:100370006F7220696E76616C69646F000047756109
:10038000726461646F005B50524F475D200055738B
:10039000652048484D4D20283234682900486F7246
:1003A0006120696E76616C696461000056656C6FEE
:1003B00063696461642063616D6269616461005BAB
:1003C00050524F475D2056656C6F636964616420CD
:1003D00064656C2072656C6F6A3A2078005B5052DD
:1003E0004F475D204C7563657320656E204F4E202E
:1003F0006D616E75616C005B50524F475D204C75AE
:1004000063657320656E204F4646206D616E756191
:100410006C005B50524F475D204C756365732065DF
:100420006E204155544F005B4556454E544F5D205C
:10043000436F7274696E61204345525241444100DA
:100440005B4556454E544F5D20436F7274696E6133
:100450002041424945525441005B4556454E544F58
:100460005D20526965676F204150414741444F000C
:100470005B4556454E544F5D20526965676F204578
:100480004E43454E4449444F004142494552544130
:100490000043455252414E444F004345525241445D
:1004A000410041425249454E444F00286D616E75EE
:1004B000616C2900286175746F290020436F727484
:1004C000696E613A004F4646004F4E004F46460067
:1004D0004F4E00204C756365733A00205269656782
:1004E0006F3A00343D7833303020204F4E2F433D5B
:1004F000617472617300313D78312020323D783172
:10050000302020333D7836300041637475616C3A99
:10051000207825750056656C6F636964616420649A
:10052000656C2072656C6F6A004F4B3D6F6B2020CD
:100530004F4E2F433D626F72726172004E75657649
:100540006F3A202025730041637475616C3A202551
:100550003032753A253032753A2530327500416AAD
:10056000757374617220686F7261004F4B3D6F6BE1
:1005700020204F4E2F433D626F72726172004E75A4
:1005800065766F3A20202573257300416374756189
:100590006C3A2025752525004C757A3A204150414A
:1005A00047415220736F627265004C757A3A20455C
:1005B0004E43454E4445522062616A6F004F4B3DA9
:1005C0006F6B20204F4E2F433D626F72726172003D
:1005D0004E7565766F3A202025730041637475610E
:1005E0006C3A20253032753A25303275004142523E
:1005F000495200494E4943494F0046494E00434540
:100600005252415200255320255300256325752061
:10061000255300A8009C0093008500780068000026
:10062000000000240027002A000000000025002808
:10063000002B000000000023002600290004040411
:10064000040404040402020202020203030303037B
:100650000301020408102040800102040810200158
:10066000020408102000000008000201000003043A
:1006700007000000000000000000820F11241FBED0
:10068000CFEFD8E0DEBFCDBF12E0A0E0B1E0E0E404
:10069000F0E402C005900D92AC3DB107D9F725E01A
:1006A000ACEDB2E001C01D92A637B207E1F713E04E
:1006B000CEE3D3E004C02197FE010E94B51ECD33E6
:1006C000D107C9F70E9421100C941E200C94000041
:1006D00091E090933604809358041092370410925E
:1006E000590408950895089596E0899FD001112432
:1006F000AD5FBA4F90967C936E935F9791E0919621
:100700009C939197E0917005F091710590916F0520
:10071000992339F0309751F0811108C080911F055D
:100720000994309719F05C968C91FACF0895833034
:1007300081F028F4813099F08230A9F00895873053
:10074000A9F08830C9F08430B1F4809180008F7DA9
:1007500003C0809180008F7780938000089584B5D6
:100760008F7784BD089584B58F7DFBCF8091B000D5
:100770008F778093B00008958091B0008F7DF9CF7E
:10078000CF93DF93282F30E0F901EB59F94F849193
:10079000F901EF5AF94FD491F901E35CF94FC49193
:1007A000CC23A1F081110E949703EC2FF0E0EE0F13
:1007B000FF1FED5CF94FA591B491EC91ED2381E021
:1007C00090E009F480E0DF91CF91089580E090E01F
:1007D000FACF1F93CF93DF93282F30E0F901EB5925
:1007E000F94F8491F901EF5AF94FD491F901E35C83
:1007F000F94FC491CC23A9F0162F81110E949703C1
:10080000EC2FF0E0EE0FFF1FE75DF94FA591B491DB
:100810008FB7F894EC91111108C0D095DE23DC93CA
:100820008FBFDF91CF911F910895DE2BF8CFCF932B
:10083000DF9390E0FC01EF5AF94F2491835C994FCC
:10084000FC0184918823C9F090E0880F991FFC0176
:10085000E15EF94FA591B491FC01E75DF94FC591B7
:10086000D49161110DC09FB7F8948C91209582238B
:100870008C938881282328839FBFDF91CF9108958F
:10088000623051F49FB7F8943C91822F8095832376
:100890008C93E8812E2BEFCF8FB7F894EC912E2B11
:1008A0002C938FBFEACF3FB7F894809100049091CA
:1008B0000104A0910204B091030426B5A89B05C0D1
:1008C0002F3F19F00196A11DB11D3FBFBA2FA92FCF
:1008D000982F8827BC01CD01620F711D811D911DCC
:1008E00042E0660F771F881F991F4A95D1F7089538
:1008F0008F929F92AF92BF92CF92DF92EF92FF9230
:100900004B015C010E9453046B017C010E94530463
:100910006C197D098E099F09683E73408105910518
:10092000A8F321E0821A9108A108B10888EEC80E48
:1009300083E0D81EE11CF11C81149104A104B104D0
:1009400029F7FF90EF90DF90CF90BF90AF909F90EE
:100950008F9008952FB7F8946091FC037091FD0378
:100960008091FE039091FF032FBF08950F931F9373
:10097000CF93DF93C82FD62F86E0C89FF0011124B4
:10098000ED5FFA4F11A2878D90A181309105F1F0B2
:1009900058F082309105F1F1039709F440C0DF91DE
:1009A000CF911F910F9108956623C9F361E070E024
:1009B0008C2F0E9474030E94AA0460935B057093BD
:1009C0005C0580935D0590935E05E9CF0E94AA04C3
:1009D00000915B0510915C0520915D0530915E05ED
:1009E000AB01BC01401B510B620B730B80916D0579
:1009F00090916E05B0E0A0E084179507A607B707B1
:100A000048F462E070E08C2FDF91CF911F910F913D
:100A10000C94740363E070E0D111C1CFF4CF70E0A7
:100A200060E0F1CF862F642F0C941704862F642F7B
:100A30000C94E903862F0C94C003AF92BF92CF921F
:100A4000DF92EF92FF920F931F93CF93DF936C018E
:100A50007B018B01040F151FEB015E01AE18BF086F
:100A6000C017D10759F06991D601ED91FC91019021
:100A7000F081E02DC6010995892B79F7C501DF9139
:100A8000CF911F910F91FF90EF90DF90CF90BF908B
:100A9000AF900895FC01538D448D252F30E0842FB5
:100AA00090E0821B930B541710F0CF960895019796
:100AB0000895FC01918D828D981761F0A28DAE0F83
:100AC000BF2FB11D5D968C91928D9F5F9F73928F0A
:100AD00090E008958FEF9FEF0895FC01918D828D36
:100AE000981731F0828DE80FF11D858D90E0089503
:100AF0008FEF9FEF0895FC01918D228D892F90E05B
:100B0000805C9F4F821B91098F73992708958AE516
:100B100094E00E947B0521E0892B09F420E0822FDC
:100B2000089580E090E0892B29F00E9487058111CB
:100B30000C9400000895FC01A48DA80FB92FB11DDD
:100B4000A35ABF4F2C91848D90E001968F73992703
:100B5000848FA689B7892C93A089B1898C918370E1
:100B600080648C93938D848D981306C00288F389DA
:100B7000E02D80818F7D80830895EF92FF920F9307
:100B80001F93CF93DF93EC0181E0888F9B8D8C8D39
:100B900098131AC0E889F989808185FF15C09FB72D
:100BA000F894EE89FF896083E889F98980818370F0
:100BB000806480839FBF81E090E0DF91CF911F919F
:100BC0000F91FF90EF900895F62E0B8D10E00F5FC0
:100BD0001F4F0F731127E02E8C8D8E110CC00FB696
:100BE00007FCFACFE889F989808185FFF5CFCE012E
:100BF0000E949B05F1CFEB8DEC0FFD2FF11DE35A09
:100C0000FF4FF0829FB7F8940B8FEA89FB898081B0
:100C10008062CFCF0F931F93CF93DF938C01D0E0EF
:100C2000C0E0F801EC0FFD1F6491662341F08AE5F6
:100C300094E00E94BD05892B11F02196F2CFCE01E0
:100C4000DF91CF911F910F910895CF93DF93EC0126
:100C5000888D8823B9F0AA89BB89E889F9898C91A4
:100C600085FD03C0808186FD0DC00FB607FCF7CF60
:100C70008C9185FFF2CF808185FFEDCFCE010E9460
:100C80009B05E9CFDF91CF910895089520916E03E0
:100C9000260F3327331F21323105ECF42091300425
:100CA000FC0190E080E0243069F082E00895A0919A
:100CB0006E032191AC01425B5C4FA40FB52FB11DB7
:100CC0002C930196861798F380916E03680F6093BA
:100CD0006E0380E0089581E008951092300481E071
:100CE00080932F0410920A0461E082E10E94E903DC
:100CF00061E083E10E94E903E9EBF0E080818E7F0F
:100D0000808380818D7F808388E48093B80085E430
:100D10008093BC0008951092090410920804109268
:100D20003704109259040E946D0682E793E0909375
:100D300007048093060483E793E09093050480936F
:100D400004040895CF93DF9391E090934D0388239B
:100D5000B9F0C091B800D091BA008091BC008A7BF4
:100D60008093BC0060E082E10E94E90360E083E1DF
:100D70000E94E9030E946D06D093BA00C093B800A8
:100D8000DF91CF910895CF92DF92EF92FF920F9370
:100D90001F93CF93DF93D091590481E0D13208F0B3
:100DA0009CC0C09158040E9453046B017C01809147
:100DB000300481116CC082E08093300481E0809324
:100DC0002F048FEF80932E0410922D04D0932C04C7
:100DD000A8E3B4E0ECE0F4E080E0D8138DC010921A
:100DE0000B0480910B04CC0FC82BC0930B04809193
:100DF0000A04813009F084C010920A040E9453044E
:100E00006B017C0180910B048093BB0080913204C4
:100E100090913304A0913404B0913504892B8A2B2E
:100E20008B2BA1F00E9453040091320410913304E3
:100E300020913404309135046C197D098E099F0985
:100E4000061717072807390708F442C08091BC002D
:100E500083FDD8CF85EC8093BC000E9453046B01C6
:100E60007C0180913004823009F44CC080912E04C2
:100E70008F3F09F469C080912E04803209F466C066
:100E800080912E04803309F463C084E026C08091F1
:100E9000320490913304A0913404B0913504892B2D
:100EA0008A2B8B2B09F483CF0E94530400913204C8
:100EB0001091330420913404309135046C197D096C
:100EC0008E099F09061717072807390708F06FCF03
:100ED000809131040E94A20685E01092370410929E
:100EE000590410923604DF91CF911F910F91FF901A
:100EF000EF90DF90CF9008959D9191938F5F6DCF8C
:100F000085EEA9CF8091320490913304A0913404EE
:100F1000B0913504892B8A2B8B2B09F4A2CF0E9428
:100F20005304009132041091330420913404309121
:100F300035046C197D098E099F09061717072807C4
:100F4000390708F08ECFC4CF80E0C7CF82E0C5CF8D
:100F500083E0C3CF0895E091090480910804E81765
:100F600030F4F0E0E35DFC4F808190E008958FEF76
:100F70009FEF089590910904809108042FEF3FEFAF
:100F8000981748F4E92FF0E0E35DFC4F208130E052
:100F90009F5F90930904C90108958091080490917E
:100FA0000904891B990B0895CF92DF92EF92FF926B
:100FB0000F931F93CF93DF937C01CB018A01209184
:100FC0003604222389F0EB016B01C40ED51ECC152B
:100FD000DD0569F06991D701ED91FC910190F081F7
:100FE000E02DC7010995F3CF642F0E944606C80182
:100FF000DF91CF911F910F91FF90EF90DF90CF90F5
:101000000895CF93DF931F92CDB7DEB76983209108
:1010100036042223F9F020915904203258F021E0BF
:1010200030E0FC013383228390E080E00F90DF9179
:10103000CF91089580913704E82FF0E0E85CFB4FF2
:10104000998190838F5F809337048093590481E066
:1010500090E0ECCF61E0CE0101960E944606F7CF0A
:101060000F931F93CF938C01C62FFC0184810E94A4
:101070006803F80167816C2B87EF94E00E940108F8
:10108000CF911F910F910C94C30690E080E00895DA
:10109000FC018091CF038430D9F42091CA032053FE
:1010A0008AE09091CB039053289F900D1124908358
:1010B0002091CC0320539091CD039053289F900D05
:1010C0001124DB019C938081883110F49C3310F053
:1010D00080E0089581E008958093F5031092CF0396
:1010E0001092CA0381E08093020108951092DF03F9
:1010F000E091E103E330B8F4E093E00384E0E89F9B
:10110000F0011124E053FC4F81819281A381B481CD
:101110008093970390939803A0939903B0939A03B5
:1011200082E00C946C0883E0E330D9F384E0E4308F
:10113000C1F385E0F6CFFC018091CF039091CA0303
:10114000811101C09FE590839091CB03823008F418
:101150009FE591839AE392839091CC03833008F4C6
:101160009FE59383843028F08091CD03848315829A
:1011700008958FE5FBCF80E480937C0080917A0016
:10118000806480937A0080917A0086FDFCCFA091E4
:101190007800B091790024E630E00E94BB1E2FEF6A
:1011A00033E040E050E00E94FA1D822F089590E065
:1011B0002091F303B091F203FC01EE0FFF1FEE0F3D
:1011C000FF1FE053FC4F3181ACE3628170E03A9F36
:1011D000600D711D11243381880F991F880F991F8D
:1011E000FC01EC52FC4F408150E03A9F400D511DF4
:1011F00011244617570761F030E0BA9F200D311DCA
:1012000011246417750730F481E02617370730F48E
:1012100080E0089581E02617370718F42417350772
:10122000B8F70895CF93C82F8091F0030E94680308
:1012300060E887EF94E00E9401086C2F87EF94E04C
:101240000E940108CF910C94C3060F931F93CF9374
:10125000DF938B0181111FC080E80E9412098091E9
:10126000F0030E94680360E487EF94E00E940108A5
:10127000E801005F1F4F6991662339F087EF94E022
:101280000E940108C017D107B1F7DF91CF911F91DC
:101290000F910C94C30680ECE0CF0F931F93CF9374
:1012A000DF93D82F162F042F88E60E94680360E092
:1012B00087EF94E00E940108CAE0802F6C2F0E9403
:1012C000811E682F660F680F660F600F87EF94E02E
:1012D0000E940108812F6C2F0E94811E682F660FCB
:1012E000680F660F610F87EF94E00E9401088D2F51
:1012F0006C2F0E94811E682F660F680F660F6D0F9E
:1013000087EF94E00E940108DF91CF911F910F9128
:101310000C94C306E2EFF3E04281618180810C947A
:101320004D09CF93DF93D82FC8E06D2F661F662736
:10133000661F83E00E94E903DD0F61E081E10E9406
:10134000E90360E081E10E94E903C15071F7DF9198
:10135000CF9108951F93CF93DF939C01C3E620376D
:1013600087E1380730F4C9016CE370E00E948D1EFC
:10137000C62FC9016CE370E00E948D1ED82F60E07B
:101380008DE00E94E9031AE08D2F612F0E94811EDB
:10139000D82FE92FF0E0E75DFE4F80810E94910990
:1013A000ED2FF0E0E75DFE4F80810E9491098C2FC8
:1013B000612F0E94811EE92FF0E0E75DFE4F9081D2
:1013C00080910401811180E8892B0E9491098C2F62
:1013D0006AE00E94811EE82FF0E0E75DFE4F808109
:1013E0000E94910961E08DE0DF91CF911F910C94F3
:1013F000E9030F931F93CF938C01C62FC42B6C2F3F
:1014000064600E9430086C2FC8010E94300883EC91
:1014100090E00197F1F7CF911F910F9108950F93ED
:101420001F93CF93DF938C01C62FD42F607F0E9430
:10143000F90980E1C89FB00111244D2FC801DF9147
:10144000CF911F910F910C94F90941E00E940F0A6E
:1014500081E090E00895CF92DF92EF92FF920F9398
:101460001F93CF93DF9388E60E94680360E087EFC5
:1014700094E00E9401080E94C3060E9453046B017D
:101480007C0180913004811165C081E0809330043B
:1014900080932F049FEF90932E0410922D0492E0DE
:1014A00090932C0480930B0480910B04806D8093A7
:1014B0000B0480910A04813009F087C010920A045D
:1014C0000E9453046B017C0180910B048093BB004C
:1014D0008091320490913304A0913404B09135048A
:1014E000892B8A2B8B2BA1F00E945304009132048C
:1014F0001091330420913404309135046C197D0926
:101500008E099F09061717072807390708F443C0F3
:101510008091BC0083FDD8CF85EC8093BC000E94F5
:1015200053046B017C0180913004813009F44FC079
:1015300080912D04833008F06CC080912D04ACE0C4
:10154000B4E0EDE2F3E090E0981751F12D91219392
:101550009F5FFACF8091320490913304A0913404BC
:10156000B0913504892B8A2B8B2B09F48ACF0E94EA
:1015700053040091320410913304209134043091CB
:1015800035046C197D098E099F090617170728076E
:10159000390708F076CF809131040E94A20680E0DE
:1015A00010920904809308048330A8F510929303E5
:1015B0001092940310929503DF91CF911F910F9198
:1015C000FF90EF90DF90CF90089585EEA6CF8091A9
:1015D000320490913304A0913404B0913504892BE6
:1015E0008A2B8B2B09F49FCF0E9453040091320465
:1015F0001091330420913404309135046C197D0925
:101600008E099F09061717072807390708F08BCF9F
:10161000C2CF83E094CF87EF94E00E94BA07D82F1F
:1016200087EF94E00E94BA07C82F87EF94E00E94EA
:10163000BA07282FDF776D2F70E044E07595679526
:101640004A95E1F7962F990F990FE62FE91BEE0FB8
:10165000ED0FCF774C2F50E064E0559547956A9594
:10166000E1F7942F990F990F491B440F4C0F26FF58
:101670001DC0922F9F71692F70E034E075956795BA
:101680003A95E1F7862F880F880F362F381B832F66
:10169000880F890F6CE00E94811E25FD945F909356
:1016A000930340939403E093950386CF822F8F7327
:1016B000282F30E094E0359527959A95E1F7922F01
:1016C000990F990F522F591B952F990F980FE7CF0C
:1016D0000F931F93CF93DF93CDB7DEB761970FB60C
:1016E000F894DEBF0FBECDBF0E942B0AE3E9F3E002
:1016F00082811F928F9381811F928F9380811F928D
:101700008F9384E891E09F938F931F9281E18F9351
:101710008E010F5F1F4F1F930F930E94EE1FB801A2
:1017200081E00E9425090FB6F894DEBF0FBECDBF41
:1017300061960FB6F894DEBF0FBECDBFDF91CF919B
:101740001F910F910895FB0101900020E9F7319757
:10175000AF01461B570BDC01ED91FC910280F38138
:10176000E02D0994CF93DF930E940A06EC016BE908
:1017700071E08AE594E00E94A30B8C0F9D1FDF911E
:10178000CF910895CF93C82F8091E50390E0C111C8
:1017900036C00297B1F160E089E00E94E90360E0A1
:1017A0008AE00E94E9038AE009C060E089E00E94C3
:1017B000E90360E08AE00E94E90389E061E00E94B9
:1017C000E90382E0C11181E08093E503C093E40363
:1017D0000E94AA046056704F8F4F9F4F60939B03E7
:1017E00070939C0380939D0390939E038AE091E005
:1017F000CC2311F084E291E0CF910C94B20B0197CD
:10180000A1F6CF91089560E089E00E94E90360E0CD
:101810008AE00E94E9038091E503882321F087EEA6
:1018200090E00E94B20B1092E5030895CF9390913F
:10183000E203981781F0C82F8093E203682F88E0B5
:101840000E94E90385EB90E0CC2311F08DEC90E051
:10185000CF910C94B20BCF9108958F929F92AF923B
:10186000BF920F931F93CF93DF93CDB7DEB7A197AE
:101870000FB6F894DEBF0FBECDBF19A2423008F4F8
:101880004AE08E010F5D1F4F842E912CB12CA12CAC
:10189000A50194010E94501EE62FB901CA01EA3049
:1018A00004F5E05DD801EE938D01232B242B252B2D
:1018B00079F790E080E0109729F0BD018AE594E087
:1018C0000E94A30BA1960FB6F894DEBF0FBECDBF4A
:1018D000DF91CF911F910F91BF90AF909F908F900C
:1018E0000895E95CDFCF6F927F928F929F92AF92C3
:1018F000BF92CF92DF92EF92FF920F931F93CF93FD
:10190000DF93CDB7DEB7AA970FB6F894DEBF0FBE50
:10191000CDBF682EFE01769680E06F01DB019D91C0
:10192000BD01911109C0F601E80FF11D90E28F5F32
:1019300091938431E1F704C091938F5F843171F703
:101940001AA6B4E16B9E7001112490E09701235216
:101950003D4F5901E92FF0E046018E0E9F1EA50173
:101960004E0F5F1FD4012C91DA018C91281318C0FF
:101970009F5F943178F3AA960FB6F894DEBF0FBE3E
:10198000CDBFDF91CF911F910F91FF90EF90DF902E
:10199000CF90BF90AF909F908F907F906F90089561
:1019A000EE0DFF1DE352FD4F9E012F5F3F4F792E3D
:1019B00080E08901D4014D914D015081451308C04B
:1019C000B3E17B1671F0D4016C915181651749F038
:1019D0008F5FD9014D939D0141937394B4E17B12C4
:1019E000E9CFF801E80FF11D1082809091039090EB
:1019F0009203D4011696EC916E16C0F0E150D4011A
:101A000015968C91981710F09FEF980FE80DF92D0F
:101A1000F11D6185690F606840E0C4010E940F0AF2
:101A2000B801C4010E94A30B972DA3CFE62DE7CFE9
:101A300085ED8093BC008091320490913304A09195
:101A40003404B09135040796A11DB11D23E0B6956D
:101A5000A795979587952A95D1F72091BC0024FDED
:101A600003C0109230040895409132045091330421
:101A70006091340470913504452B462B472B69F354
:101A80000097A105B10541F02AE22A95F1F700C0BF
:101A90000197A109B109E1CF809131040C94A2060C
:101AA0000F931F93CF938B01C42F44E150E0BC01EF
:101AB00085EB93E00E941F1B1092C90344E150E0A4
:101AC000B80180EA93E00E941F1B1092B403C093F8
:101AD000EB030E94AA046C5E7A4F8F4F9F4F609376
:101AE000EC037093ED038093EE039093EF0386E095
:101AF0008093F50381E080930201CF911F910F91B4
:101B00000895FF920F931F93CF93DF9300ED13E09F
:101B1000D0E0C0E0F801F1908F01CE010E94E41DF9
:101B2000F81621F06F2DCE010E94EC1D2196CF30CA
:101B3000D10581F7DF91CF911F910F91FF9008950B
:101B40001F920F920FB60F9211242F933F938F93F2
:101B50009F93AF93BF938091FC039091FD03A0915D
:101B6000FE03B091FF033091FB0323E0230F2D37D9
:101B700058F50196A11DB11D2093FB038093FC0332
:101B80009093FD03A093FE03B093FF0380910004A4
:101B900090910104A0910204B09103040196A11D4B
:101BA000B11D8093000490930104A0930204B093AC
:101BB0000304BF91AF919F918F913F912F910F900F
:101BC0000FBE0F901F90189526E8230F0296A11DB7
:101BD000B11DD2CF1F920F920FB60F9211242F93E7
:101BE0003F934F935F936F937F938F939F93AF93A5
:101BF000BF93EF93FF938AE594E00E949B05FF91CA
:101C0000EF91BF91AF919F918F917F916F915F9174
:101C10004F913F912F910F900FBE0F901F901895ED
:101C20001F920F920FB60F9211242F938F939F93B1
:101C3000EF93FF93E0916A04F0916B048081E0914F
:101C40007004F091710482FD1BC090818091730437
:101C50008F5F8F7320917404821741F0E0917304B9
:101C6000F0E0E65AFB4F958F80937304FF91EF915C
:101C70009F918F912F910F900FBE0F901F901895ED
:101C80008081F4CF1F920F920FB60F9211242F93E1
:101C90003F934F935F936F937F938F939F93AF93F4
:101CA000BF93EF93FF938091B900887F803609F44A
:101CB0004AC0F0F5883209F4A7C018F5803109F45C
:101CC0009BC0B8F4882309F4F9C0883009F494C0A3
:101CD000FF91EF91BF91AF919F918F917F916F9104
:101CE0005F914F913F912F910F900FBE0F901F90DA
:101CF0001895883109F488C0803251F780932E04FA
:101D000014C0803409F49DC040F48033B9F38833A3
:101D1000F9F680932E0485ECB0C0803509F485C0B7
:101D2000883509F496C0883499F60E94180DD0CFF2
:101D3000883909F48CC038F5883729F050F4883692
:101D400011F0803729F683E08093300410929003DD
:101D500057C0883809F47BC0803919F0803809F001
:101D6000B7CF80919003803208F071C0E09190036A
:101D700081E08E0F809390038091BB00F0E0E059EA
:101D8000FC4F80833DC0803B39F0E0F4803A09F499
:101D900079C0883A09F09CCF84E080933004109297
:101DA0006F0310926E03E0910604F0910704099509
:101DB00080916E0381110FC081E080936E031092B9
:101DC0004E0309C0803C09F4A6CF883C09F4A3CF98
:101DD000883B09F07DCFE0916F0381E08E0F809307
:101DE0006F03F0E0E25BFC4F80818093BB00909139
:101DF0006F0380916E0329C080910B048093BB0018
:101E000085EC8093BC0064CF90912D0480912C04CC
:101E1000981758F5E0912D0481E08E0F80932D04E2
:101E2000F0E0E45FFB4F8081E9CFE0912D0481E099
:101E30008E0F80932D048091BB00F0E0E45FFB4F98
:101E4000808390912D0480912C049817C8F285E826
:101E5000D8CFE0912D0481E08E0F80932D048091E6
:101E6000BB00F0E0E45FFB4F808380912F04811181
:101E70005CCF81E080930A0484EA8093BC001092D6
:101E8000300426CF85EC8093BC0010923004809102
:101E90009003803230F4E0919003F0E0E059FC4F81
:101EA00010826091900370E0E0910404F0910504C9
:101EB00080E793E00995109290030ACF10922E04C8
:101EC00034CF1F920F920FB60F9211248F9381E09F
:101ED0008093FA038091DC028F5F8093DC0284366A
:101EE00058F01092DC028091F9038F3F29F0809125
:101EF000F9038F5F8093F9038F910F900FBE0F90BE
:101F00001F90189510925D0410925C0488EE93E087
:101F1000A0E0B0E080935E0490935F04A09360041F
:101F2000B09361042AE531E030935B0420935A04B6
:101F300025EC30E0309367042093660424EC30E015
:101F4000309369042093680420EC30E030936B04F4
:101F500020936A0421EC30E030936D0420936C04EC
:101F600022EC30E030936F0420936E0426EC30E0D6
:101F700030937104209370041092730410927404CF
:101F800010927504109276041092FA041092F904DB
:101F90008093FB049093FC04A093FD04B093FE0493
:101FA0008CE691E09093F8048093F7041092050575
:101FB000109209051092080510920A058EE791E02B
:101FC0009093040580930305EFE1F5E010821482FD
:101FD00013821582369685E0EB35F807B9F78BE06A
:101FE00091E0909366058093650587E091E090937A
:101FF00068058093670584E08093690580936A058E
:102000008FE091E090936405809363058AE090E00F
:1020100090936C0580936B0584EF91E090936E052F
:1020200080936D05109271051092700510925F05F6
:1020300010926005109261051092620510926F0572
:102040000895CF93DF93CDB7DEB7C057D1090FB650
:10205000F894DEBF0FBECDBF789484B5826084BD96
:1020600084B5816084BD85B5826085BD85B581609C
:1020700085BD80916E00816080936E00109281001A
:1020800080918100826080938100809181008160D5
:102090008093810080918000816080938000809196
:1020A000B10084608093B1008091B0008160809322
:1020B000B00080917A00846080937A0080917A00E9
:1020C000826080937A0080917A00816080937A00A8
:1020D00080917A00806880937A001092C10014B7D2
:1020E00014BEE0916A04F0916B0482E08083E09179
:1020F0006604F09167041082E0916804F09169042D
:102100008FEC808310927204E0916E04F0916F0462
:1021100086E08083E0916C04F0916D0480818061A1
:102120008083E0916C04F0916D04808188608083ED
:10213000E0916C04F0916D04808180688083E0916F
:102140006C04F0916D0480818F7D808381EB92E03F
:102150000E940A0610FF04C086EA92E00E940A0666
:1021600011FF04C08BE992E00E940A0612FF04C02E
:1021700080E992E00E940A0613FF04C086E892E01C
:102180000E940A061F7021F486E692E00E940A0669
:102190006BE971E08AE594E00E94A30B61E083E0C3
:1021A0000E94170461E081E10E94170461E08DE064
:1021B0000E94170460E08DE00E94E9038FEF0E9407
:1021C00091098FEF0E9491098FEF0E9491098FEF83
:1021D0000E94910961E08DE00E94E90361E087E0DF
:1021E0000E94170461E088E00E94170461E089E022
:1021F0000E94170461E08AE00E9417040E94030C09
:102200000E948B068091250190912601A0912701C3
:10221000B091280189839A83AB83BC838E010F5FC1
:102220001F4F7E0125E0E20EF11C1801F801D1904C
:102230008F018D2D0E9468030E94C306882329F018
:102240000E151F0599F7B8E3DB2E8DE090E00E9494
:10225000C21E7C01FC011382128287E391E091830C
:102260008083D48284E1858394E09683A8E0CA2E9B
:10227000C7829087118690E49287838784E584875C
:10228000F0929203E09291030E948B0662E370E069
:1022900080E090E00E94780460E0C7010E9430086E
:1022A0006AE070E080E090E00E94780440E060E343
:1022B000C7010E94F9090BE416E4C8010197F1F780
:1022C00040E060E3C7010E94F909C8010197F1F7F6
:1022D00040E060E3C7010E94F90983E592E00197BD
:1022E000F1F740E060E2C7010E94F90940E068E2CE
:1022F000C7010E940F0AF7016085686040E0C701CE
:102300000E940F0A40E061E0C7010E940F0A62E0EC
:1023100070E080E090E00E94780440E066E0C70151
:102320000E940F0AF701C78260E0C7010E943008CF
:102330008CE592E00E940A066D2D70E090E080E04E
:1023400040E10E942D0C6BE971E08AE594E00E9467
:10235000A30B63ED71E081E00E94730C63EE71E00A
:1023600082E00E94730C8EE30E946803FEE3DF1696
:1023700039F00E94C306811103C08EE38093F003FD
:1023800010E20091F00301110C94811A103411F441
:102390000C94FA1AD11669F088ED810F803148F05B
:1023A000812F0E9468030E94C306811102C010930E
:1023B000F0031F5FE6CF40E067E385E00E944D0930
:1023C00087EC91E00E94B20B0E942B0A809193034C
:1023D00090919403A09195038093F2039093F3035B
:1023E000A093F4038091F00381110E94680B0E9476
:1023F000BB088093E60389EA91E00E94B20B20912A
:10240000DD039091E60381E0921708F480E0809369
:10241000E20381E0921708F080E00E94160C82E04F
:102420000E94D70891E0892780939F038EE891E06E
:102430000E94B20B6CE271E080E090E00E947804B0
:10244000F894109280008BE08093810083EC99E0F7
:1024500090938900809388001092850010928400E8
:1024600082E080936F0078948091F6039091F70357
:102470000E94AA0981E691E00E94B20B9E01275BAF
:102480003F4FAE963FAF2EAFAE97CE018F599F4FC5
:10249000AC969FAF8EAFAC978091FA0381110BC0C1
:1024A00083B7817F83BF83B7816083BF889583B7FC
:1024B0008E7F83BFF1CF1092FA03F8941091F90345
:1024C0001092F9037894112309F4CFC0B09005015C
:1024D000A0900601212F30E0AB2DBA2D0E94721E74
:1024E0006B017C012091F20330E0A0E1BEE00E948C
:1024F000721E2B013C014C0C5D1C6E1C7F1C8091DC
:10250000F403480E511C611C711C2091F30330E050
:10251000ACE3B0E00E94721E640D751D861D971D10
:1025200020E831E541E050E00E94501E2B013C01C3
:1025300020E13EE040E050E00E94501E022F932E2A
:102540002093F203C301B2012CE330E040E050E0FD
:102550000E94501E862E772ECA01B9012CE330E06E
:1025600040E050E00E94501E6093F3038092F40319
:102570008091F8038823C9F08091F6039091F703C6
:10258000C80ED91EE11CF11C90E7C91697E1D906C7
:10259000E104F10430F0EFE6CE2EE7E1DE2EE12C8F
:1025A000F12CD092F703C092F6038091040191E0E0
:1025B0008927809304018091F5031F928F93AF9236
:1025C000BF927F928F927F936F939F920F938DE034
:1025D00092E09F938F931F9288E28F933F922F9266
:1025E0000E94EE1FB1018AE594E00E94A30B6BE903
:1025F00071E08AE594E00E94A30B8091F60390912C
:10260000F7030E94AA098091F103180F1093F103B8
:102610000FB6F894DEBF0FBECDBF8091F0038823C4
:1026200051F08091050190910601029710F00E94EF
:102630008A090E94680B8091F1038C33B0F01092EC
:10264000F10380910501909106010197F1F50E9437
:102650002B0A8091930390919403A091950380930A
:10266000F2039093F303A093F40381E080936F054A
:102670000E94AA0400915F051091600520916105F8
:1026800030916205AB01BC01401B510B620B730B17
:1026900080916B0590916C05B0E0A0E084179507E0
:1026A000A607B70708F02DC110E08091690518173B
:1026B00078F4E0916505F0916605E10FF11D62E0A7
:1026C00080810E9417041F5FF0CF0E948A09CDCF3E
:1026D000912C80916A05981608F063C0E92CF12CC2
:1026E000E0916705F0916805EE0DFF1D61E08081C6
:1026F0000E941704E0916705F0916805EE0DFF1D3B
:1027000060E080810E94E90381E090E0A0E0B0E019
:10271000092C04C0880F991FAA1FBB1F0A94D2F767
:102720005C016C01C094D094812C8091690588165D
:1027300008F5082D10E0E0916505F0916605E00FC1
:10274000F11F80810E94C0030C5F1F4F000F111FFB
:10275000F801ED5FFA4F892B41F4808191818A293C
:102760009B29918380838394E0CF808191818C2108
:102770009D21F7CFE0916705F0916805EE0DFF1DF3
:1027800061E080810E94E90380916705909168056E
:10279000E80EF91E60E0F70180810E94170493940F
:1027A00098CF53E0E52E55E0F52EF701878D90A1E7
:1027B000892B31F4148E2FEF3FEF368F258F11A226
:1027C000369635E0EF33F30789F7D12C46E0B42E87
:1027D00080916905D81608F050C0C12C0D2D10E06D
:1027E000000F111F055F1A4F20916A05C21608F0ED
:1027F00042C0F801608171810C2C02C0769567950A
:102800000A94E2F7D29E900111242C0D311DE3E0D1
:10281000F5E080E0458D568D2417350709F4EFC6A5
:102820008F5F36968A30B1F760FF23C0E3E0F5E0B2
:1028300090E080E0448D411117C0E0916305F09174
:102840006405E20FF31F4081B89EF001B99EF00DC0
:102850001124ED5FFA4F448F368F258F10A2178E0B
:1028600061E00E94B60405C0019636968A30910553
:1028700009F7C394B9CFD394ABCF10E0F70181A18E
:102880008111182FF6E0EF0EF11C2FE3E21625E080
:10289000F206A1F70E94AA0460935F057093600599
:1028A00080936105909362058091F503112349F1AE
:1028B00090912405992329F1209122053091230537
:1028C00021303105F1F490911F0591111DC08091C7
:1028D000F503863009F0E9C10E94AA040091EC03D7
:1028E0001091ED032091EE033091EF03601B710B0B
:1028F000820B930B97FDD9C18091EB030E946C086A
:10290000D4C110926F05E3CF863031F321E02093DC
:1029100002018530A8F4823008F08EC08823C1F10E
:102920008130A9F6923409F06EC08091E10390E005
:10293000019666E070E00E94A11E8093E103C7CF7C
:10294000853029F68FEC890F843008F0ABC1E92F70
:10295000EE0FFF0BE451FF4F008111811093060130
:10296000009305018FEB93E00E940A06B80190E006
:1029700080E04AE00E942D0C6BE971E08AE594E06A
:102980000E94A30B40E06BEA73E08CEA93E099C0ED
:10299000913421F41092E10381E005C0923431F4C6
:1029A0001092DF0384E00E946C0891CF85E093349D
:1029B000D1F39434C9F48091E30390E0019663E08D
:1029C00070E00E94A11E8093E303882339F08130D8
:1029D00041F48DED93E00E94B20B79CF82E194E057
:1029E000FACF87EF93E0F7CF81E0913319F092337C
:1029F00021F480E00E94C20B6ACF903309F055C1E8
:102A00000E94030C64CF933429F48091E10390E099
:102A100005968FCF8FEC890F863028F48093E103E1
:102A20000E94760854CF9B34D9F3983519F091342D
:102A300009F03BC180E0B7CF23E0833009F024E008
:102A400030ED390F3A3098F4E091CF03E21708F0F7
:102A50002CC181E08E0F8093CF03F0E0E653FC4F52
:102A60009083E82FF0E0E653FC4F108230CF98358A
:102A700081F4E091CF03EE2321F0E150E093CF0306
:102A8000F1CF9091DF03913009F086CF1092DF03F0
:102A90008ACF9B3409F009C1833009F48AC0BE0192
:102AA0006F597F4F843009F4D7C0CE0187599F4FAB
:102AB0000E944808811108C042E06EE873E08DE989
:102AC00093E00E94500D03CFAA969FADAA97A296BD
:102AD0008FADA2972091DF03211109C09093970336
:102AE0008093980381E08093DF0382E05CCF909332
:102AF000990380939A03E091E00334E0E39FF001AF
:102B00001124E053FC4F8091970390919803A0917A
:102B10009903B0919A0381839283A383B4830E9423
:102B2000810D86E893E00E940A06E091E003F0E060
:102B3000EE0FFF1FED5EF94F859194910E940A06FA
:102B400080919A031F928F93809199031F928F9384
:102B5000809198031F928F93809197031F928F9378
:102B60008EE292E09F938F931F9288E18F9381E092
:102B700090E08C0F9D1F9F938F930E94EE1FBE01CC
:102B80006F5F7F4F8AE594E00E94A30B6BE971E0D1
:102B90008AE594E00E94A30B41E06CE773E08DE7C7
:102BA00093E00E94500D0FB6F894DEBF0FBECDBF6C
:102BB0008ECE8091CF03882309F489CE8AEC93E0EE
:102BC0000E94011B9091DF0391110FC0843630F0F9
:102BD00043E066E673E08DE693E073CF809396035F
:102BE00081E08093DF0383E0DECE90919603981717
:102BF00010F4853630F043E063E473E086E593E05B
:102C000060CF9093DD038093DE030E94810D87E205
:102C100093E00E940A066091DD0370E090E080E09E
:102C20004AE00E942D0C6FE28AE594E00E94BD0507
:102C30006091DE0370E090E080E04AE00E942D0C9D
:102C40006BE971E08AE594E00E94A30B41E06DE13D
:102C500073E08EE193E035CFCE0187599F4F0E94FC
:102C60004808811106C044E060E073E08FE093E023
:102C700028CFAA968FADAA978093F203A2966FAD44
:102C8000A2976093F3031092F40340E00E944D0971
:102C900083EE92E00E94B20B40E064ED72E085EDBD
:102CA00092E00FCF983509F477CE8091E503882321
:102CB000E1F00E94AA0400919B0310919C032091D3
:102CC0009D0330919E03601B710B820B930B97FD4C
:102CD0000CC01091E4030E94030C80E494E01111F5
:102CE00002C087E294E00E94B20B0E94AA04009105
:102CF000E7031091E8032091E9033091EA03601B98
:102D0000710B820B930B643F71408105910508F4B0
:102D1000B2C00E94AA046093E7037093E803809313
:102D2000E9039093EA030E94BB088093E60380E0E6
:102D30000E94D708182F811104C081E00E94D70893
:102D4000182F8091F8031817C9F01093F80360E06A
:102D5000112349F01092F7031092F60390E080E0FF
:102D60000E94AA0961E087E00E94E90380E794E0FD
:102D7000111102C089E594E00E94B20B8091E30337
:102D8000813009F096C081E00E94160C82E00E941A
:102D9000D70890919F03891721F080939F030E9489
:102DA000C20B8091F30390910301891709F45CC071
:102DB000809303019091E6031F929F939091F403F7
:102DC0001F929F931F928F938091F2031F928F9374
:102DD00085E492E09F938F931F9280E38F933F92BD
:102DE0002F920E94EE1FB1018AE594E00E94A30B8E
:102DF0008BED94E00E940A060FB6F894DEBF0FBE7A
:102E0000CDBF8091F803882309F464C080ED94E07D
:102E10000E940A0683ED94E00E940A068091E20374
:102E2000882309F45AC089EC94E00E940A06809134
:102E3000E303811155C084EB94E00E940A068BEBFA
:102E400094E00E940A068091E503813009F44BC0AA
:102E5000823009F44BC08091E403882309F449C00F
:102E600089E894E00E94B20B8091F5038B7F19F4FE
:102E700081E08093020180910201882309F42FC12F
:102E8000109202011982198E19AA2A961FAE2A974A
:102E9000E091F503E73008F00CC1F0E0EE5AF84E8F
:102EA0000C94B51E7C17C81804199119F1193C1A15
:102EB000741A823011F480E067CF8091E60390911C
:102EC000DD03891708F45FCF9091DE03981708F0AF
:102ED0005DCFF1CF8CEC94E09BCF85EC94E0A5CF57
:102EE0008BEA94E0AACF82EA94E0BCCF81E994E037
:102EF000B9CF8AE994E0B6CF8091E503813099F0AB
:102F000007EA602E01E0702E823089F08091E403A0
:102F100090EB692E91E0792E811109C018EB612E9A
:102F200011E0712E04C08EE9682E81E0782E509059
:102F3000F3034090F203852D90E03CE3439E800D27
:102F4000911D1124EFEFFFEFF0930101E0930001D9
:102F5000F0EDEF2EF3E0FF2EAF961FAEAF97AA2451
:102F6000AA94BA2CB0EA8B2EB5E09B2E9401281BB4
:102F7000390BE1963FAF2EAFE197F70181810281D6
:102F800010E0FCE38F9F000D111D1124F7018381D8
:102F9000C480D12CFCE38F9FC00CD11C11240C15D4
:102FA0001D0509F4BAC0AF968FADAF970E94D70840
:102FB000882309F4A1C0D0920101C0920001809140
:102FC000F4031F928F931F925F921F924F928091F2
:102FD00006018F93809105018F9382E692E09F9383
:102FE0008F931F9288E18F933F922F920E94EE1F42
:102FF0000FB6F894DEBF0FBECDBF8091E30321E48E
:1030000081112DE48091E203882309F494C080ECBF
:1030100091E01F922F939F938F938091E6031F92CD
:103020008F938EE792E09F938F931F9218E11F93E7
:10303000CE0149969F938F930E94EE1F7F926F92CD
:1030400086E992E09F938F931F921F93CE01C196C2
:103050009F938F930E94EE1F809100019091010138
:103060000FB6F894DEBF0FBECDBF2091F8038F3F9F
:10307000980709F063C080EC91E0211102C083EC55
:1030800091E09F938F9381EA92E09F938F931F9299
:1030900088E18F93AE962FADAE972F93AD963FAD4F
:1030A000AD973F930E94EE1F0FB6F894DEBF0FBEA0
:1030B000CDBFB10180E00E94730CBE01675E7F4FFF
:1030C00081E00E94730CBE016F5C7F4F82E00E9422
:1030D000730CBE01675B7F4F83E00E94730C80E03E
:1030E00090E0892B09F4D8C90E948705882309F448
:1030F000D3C90E940000C9C9E1968EAD9FADE1978A
:10310000800F911FB4010E948D1E8A159B0528F423
:1031100010930101009300015C0124E0E20EF11C18
:10312000AF963FADAF97313009F449CF31E0AF965C
:103130003FAFAF9722CF83EC91E06BCF6CE370E0B1
:103140000E948D1E77272223F1F04CEC51E020ECF9
:1031500031E09F938F937F936F935F934F933F9350
:103160002F9382EB92E09F938F931F9288E18F932E
:10317000AE969FADAE979F93AD96EFADAD97EF93A3
:103180000E94EE1F91CF47EC51E023EC31E0E1CFFC
:103190001091E103133008F413E00DEF010F61010A
:1031A0001F5F7BE0E72E76E0F72EE8E1BE2E0630CB
:1031B00010F5802F90E0FC01EE0FFF1FED5EF94F40
:1031C0002591349101964091E1030417D9F040E232
:1031D0003F932F939F938F931F924F93FF92EF9262
:1031E0001F92BF92DF92CF920E94361B0FB6F894C7
:1031F000DEBF0FBECDBF0F5F98E1C90ED11C01131A
:10320000D6CF57CF4EE3E4CF9091E003092F10E0E3
:103210008091DF03923009F06EC0811171C08DEE94
:1032200095E0F801EE0FFF1FED5EF94F2591349107
:103230009F938F933F932F9385E096E09F938F9377
:103240001F9288E18F933F922F920E94361B4091EC
:10325000DF030FB6F894DEBF0FBECDBFC801880FE5
:10326000991F880F991F411151C0FC01E053FC4F79
:10327000228130E0FC01E053FC4F411150C08181BC
:103280003F932F931F928F938BED95E09F938F9396
:103290001F9218E11F93CE0149969F938F930E942E
:1032A000361BCE018F599F4F0E949B08AC96FFADF5
:1032B000AC97FF93AB962FADAB972F9380ED95E036
:1032C0009F938F931F921F93CE01C1969F938F93CD
:1032D0000E94361B8DEB95E09F938F931F921F9357
:1032E000AE963FADAE973F93AD968FADAD978F93B2
:1032F0000E94361BD9CE811106C083EF95E091CF95
:103300008EEF95E08ECF8AEF95E08BCF000F111FE7
:10331000000F111FF801EC52FC4F2081AACF8381CE
:10332000AFCF8091DF03811153C08AEA95E09F936C
:103330008F931F9288E18F933F922F920E94361BAA
:103340000F900F900F900F900F900F908091DF03D0
:10335000811141C08091DD031F928F938BE895E02E
:103360009F938F931F9288E18F93CE0149969F93ED
:103370008F930E94361B0FB6F894DEBF0FBECDBFF1
:103380008091CF03833050F581ED91E09F938F932F
:103390008AEC93E09F938F938EE795E09F938F93B2
:1033A0001F9218E11F93CE01C1969F938F930E94A5
:1033B000361B8BE695E09F938F931F921F93AE96DB
:1033C0003FADAE973F93AD968FADAD978F9390CFB6
:1033D00088E995E0ACCF8091DE03BECF8DE991E026
:1033E000D5CF8EE595E09F938F931F9218E11F93A1
:1033F0003F922F920E94361B8091F4031F928F936D
:103400008091F3031F928F938091F2031F928F9309
:1034100087E495E09F938F931F921F93CE01499667
:103420009F938F930E94361BCE018F599F4F0E940E
:103430009B08AC96FFADAC97FF93AB962FADAB97C7
:103440002F938CE395E09F938F931F921F93CE0150
:10345000C1969F938F930E94361B89E295E09F93BC
:103460008F931F921F93AE963FADAE973F93AD964D
:103470008FADAD978F933CCF85E195E09F938F9370
:103480001F9218E11F933F922F920E94361B80914A
:1034900006018F93809105018F9389E095E09F93BA
:1034A0008F931F921F93CE0149969F938F930E94F3
:1034B000361B86EF94E09F938F931F921F93CE014C
:1034C000C1969F938F930E94361B83EE94E09F9347
:1034D0008F931F921F93AE96FFADAE97FF93AD965D
:1034E0002FADAD972F9304CF65EB73E0CE014996D6
:1034F0000E94E71F60EA73E0CE01C1960E94E71FB9
:10350000D8CD62E370E080E090E00E94780488E328
:103510000E94120965E070E080E090E00E9478046B
:1035200088E30E9412098CE00E94120981E00E9447
:10353000120963E070E080E090E00E94780486E089
:103540000E9412096AEC72E080E00E9425098DE475
:1035500092E00E940A06602F70E090E080E040E177
:103560000E942D0C6BE971E08AE594E00E94A30BA8
:1035700084E192E00E94B20BF0EDEF2EF3E0FF2E1B
:1035800010E000E0C8010E94E41DF70181937F0173
:103590000F5F1F4F0F301105A9F78091D003873AB5
:1035A00079F08FE0EFE3F1E0A0EDB3E001900D9250
:1035B0008A95E1F70E94810D8EE391E00E94B20BA3
:1035C0000E948B0688E60E9468030E94C306882337
:1035D00011F40C94DB118FEE91E00E94B20B63EFBB
:1035E00071E081E00E94730C62E072E082E00E9470
:1035F000730CFFCF8BE292E00E94B20BB9CF6170E7
:1036000030C9FC0188279927E89421912032E9F3F9
:10361000293010F02E30C8F32B3241F02D3239F41E
:10362000689404C00E942E1B820F911D219120538B
:103630002A30C0F31EF4909581959F4F0895FB01A9
:10364000DC014150504048F005900D920020C9F730
:1036500001C01D9241505040E0F708957AE0979FD5
:10366000902D879F802D910D11240895AEE0B0E03C
:10367000ECE3FBE10C94271E0D891E898F89988D40
:103680002EE02C831A83098397FF02C080E090E824
:1036900001979E838D83AE01455E5F4F698D7A8D64
:1036A000CE0101960E94661B4D815E8157FD0AC0C6
:1036B0002F813885421753070CF49A01020F131F0C
:1036C000F80110822E96E4E00C94431EABE0B0E0CB
:1036D000ECE6FBE10C94191E7C013B018A01FC0124
:1036E00017821682838181FFC8C1CE0101965C01D9
:1036F000F7019381F30193FD859193FF81913F0140
:10370000882309F453C1853239F493FD859193FFE1
:1037100081913F01853229F4B70190E00E94561D46
:10372000E7CF912C212C312CFFE1F31538F08B32AF
:1037300011F190F4803209F1833229F137FC3CC059
:1037400020ED280F2A3050F536FE20C08AE0989EE2
:10375000200D1124922E06C08D3291F0803371F726
:10376000689430F8F30193FD859193FF81913F01B7
:103770008111DACF21C0689431F8689432F8F2CF21
:10378000689433F8EFCF689434F8ECCFEAE02E9EDB
:10379000200D1124222E689435F8E4CF8E3229F4BE
:1037A00036FC04C1689436F8DDCF8C3619F4689481
:1037B00037F8D8CF8836B1F2982F9F7D9554933043
:1037C000E0F08336A1F18337C1F1833509F063C09E
:1037D0002801F2E04F0E511CF801C080D180692D04
:1037E00070E036FC02C06FEF7FEFC6010E94401D03
:1037F0004C01689437F882010AC00C5F1F4FFFE349
:10380000F98388248394912C6501E89437F833FE7A
:103810002DC0522C8114910471F5552009F468CF04
:10382000B70180E290E00E94561D5A94F6CFF8014D
:10383000808189830E5F1F4FE4CF2801F2E04F0E95
:10384000511CF801C080D180692D70E036FC02C0A7
:103850006FEF7FEFC6010E944B1D4C018201D5CF57
:10386000B70180E290E00E94561D2A9428141904A2
:1038700009F0B0F7CECFF60137FC859137FE819184
:103880006F01B70190E00E94561D51105A94F1E06B
:103890008F1A9108BFCF843619F0893609F077C0A6
:1038A000F80137FE6BC060817181828193810C5F6A
:1038B0001F4FF32DFF763F2E97FF09C090958095FF
:1038C000709561957F4F8F4F9F4F689437F82AE02E
:1038D00030E0A5010E94861DC82ECA188C2C432CEE
:1038E00036FE0CC0E89440F8C91440F434FE05C01C
:1038F00032FC03C0F32DFE7E4F2E892C44FE95C072
:10390000FE01EC0DF11D8081803309F087C0242D6C
:10391000297E422E842D8870582E43FC95C040FE8F
:103920008FC09C2C821418F42C0C922C981844FEF6
:1039300091C0B70180E390E00E94561D42FE09C08D
:1039400088E790E041FE02C088E590E0B7010E9460
:10395000561DC91408F48AC0CA94D12C9FEFC91A05
:10396000D90ACA0CDB1CF60182916F01B70190E005
:103970000E94561DAC14BD04B1F74FCF6081718118
:10398000072E000C880B990B0E5F1F4F92CFD32C84
:10399000E894D4F82AE030E0853739F1232D297FE7
:1039A000D22E8F3601F148F48835A9F0F7018681CF
:1039B00097812B96E2E10C94351E803749F08837C9
:1039C000A9F7D4FE02C06894D2F820E130E00DC01F
:1039D0006894D4F8F6CF34FE03C0822F8660D82EC8
:1039E00020E132E002C028E030E0F801D7FE0FC04D
:1039F00060817181828193810C5F1F4FA5010E94BC
:103A0000861DC82ECA183D2CE89437F867CF608110
:103A1000718190E080E00E5F1F4FF0CF42FC02C04A
:103A2000839478CF8394839475CF842D867809F41A
:103A300071CFF6CFB70180E290E00E94561D8394CB
:103A40008214C0F3512C73CF522C5818821408F4EE
:103A50006ECFF8CF842D867809F47BCF8BE241FEC0
:103A600080E247FC8DE2B70190E071CFB70180E3BF
:103A700090E00E94561D9A946CCF8FEF9FEF99CFE4
:103A8000FC010590615070400110D8F78095909529
:103A90008E0F9F1F0895FC0161507040019001102E
:103AA000D8F7809590958E0F9F1F08950F931F93C1
:103AB000CF93DF93182F092FEB018B8181FD09C074
:103AC0001FEF0FEF812F902FDF91CF911F910F915B
:103AD000089582FF14C02E813F818C819D8128171B
:103AE00039073CF4E881F981CF01019699838883F5
:103AF00010838E819F8101969F838E83E3CFE8851B
:103B0000F985812F0995892BA1F3DACFFA01AA272C
:103B1000283051F1203181F1E8946F936E7F6E5F10
:103B20007F4F8F4F9F4FAF4FB1E03ED0B4E03CD0BE
:103B3000670F781F891F9A1FA11D680F791F8A1FA1
:103B4000911DA11D6A0F711D811D911DA11D20D008
:103B500009F468943F912AE0269F11243019305DC2
:103B60003193DEF6CF010895462F4770405D4193B3
:103B7000B3E00FD0C9F7F6CF462F4F70405D4A3300
:103B800018F0495D31FD4052419302D0A9F7EACFC8
:103B9000B4E0A6959795879577956795BA95C9F7F7
:103BA00000976105710508959B01AC010A2E0694EA
:103BB0005795479537952795BA95C9F7620F731FA3
:103BC000841F951FA01D0895F999FECF92BD81BD58
:103BD000F89A992780B50895262FF999FECF1FBA34
:103BE00092BD81BD20BD0FB6F894FA9AF99A0FBE26
:103BF00001960895052E97FB1EF400940E94111E55
:103C000057FD07D00E94501E07FC03D04EF40C94C1
:103C1000111E50954095309521953F4F4F4F5F4F66
:103C2000089590958095709561957F4F8F4F9F4F28
:103C300008952F923F924F925F926F927F928F9250
:103C40009F92AF92BF92CF92DF92EF92FF920F932B
:103C50001F93CF93DF93CDB7DEB7CA1BDB0B0FB635
:103C6000F894DEBF0FBECDBF09942A8839884888F2
:103C70005F846E847D848C849B84AA84B984C88488
:103C8000DF80EE80FD800C811B81AA81B981CE0F7F
:103C9000D11D0FB6F894DEBF0FBECDBFED01089564
:103CA000A1E21A2EAA1BBB1BFD010DC0AA1FBB1F40
:103CB000EE1FFF1FA217B307E407F50720F0A21BB2
:103CC000B30BE40BF50B661F771F881F991F1A941F
:103CD00069F760957095809590959B01AC01BD0149
:103CE000CF010895A29FB001B39FC001A39F700DA3
:103CF000811D1124911DB29F700D811D1124911DF4
:103D00000895991B79E004C0991F961708F0961B37
:103D1000881F7A95C9F780950895AA1BBB1B51E1AE
:103D200007C0AA1FBB1FA617B70710F0A61BB70B2B
:103D3000881F991F5A95A9F780959095BC01CD01D0
:103D4000089597FB072E16F4009407D077FD09D04D
:103D50000E948D1E07FC05D03EF4909581959F4FE3
:103D60000895709561957F4F0895EE0FFF1F0590A0
:103D7000F491E02D09940E94721EB7FF0895821BF2
:103D8000930B08950F931F93CF93DF938230910588
:103D900010F482E090E0E0917405F091750530E058
:103DA00020E0B0E0A0E0309799F42115310509F446
:103DB0004AC0281B390B24303105D8F58A819B81F4
:103DC0006115710589F1FB0193838283FE0111C0A6
:103DD000408151810281138148175907E0F048174B
:103DE000590799F4109761F012960C931297139655
:103DF0001C933296CF01DF91CF911F910F910895BF
:103E00000093740510937505F4CF2115310551F019
:103E10004217530738F0A901DB019A01BD01DF0108
:103E2000F801C1CFEF01F9CF909375058093740528
:103E3000CDCFFE01E20FF31F819391932250310900
:103E400039832883D7CF2091720530917305232BB6
:103E500041F4209121013091220130937305209388
:103E6000720520911F01309120012115310541F487
:103E70002DB73EB74091230150912401241B350BEF
:103E8000E0917205F0917305E217F307A0F42E1B81
:103E90003F0B2817390778F0AC014E5F5F4F2417AE
:103EA000350748F04E0F5F1F50937305409372051E
:103EB000819391939FCFF0E0E0E09CCFCF93DF938D
:103EC0000097E9F0FC01329713821282A0917405E9
:103ED000B0917505ED0130E020E01097A1F420814C
:103EE0003181820F931F209172053091730528173D
:103EF000390709F061C0F0937305E0937205DF9113
:103F0000CF910895EA01CE17DF07E8F54A815B817A
:103F10009E0141155105B1F7E901FB83EA834991FF
:103F20005991C40FD51FEC17FD0761F48081918171
:103F30000296840F951FE90199838883828193817A
:103F40009B838A83F0E0E0E012968D919C91139719
:103F50000097B9F52D913C911197CD010296820FF2
:103F6000931F20917205309173052817390739F690
:103F7000309751F51092750510927405B093730542
:103F8000A0937205BCCFD383C28340815181840F3B
:103F9000951FC817D90761F44E5F5F4F88819981DB
:103FA000480F591F518340838A819B819383828369
:103FB0002115310509F0B0CFF0937505E093740534
:103FC0009ECFFD01DC01C0CF13821282D7CFFB014F
:103FD000DC0101900D920020E1F70895AEE0B0E021
:103FE000E4EFFFE10C94271E0D891E898F89988DBF
:103FF00026E02C831A83098397FF02C080E090E8B3
:1040000001979E838D83AE01455E5F4F698D7A8DEA
:10401000CE0101960E94661B4D815E8157FD0AC04C
:104020002F813885421753070CF49A01020F131F92
:10403000F80110822E96E4E00C94431EF894FFCF12
:10404000FFFF01FF013C000B0C100F0204050631BD
:10405000323341343536423738394358304B4400D7
:104060000076058000383F27203F065B4F666D7D58
:10407000077F6F00000000250A1D0545084506A7BB
:104080000600061E1200121E070013001E2D01005E
:104090000A003C002C0100000000BD051D054A057A
:1040A00025067B0559056D05000000000108D407B1
:1040B0004508AA07CD07BA07AB07000000001205A4
:1040C00016051A0520202020253032753A25303279
:1040D000753A2530327520202020000D0A0041421B
:1040E0005249454E444F0043455252414E444F00C1
:1040F00041424945525441004345525241444100D6
:104100004F4E004F46460050726F780046696E2051
:10411000005F0020202053697374656D6120436146
:10412000736100202020496E696369616E646F2E9F
:104130002E2E004552524F523A2073696E2052542F
:10414000430052657669736520493243005B4442FF
:10415000475D20253032753A253032753A253032A8
:1041600075207825752070616E743D2575002025B9
:104170003032753A25303275202D20253032753A8F
:104180002530327500253032753A253032753A25A2
:10419000303275207C204C757A20253375252520FA
:1041A0007C00434153412078252D33752020202564
:1041B0003032753A253032753A25303275004C75FB
:1041C0007A3A2533752525204C756365733A252D7C
:1041D000337320256300436F7274696E613A2573EF
:1041E00000526965676F3A252D3373202D2D3A2DC6
:1041F0002D00526965676F3A252D33732025732092
:10420000253032753A2530327500486F726120646E
:0C421000656C204453313330372000002F
:107E0000112484B714BE81FFF0D085E080938100F7
:107E100082E08093C00088E18093C10086E0809377
:107E2000C20080E18093C4008EE0C9D0259A86E02C
:107E300020E33CEF91E0309385002093840096BBD3
:107E4000B09BFECF1D9AA8958150A9F7CC24DD24C4
:107E500088248394B5E0AB2EA1E19A2EF3E0BF2EE7
:107E6000A2D0813461F49FD0082FAFD0023811F036
:107E7000013811F484E001C083E08DD089C08234E0
:107E800011F484E103C0853419F485E0A6D080C0E4
:107E9000853579F488D0E82EFF2485D0082F10E0AE
:107EA000102F00270E291F29000F111F8ED06801E7
:107EB0006FC0863521F484E090D080E0DECF843638
:107EC00009F040C070D06FD0082F6DD080E0C81688
:107ED00080E7D80618F4F601B7BEE895C0E0D1E017
:107EE00062D089930C17E1F7F0E0CF16F0E7DF06D8
:107EF00018F0F601B7BEE89568D007B600FCFDCFD4
:107F0000A601A0E0B1E02C9130E011968C91119780
:107F100090E0982F8827822B932B1296FA010C0160
:107F200087BEE89511244E5F5F4FF1E0A038BF0790
:107F300051F7F601A7BEE89507B600FCFDCF97BE46
:107F4000E89526C08437B1F42ED02DD0F82E2BD052
:107F50003CD0F601EF2C8F010F5F1F4F84911BD097
:107F6000EA94F801C1F70894C11CD11CFA94CF0C13
:107F7000D11C0EC0853739F428D08EE10CD085E9AC
:107F80000AD08FE07ACF813511F488E018D01DD067
:107F900080E101D065CF982F8091C00085FFFCCF94
:107FA0009093C60008958091C00087FFFCCF809118
:107FB000C00084FD01C0A8958091C6000895E0E648
:107FC000F0E098E1908380830895EDDF803219F02E
:107FD00088E0F5DFFFCF84E1DECF1F93182FE3DFCA
:107FE0001150E9F7F2DF1F91089580E0E8DFEE27F6
:047FF000FF270994CA
:027FFE00040479
:00000001FF
