:100000000C947E000C94A6000C94A6000C94A60000
:100010000C94A6000C94A6000C94A6000C94A600C8
:100020000C94A6000C94A6000C94A6000C94A600B8
:100030000C94A6000C94A6000C94A6000C94A600A8
:100040000C9426020C94A6000C9496020C94700258
:100050000C94A6000C94A6000C94A6000C94A60088
:100060000C94A6000C94A6000000000024002700B9
:100070002A003D3D3D20746573745F73657269614C
:100080006C3A20696E6963696F203D3D3D00000058
:1000900000002300260029000000000025002800A1
:1000A0002B000404040404040404020202020202F9
:1000B000030303030303010204081020408001022C
:1000C00004081020010204081020000000080002AB
:1000D0000100000304070000000000000000486F5A
:1000E0006C6120646573646520656C204172647581
:1000F000696E6F2C206E203D2000240411241FBE49
:10010000CFEFD8E0DEBFCDBF11E0A0E0B1E0E6EF79
:10011000F8E002C005900D92A631B107D9F721E0B1
:10012000A6E1B1E001C01D92A03CB207E1F710E0EA
:10013000CEE7D0E004C02197FE010E947304CD37C2
:10014000D107C9F70E94C8020C9479040C940000EE
:10015000833081F028F4813099F08230A9F008953D
:100160008730A9F08830C9F08430B1F480918000E4
:100170008F7D03C0809180008F77809380000895E9
:1001800084B58F7784BD089584B58F7DFBCF809132
:10019000B0008F778093B00008958091B0008F7D7C
:1001A000F9CF3FB7F89480911F0190912001A09161
:1001B0002101B091220126B5A89B05C02F3F19F05F
:1001C0000196A11DB11D3FBFBA2FA92F982F8827D7
:1001D000BC01CD01620F711D811D911D42E0660FB2
:1001E000771F881F991F4A95D1F70895AF92BF9244
:1001F000CF92DF92EF92FF920F931F93CF93DF93F3
:100200006C017B018B01040F151FEB015E01AE1821
:10021000BF08C017D10759F06991D601ED91FC9143
:100220000190F081E02DC6010995892B79F7C50170
:10023000DF91CF911F910F91FF90EF90DF90CF90C2
:10024000BF90AF900895FC01538D448D252F30E071
:10025000842F90E0821B930B541710F0CF960895D3
:1002600001970895FC01918D828D981761F0A28D00
:10027000AE0FBF2FB11D5D968C91928D9F5F9F73C6
:10028000928F90E008958FEF9FEF0895FC01918D7C
:10029000828D981731F0828DE80FF11D858D90E0E9
:1002A00008958FEF9FEF0895FC01918D228D892F86
:1002B00090E0805C9F4F821B91098F73992708956E
:1002C00083E291E00E94540121E0892B09F420E0AF
:1002D000822F089580E090E0892B29F00E94600130
:1002E00081110C9400000895FC01A48DA80FB92F72
:1002F000B11DA35ABF4F2C91848D90E001968F734E
:100300009927848FA689B7892C93A089B1898C916C
:10031000837080648C93938D848D981306C00288BB
:10032000F389E02D80818F7D80830895EF92FF9285
:100330000F931F93CF93DF93EC0181E0888F9B8D08
:100340008C8D98131AC0E889F989808185FF15C0C2
:100350009FB7F894EE89FF896083E889F9898081E5
:100360008370806480839FBF81E090E0DF91CF91B4
:100370001F910F91FF90EF900895F62E0B8D10E0D6
:100380000F5F1F4F0F731127E02E8C8D8E110CC045
:100390000FB607FCFACFE889F989808185FFF5CF90
:1003A000CE010E947401F1CFEB8DEC0FFD2FF11DFA
:1003B000E35AFF4FF0829FB7F8940B8FEA89FB89CD
:1003C00080818062CFCF0F931F93CF93DF938C01F7
:1003D000D0E0C0E0F801EC0FFD1F6491662341F00E
:1003E00083E291E00E949601892B11F02196F2CFD1
:1003F000CE01DF91CF911F910F910895CF93DF939D
:10040000EC01888D8823B9F0AA89BB89E889F9892C
:100410008C9185FD03C0808186FD0DC00FB607FC61
:10042000F7CF8C9185FFF2CF808185FFEDCFCE0194
:100430000E947401E9CFDF91CF91089542E050E02E
:1004400062E171E083E291E00C94F6001F920F925A
:100450000FB60F9211242F933F938F939F93AF93D7
:10046000BF9380911B0190911C01A0911D01B0913F
:100470001E0130911A0123E0230F2D3758F5019604
:10048000A11DB11D20931A0180931B0190931C01A3
:10049000A0931D01B0931E0180911F019091200136
:1004A000A0912101B09122010196A11DB11D80935F
:1004B0001F0190932001A0932101B0932201BF91CD
:1004C000AF919F918F913F912F910F900FBE0F9001
:1004D0001F90189526E8230F0296A11DB11DD2CFBB
:1004E0001F920F920FB60F9211242F933F934F93A9
:1004F0005F936F937F938F939F93AF93BF93EF938C
:10050000FF9383E291E00E947401FF91EF91BF910C
:10051000AF919F918F917F916F915F914F913F919B
:100520002F910F900FBE0F901F9018951F920F9252
:100530000FB60F9211242F938F939F93EF93FF93F6
:10054000E0913301F09134018081E0913901F09123
:100550003A0182FD1BC0908180913C018F5F8F73B7
:1005600020913D01821741F0E0913C01F0E0ED5D0A
:10057000FE4F958F80933C01FF91EF919F918F915A
:100580002F910F900FBE0F901F9018958081F4CF80
:10059000CF93DF93CDB7DEB7A1970FB6F894DEBF48
:1005A0000FBECDBF789484B5826084BD84B5816070
:1005B00084BD85B5826085BD85B5816085BD80912E
:1005C0006E00816080936E001092810080918100A6
:1005D000826080938100809181008160809381009E
:1005E000809180008160809380008091B100846060
:1005F0008093B1008091B00081608093B0008091C1
:100600007A00846080937A0080917A00826080937F
:100610007A0080917A00816080937A0080917A00DC
:10062000806880937A001092C100E0913301F091CC
:10063000340182E08083E0912F01F091300110823B
:10064000E0913101F09132018FEC808310923B01F7
:10065000E0913701F091380186E08083E091350127
:10066000F0913601808180618083E0913501F091C5
:100670003601808188608083E0913501F0913601F8
:10068000808180688083E0913501F091360180811E
:100690008F7D8083E3ECF0E02491EFEAF0E0849139
:1006A000882399F090E0880F991FFC01E859FF4FCB
:1006B000A591B491FC01E856FF4F859194918FB7B5
:1006C000F8949C91292B2C938FBF82E790E00E9495
:1006D000E3010E941E023AE0432E512C612C712C42
:1006E00040E0242E40E0342E8EED90E00E94E301A5
:1006F0002091160130911701409118015091190174
:10070000DA01C9010196A11DB11D809316019093D4
:100710001701A0931801B093190119A28E010F5D62
:100720001F4FCA01B901A30192010E945104605DEB
:10073000F80162938F01211531054105510589F7B3
:10074000309761F001900020E9F73197AF01401B2D
:10075000510BB80183E291E00E94F6000E941E0254
:10076000E7EDF0E08491E3ECF0E01491EFEAF0E0E3
:100770000491002309F463C081110E94A800E02FB6
:10078000F0E0EE0FFF1FE257FF4FA591B4918C915F
:10079000182391E080E009F490E0092F182FE7ED8D
:1007A000F0E08491E3ECF0E0B490EFEAF0E0A490A4
:1007B000AA20A1F081110E94A800EA2DF0E0EE0F1E
:1007C000FF1FE856FF4FA591B4918FB7F8949C9105
:1007D000012BC1F1B094B922BC928FBF0E94D1000D
:1007E0006B017C0188EE882E83E0982EA12CB12C21
:1007F0000E94D1006C197D098E099F09683E7340E3
:1008000081059105A8F3F1E08F1A9108A108B108BC
:1008100028EEC20E23E0D21EE11CF11C81149104CB
:10082000A104B10429F72114310409F45DCF0E9419
:100830006001882309F458CF0E94000055CF10E0D2
:1008400000E0ADCFB92AC8CFE3E2F1E01382128213
:1008500088EE93E0A0E0B0E084839583A683B7831D
:1008600084E091E09183808385EC90E09587848794
:1008700084EC90E09787868780EC90E0918B808B6A
:1008800081EC90E0938B828B82EC90E0958B848B53
:1008900086EC90E0978B868B118E128E138E148EC1
:1008A0000895A1E21A2EAA1BBB1BFD010DC0AA1FB1
:1008B000BB1FEE1FFF1FA217B307E407F50720F0C9
:1008C000A21BB30BE40BF50B661F771F881F991F44
:1008D0001A9469F760957095809590959B01AC018D
:1008E000BD01CF010895EE0FFF1F0590F491E02D9B
:0608F0000994F894FFCF0B
:1008F600000000009601F6002301FE0154013201BA
:0609060046010D0A00008D
:00000001FF
